{
	"Emergency.sol": {
		"Emergency": {
			"abi": [
				{
					"inputs": [],
					"stateMutability": "nonpayable",
					"type": "constructor"
				},
				{
					"anonymous": false,
					"inputs": [
						{
							"indexed": true,
							"internalType": "address",
							"name": "",
							"type": "address"
						},
						{
							"indexed": false,
							"internalType": "uint256",
							"name": "ammount",
							"type": "uint256"
						}
					],
					"name": "EmergencyCall",
					"type": "event"
				},
				{
					"inputs": [],
					"name": "addEth",
					"outputs": [],
					"stateMutability": "payable",
					"type": "function"
				},
				{
					"inputs": [
						{
							"internalType": "address",
							"name": "organizationAddress",
							"type": "address"
						}
					],
					"name": "addOrganization",
					"outputs": [],
					"stateMutability": "nonpayable",
					"type": "function"
				},
				{
					"inputs": [],
					"name": "owner",
					"outputs": [
						{
							"internalType": "address",
							"name": "",
							"type": "address"
						}
					],
					"stateMutability": "view",
					"type": "function"
				},
				{
					"inputs": [
						{
							"internalType": "address",
							"name": "victim",
							"type": "address"
						},
						{
							"internalType": "uint256",
							"name": "ammount",
							"type": "uint256"
						},
						{
							"internalType": "string",
							"name": "description",
							"type": "string"
						}
					],
					"name": "raiseEmergency",
					"outputs": [],
					"stateMutability": "nonpayable",
					"type": "function"
				},
				{
					"stateMutability": "payable",
					"type": "receive"
				}
			],
			"devdoc": {
				"kind": "dev",
				"methods": {},
				"version": 1
			},
			"evm": {
				"assembly": "    /* \"Emergency.sol\":67:1722  contract Emergency {... */\n  mstore(0x40, 0x80)\n    /* \"Emergency.sol\":508:557  constructor() {... */\n  callvalue\n  dup1\n  iszero\n  tag_1\n  jumpi\n  revert(0x00, 0x00)\ntag_1:\n  pop\n    /* \"Emergency.sol\":540:550  msg.sender */\n  caller\n    /* \"Emergency.sol\":532:537  owner */\n  0x00\n  0x00\n    /* \"Emergency.sol\":532:550  owner = msg.sender */\n  0x0100\n  exp\n  dup2\n  sload\n  dup2\n  0xffffffffffffffffffffffffffffffffffffffff\n  mul\n  not\n  and\n  swap1\n  dup4\n  0xffffffffffffffffffffffffffffffffffffffff\n  and\n  mul\n  or\n  swap1\n  sstore\n  pop\n    /* \"Emergency.sol\":67:1722  contract Emergency {... */\n  dataSize(sub_0)\n  dup1\n  dataOffset(sub_0)\n  0x00\n  codecopy\n  0x00\n  return\nstop\n\nsub_0: assembly {\n        /* \"Emergency.sol\":67:1722  contract Emergency {... */\n      mstore(0x40, 0x80)\n      jumpi(tag_1, lt(calldatasize, 0x04))\n      shr(0xe0, calldataload(0x00))\n      dup1\n      0x0462230d\n      eq\n      tag_3\n      jumpi\n      dup1\n      0x8da5cb5b\n      eq\n      tag_4\n      jumpi\n      dup1\n      0xc2ac3aff\n      eq\n      tag_5\n      jumpi\n      dup1\n      0xd68287df\n      eq\n      tag_6\n      jumpi\n      jump(tag_2)\n    tag_1:\n      jumpi(tag_2, calldatasize)\n        /* \"Emergency.sol\":601:626  Payment memory newPayment */\n      0x00\n        /* \"Emergency.sol\":629:676  Payment(msg.sender, block.timestamp, msg.value) */\n      mload(0x40)\n      dup1\n      0x60\n      add\n      0x40\n      mstore\n      dup1\n        /* \"Emergency.sol\":637:647  msg.sender */\n      caller\n        /* \"Emergency.sol\":629:676  Payment(msg.sender, block.timestamp, msg.value) */\n      0xffffffffffffffffffffffffffffffffffffffff\n      and\n      dup2\n      mstore\n      0x20\n      add\n        /* \"Emergency.sol\":649:664  block.timestamp */\n      timestamp\n        /* \"Emergency.sol\":629:676  Payment(msg.sender, block.timestamp, msg.value) */\n      dup2\n      mstore\n      0x20\n      add\n        /* \"Emergency.sol\":666:675  msg.value */\n      callvalue\n        /* \"Emergency.sol\":629:676  Payment(msg.sender, block.timestamp, msg.value) */\n      dup2\n      mstore\n      pop\n        /* \"Emergency.sol\":601:676  Payment memory newPayment = Payment(msg.sender, block.timestamp, msg.value) */\n      swap1\n      pop\n        /* \"Emergency.sol\":738:746  payments */\n      0x01\n        /* \"Emergency.sol\":738:758  payments[msg.sender] */\n      0x00\n        /* \"Emergency.sol\":747:757  msg.sender */\n      caller\n        /* \"Emergency.sol\":738:758  payments[msg.sender] */\n      0xffffffffffffffffffffffffffffffffffffffff\n      and\n      0xffffffffffffffffffffffffffffffffffffffff\n      and\n      dup2\n      mstore\n      0x20\n      add\n      swap1\n      dup2\n      mstore\n      0x20\n      add\n      0x00\n      keccak256\n        /* \"Emergency.sol\":764:774  newPayment */\n      dup2\n        /* \"Emergency.sol\":738:775  payments[msg.sender].push(newPayment) */\n      swap1\n      dup1\n      0x01\n      dup2\n      sload\n      add\n      dup1\n      dup3\n      sstore\n      dup1\n      swap2\n      pop\n      pop\n      0x01\n      swap1\n      sub\n      swap1\n      0x00\n      mstore\n      keccak256(0x00, 0x20)\n      swap1\n      0x03\n      mul\n      add\n      0x00\n      swap1\n      swap2\n      swap1\n      swap2\n      swap1\n      swap2\n      pop\n      0x00\n      dup3\n      add\n      mload\n      dup2\n      0x00\n      add\n      exp(0x0100, 0x00)\n      dup2\n      sload\n      dup2\n      0xffffffffffffffffffffffffffffffffffffffff\n      mul\n      not\n      and\n      swap1\n      dup4\n      0xffffffffffffffffffffffffffffffffffffffff\n      and\n      mul\n      or\n      swap1\n      sstore\n      pop\n      0x20\n      dup3\n      add\n      mload\n      dup2\n      0x01\n      add\n      sstore\n      0x40\n      dup3\n      add\n      mload\n      dup2\n      0x02\n      add\n      sstore\n      stop\n        /* \"Emergency.sol\":67:1722  contract Emergency {... */\n    tag_2:\n      revert(0x00, 0x00)\n        /* \"Emergency.sol\":1352:1720  function raiseEmergency(address victim,uint ammount, string calldata description)public  isOwner isOrganization{... */\n    tag_3:\n      callvalue\n      dup1\n      iszero\n      tag_10\n      jumpi\n      revert(0x00, 0x00)\n    tag_10:\n      pop\n      tag_11\n      0x04\n      dup1\n      calldatasize\n      sub\n      dup2\n      add\n      swap1\n      tag_12\n      swap2\n      swap1\n      tag_13\n      jump\t// in\n    tag_12:\n      tag_14\n      jump\t// in\n    tag_11:\n      stop\n        /* \"Emergency.sol\":92:112  address public owner */\n    tag_4:\n      callvalue\n      dup1\n      iszero\n      tag_15\n      jumpi\n      revert(0x00, 0x00)\n    tag_15:\n      pop\n      tag_16\n      tag_17\n      jump\t// in\n    tag_16:\n      mload(0x40)\n      tag_18\n      swap2\n      swap1\n      tag_19\n      jump\t// in\n    tag_18:\n      mload(0x40)\n      dup1\n      swap2\n      sub\n      swap1\n      return\n        /* \"Emergency.sol\":1180:1215  function addEth() public payable {} */\n    tag_5:\n      tag_20\n      tag_21\n      jump\t// in\n    tag_20:\n      stop\n        /* \"Emergency.sol\":1221:1345  function addOrganization(address organizationAddress) public isOwner{... */\n    tag_6:\n      callvalue\n      dup1\n      iszero\n      tag_22\n      jumpi\n      revert(0x00, 0x00)\n    tag_22:\n      pop\n      tag_23\n      0x04\n      dup1\n      calldatasize\n      sub\n      dup2\n      add\n      swap1\n      tag_24\n      swap2\n      swap1\n      tag_25\n      jump\t// in\n    tag_24:\n      tag_26\n      jump\t// in\n    tag_23:\n      stop\n        /* \"Emergency.sol\":1352:1720  function raiseEmergency(address victim,uint ammount, string calldata description)public  isOwner isOrganization{... */\n    tag_14:\n        /* \"Emergency.sol\":852:857  owner */\n      0x00\n      0x00\n      swap1\n      sload\n      swap1\n      0x0100\n      exp\n      swap1\n      div\n      0xffffffffffffffffffffffffffffffffffffffff\n      and\n        /* \"Emergency.sol\":838:857  msg.sender == owner */\n      0xffffffffffffffffffffffffffffffffffffffff\n      and\n        /* \"Emergency.sol\":838:848  msg.sender */\n      caller\n        /* \"Emergency.sol\":838:857  msg.sender == owner */\n      0xffffffffffffffffffffffffffffffffffffffff\n      and\n      eq\n        /* \"Emergency.sol\":830:880  require(msg.sender == owner, \"You are not owner!\") */\n      tag_28\n      jumpi\n      mload(0x40)\n      0x08c379a000000000000000000000000000000000000000000000000000000000\n      dup2\n      mstore\n      0x04\n      add\n      tag_29\n      swap1\n      tag_30\n      jump\t// in\n    tag_29:\n      mload(0x40)\n      dup1\n      swap2\n      sub\n      swap1\n      revert\n    tag_28:\n        /* \"Emergency.sol\":939:948  bool next */\n      0x00\n        /* \"Emergency.sol\":951:956  false */\n      0x00\n        /* \"Emergency.sol\":939:956  bool next = false */\n      swap1\n      pop\n        /* \"Emergency.sol\":970:976  uint i */\n      0x00\n        /* \"Emergency.sol\":966:1111  for(uint i; i < organizations.length; i++){... */\n    tag_32:\n        /* \"Emergency.sol\":982:995  organizations */\n      0x02\n        /* \"Emergency.sol\":982:1002  organizations.length */\n      dup1\n      sload\n      swap1\n      pop\n        /* \"Emergency.sol\":978:979  i */\n      dup2\n        /* \"Emergency.sol\":978:1002  i < organizations.length */\n      lt\n        /* \"Emergency.sol\":966:1111  for(uint i; i < organizations.length; i++){... */\n      iszero\n      tag_33\n      jumpi\n        /* \"Emergency.sol\":1040:1053  organizations */\n      0x02\n        /* \"Emergency.sol\":1054:1055  i */\n      dup2\n        /* \"Emergency.sol\":1040:1056  organizations[i] */\n      dup2\n      sload\n      dup2\n      lt\n      tag_35\n      jumpi\n      tag_36\n      tag_37\n      jump\t// in\n    tag_36:\n    tag_35:\n      swap1\n      0x00\n      mstore\n      keccak256(0x00, 0x20)\n      add\n      0x00\n      swap1\n      sload\n      swap1\n      0x0100\n      exp\n      swap1\n      div\n      0xffffffffffffffffffffffffffffffffffffffff\n      and\n        /* \"Emergency.sol\":1026:1056  msg.sender == organizations[i] */\n      0xffffffffffffffffffffffffffffffffffffffff\n      and\n        /* \"Emergency.sol\":1026:1036  msg.sender */\n      caller\n        /* \"Emergency.sol\":1026:1056  msg.sender == organizations[i] */\n      0xffffffffffffffffffffffffffffffffffffffff\n      and\n      sub\n        /* \"Emergency.sol\":1022:1101  if (msg.sender == organizations[i]){... */\n      tag_39\n      jumpi\n        /* \"Emergency.sol\":1082:1086  true */\n      0x01\n        /* \"Emergency.sol\":1075:1086  next = true */\n      swap2\n      pop\n        /* \"Emergency.sol\":1022:1101  if (msg.sender == organizations[i]){... */\n    tag_39:\n        /* \"Emergency.sol\":1004:1007  i++ */\n      dup1\n      dup1\n      0x01\n      add\n      swap2\n      pop\n      pop\n        /* \"Emergency.sol\":966:1111  for(uint i; i < organizations.length; i++){... */\n      jump(tag_32)\n    tag_33:\n      pop\n        /* \"Emergency.sol\":1128:1132  next */\n      dup1\n        /* \"Emergency.sol\":1120:1157  require(next, \"Not an organization!\") */\n      tag_40\n      jumpi\n      mload(0x40)\n      0x08c379a000000000000000000000000000000000000000000000000000000000\n      dup2\n      mstore\n      0x04\n      add\n      tag_41\n      swap1\n      tag_42\n      jump\t// in\n    tag_41:\n      mload(0x40)\n      dup1\n      swap2\n      sub\n      swap1\n      revert\n    tag_40:\n        /* \"Emergency.sol\":1473:1484  emergencies */\n      0x03\n        /* \"Emergency.sol\":1491:1552  EmergencyDetails(victim,description, ammount,block.timestamp) */\n      mload(0x40)\n      dup1\n      0x80\n      add\n      0x40\n      mstore\n      dup1\n        /* \"Emergency.sol\":1508:1514  victim */\n      dup8\n        /* \"Emergency.sol\":1491:1552  EmergencyDetails(victim,description, ammount,block.timestamp) */\n      0xffffffffffffffffffffffffffffffffffffffff\n      and\n      dup2\n      mstore\n      0x20\n      add\n        /* \"Emergency.sol\":1515:1526  description */\n      dup6\n      dup6\n        /* \"Emergency.sol\":1491:1552  EmergencyDetails(victim,description, ammount,block.timestamp) */\n      dup1\n      dup1\n      0x1f\n      add\n      0x20\n      dup1\n      swap2\n      div\n      mul\n      0x20\n      add\n      mload(0x40)\n      swap1\n      dup2\n      add\n      0x40\n      mstore\n      dup1\n      swap4\n      swap3\n      swap2\n      swap1\n      dup2\n      dup2\n      mstore\n      0x20\n      add\n      dup4\n      dup4\n      dup1\n      dup3\n      dup5\n      calldatacopy\n      0x00\n      dup2\n      dup5\n      add\n      mstore\n      not(0x1f)\n      0x1f\n      dup3\n      add\n      and\n      swap1\n      pop\n      dup1\n      dup4\n      add\n      swap3\n      pop\n      pop\n      pop\n      pop\n      pop\n      pop\n      pop\n      dup2\n      mstore\n      0x20\n      add\n        /* \"Emergency.sol\":1528:1535  ammount */\n      dup7\n        /* \"Emergency.sol\":1491:1552  EmergencyDetails(victim,description, ammount,block.timestamp) */\n      dup2\n      mstore\n      0x20\n      add\n        /* \"Emergency.sol\":1536:1551  block.timestamp */\n      timestamp\n        /* \"Emergency.sol\":1491:1552  EmergencyDetails(victim,description, ammount,block.timestamp) */\n      dup2\n      mstore\n      pop\n        /* \"Emergency.sol\":1473:1553  emergencies.push (EmergencyDetails(victim,description, ammount,block.timestamp)) */\n      swap1\n      dup1\n      0x01\n      dup2\n      sload\n      add\n      dup1\n      dup3\n      sstore\n      dup1\n      swap2\n      pop\n      pop\n      0x01\n      swap1\n      sub\n      swap1\n      0x00\n      mstore\n      keccak256(0x00, 0x20)\n      swap1\n      0x04\n      mul\n      add\n      0x00\n      swap1\n      swap2\n      swap1\n      swap2\n      swap1\n      swap2\n      pop\n      0x00\n      dup3\n      add\n      mload\n      dup2\n      0x00\n      add\n      exp(0x0100, 0x00)\n      dup2\n      sload\n      dup2\n      0xffffffffffffffffffffffffffffffffffffffff\n      mul\n      not\n      and\n      swap1\n      dup4\n      0xffffffffffffffffffffffffffffffffffffffff\n      and\n      mul\n      or\n      swap1\n      sstore\n      pop\n      0x20\n      dup3\n      add\n      mload\n      dup2\n      0x01\n      add\n      swap1\n      dup2\n      tag_45\n      swap2\n      swap1\n      tag_46\n      jump\t// in\n    tag_45:\n      pop\n      0x40\n      dup3\n      add\n      mload\n      dup2\n      0x02\n      add\n      sstore\n      0x60\n      dup3\n      add\n      mload\n      dup2\n      0x03\n      add\n      sstore\n      pop\n      pop\n        /* \"Emergency.sol\":1564:1576  bool request */\n      0x00\n        /* \"Emergency.sol\":1590:1596  victim */\n      dup6\n        /* \"Emergency.sol\":1582:1602  payable(victim).call */\n      0xffffffffffffffffffffffffffffffffffffffff\n      and\n        /* \"Emergency.sol\":1610:1617  ammount */\n      dup6\n        /* \"Emergency.sol\":1582:1622  payable(victim).call{value: ammount}(\"\") */\n      mload(0x40)\n      tag_47\n      swap1\n      tag_48\n      jump\t// in\n    tag_47:\n      0x00\n      mload(0x40)\n      dup1\n      dup4\n      sub\n      dup2\n      dup6\n      dup8\n      gas\n      call\n      swap3\n      pop\n      pop\n      pop\n      returndatasize\n      dup1\n      0x00\n      dup2\n      eq\n      tag_51\n      jumpi\n      mload(0x40)\n      swap2\n      pop\n      and(add(returndatasize, 0x3f), not(0x1f))\n      dup3\n      add\n      0x40\n      mstore\n      returndatasize\n      dup3\n      mstore\n      returndatasize\n      0x00\n      0x20\n      dup5\n      add\n      returndatacopy\n      jump(tag_50)\n    tag_51:\n      0x60\n      swap2\n      pop\n    tag_50:\n      pop\n        /* \"Emergency.sol\":1563:1622  (bool request, ) = payable(victim).call{value: ammount}(\"\") */\n      pop\n      swap1\n      pop\n        /* \"Emergency.sol\":1640:1647  request */\n      dup1\n        /* \"Emergency.sol\":1632:1667  require(request, \"Payment failed!\") */\n      tag_52\n      jumpi\n      mload(0x40)\n      0x08c379a000000000000000000000000000000000000000000000000000000000\n      dup2\n      mstore\n      0x04\n      add\n      tag_53\n      swap1\n      tag_54\n      jump\t// in\n    tag_53:\n      mload(0x40)\n      dup1\n      swap2\n      sub\n      swap1\n      revert\n    tag_52:\n        /* \"Emergency.sol\":1696:1702  victim */\n      dup6\n        /* \"Emergency.sol\":1682:1712  EmergencyCall(victim, ammount) */\n      0xffffffffffffffffffffffffffffffffffffffff\n      and\n      0x041d5930c0029b0bbd634120613c0565396ddb90ebcb050b9151c6a791d5304e\n        /* \"Emergency.sol\":1704:1711  ammount */\n      dup7\n        /* \"Emergency.sol\":1682:1712  EmergencyCall(victim, ammount) */\n      mload(0x40)\n      tag_55\n      swap2\n      swap1\n      tag_56\n      jump\t// in\n    tag_55:\n      mload(0x40)\n      dup1\n      swap2\n      sub\n      swap1\n      log2\n        /* \"Emergency.sol\":1463:1720  {... */\n      pop\n        /* \"Emergency.sol\":929:1175  {... */\n      pop\n        /* \"Emergency.sol\":1352:1720  function raiseEmergency(address victim,uint ammount, string calldata description)public  isOwner isOrganization{... */\n      pop\n      pop\n      pop\n      pop\n      jump\t// out\n        /* \"Emergency.sol\":92:112  address public owner */\n    tag_17:\n      0x00\n      0x00\n      swap1\n      sload\n      swap1\n      0x0100\n      exp\n      swap1\n      div\n      0xffffffffffffffffffffffffffffffffffffffff\n      and\n      dup2\n      jump\t// out\n        /* \"Emergency.sol\":1180:1215  function addEth() public payable {} */\n    tag_21:\n      jump\t// out\n        /* \"Emergency.sol\":1221:1345  function addOrganization(address organizationAddress) public isOwner{... */\n    tag_26:\n        /* \"Emergency.sol\":852:857  owner */\n      0x00\n      0x00\n      swap1\n      sload\n      swap1\n      0x0100\n      exp\n      swap1\n      div\n      0xffffffffffffffffffffffffffffffffffffffff\n      and\n        /* \"Emergency.sol\":838:857  msg.sender == owner */\n      0xffffffffffffffffffffffffffffffffffffffff\n      and\n        /* \"Emergency.sol\":838:848  msg.sender */\n      caller\n        /* \"Emergency.sol\":838:857  msg.sender == owner */\n      0xffffffffffffffffffffffffffffffffffffffff\n      and\n      eq\n        /* \"Emergency.sol\":830:880  require(msg.sender == owner, \"You are not owner!\") */\n      tag_59\n      jumpi\n      mload(0x40)\n      0x08c379a000000000000000000000000000000000000000000000000000000000\n      dup2\n      mstore\n      0x04\n      add\n      tag_60\n      swap1\n      tag_30\n      jump\t// in\n    tag_60:\n      mload(0x40)\n      dup1\n      swap2\n      sub\n      swap1\n      revert\n    tag_59:\n        /* \"Emergency.sol\":1299:1312  organizations */\n      0x02\n        /* \"Emergency.sol\":1318:1337  organizationAddress */\n      dup2\n        /* \"Emergency.sol\":1299:1338  organizations.push(organizationAddress) */\n      swap1\n      dup1\n      0x01\n      dup2\n      sload\n      add\n      dup1\n      dup3\n      sstore\n      dup1\n      swap2\n      pop\n      pop\n      0x01\n      swap1\n      sub\n      swap1\n      0x00\n      mstore\n      keccak256(0x00, 0x20)\n      add\n      0x00\n      swap1\n      swap2\n      swap1\n      swap2\n      swap1\n      swap2\n      0x0100\n      exp\n      dup2\n      sload\n      dup2\n      0xffffffffffffffffffffffffffffffffffffffff\n      mul\n      not\n      and\n      swap1\n      dup4\n      0xffffffffffffffffffffffffffffffffffffffff\n      and\n      mul\n      or\n      swap1\n      sstore\n      pop\n        /* \"Emergency.sol\":1221:1345  function addOrganization(address organizationAddress) public isOwner{... */\n      pop\n      jump\t// out\n        /* \"#utility.yul\":88:205   */\n    tag_64:\n        /* \"#utility.yul\":197:198   */\n      0x00\n        /* \"#utility.yul\":194:195   */\n      0x00\n        /* \"#utility.yul\":187:199   */\n      revert\n        /* \"#utility.yul\":211:328   */\n    tag_65:\n        /* \"#utility.yul\":320:321   */\n      0x00\n        /* \"#utility.yul\":317:318   */\n      0x00\n        /* \"#utility.yul\":310:322   */\n      revert\n        /* \"#utility.yul\":334:460   */\n    tag_66:\n        /* \"#utility.yul\":371:378   */\n      0x00\n        /* \"#utility.yul\":411:453   */\n      0xffffffffffffffffffffffffffffffffffffffff\n        /* \"#utility.yul\":404:409   */\n      dup3\n        /* \"#utility.yul\":400:454   */\n      and\n        /* \"#utility.yul\":389:454   */\n      swap1\n      pop\n        /* \"#utility.yul\":334:460   */\n      swap2\n      swap1\n      pop\n      jump\t// out\n        /* \"#utility.yul\":466:562   */\n    tag_67:\n        /* \"#utility.yul\":503:510   */\n      0x00\n        /* \"#utility.yul\":532:556   */\n      tag_114\n        /* \"#utility.yul\":550:555   */\n      dup3\n        /* \"#utility.yul\":532:556   */\n      tag_66\n      jump\t// in\n    tag_114:\n        /* \"#utility.yul\":521:556   */\n      swap1\n      pop\n        /* \"#utility.yul\":466:562   */\n      swap2\n      swap1\n      pop\n      jump\t// out\n        /* \"#utility.yul\":568:690   */\n    tag_68:\n        /* \"#utility.yul\":641:665   */\n      tag_116\n        /* \"#utility.yul\":659:664   */\n      dup2\n        /* \"#utility.yul\":641:665   */\n      tag_67\n      jump\t// in\n    tag_116:\n        /* \"#utility.yul\":634:639   */\n      dup2\n        /* \"#utility.yul\":631:666   */\n      eq\n        /* \"#utility.yul\":621:684   */\n      tag_117\n      jumpi\n        /* \"#utility.yul\":680:681   */\n      0x00\n        /* \"#utility.yul\":677:678   */\n      0x00\n        /* \"#utility.yul\":670:682   */\n      revert\n        /* \"#utility.yul\":621:684   */\n    tag_117:\n        /* \"#utility.yul\":568:690   */\n      pop\n      jump\t// out\n        /* \"#utility.yul\":696:835   */\n    tag_69:\n        /* \"#utility.yul\":742:747   */\n      0x00\n        /* \"#utility.yul\":780:786   */\n      dup2\n        /* \"#utility.yul\":767:787   */\n      calldataload\n        /* \"#utility.yul\":758:787   */\n      swap1\n      pop\n        /* \"#utility.yul\":796:829   */\n      tag_119\n        /* \"#utility.yul\":823:828   */\n      dup2\n        /* \"#utility.yul\":796:829   */\n      tag_68\n      jump\t// in\n    tag_119:\n        /* \"#utility.yul\":696:835   */\n      swap3\n      swap2\n      pop\n      pop\n      jump\t// out\n        /* \"#utility.yul\":841:918   */\n    tag_70:\n        /* \"#utility.yul\":878:885   */\n      0x00\n        /* \"#utility.yul\":907:912   */\n      dup2\n        /* \"#utility.yul\":896:912   */\n      swap1\n      pop\n        /* \"#utility.yul\":841:918   */\n      swap2\n      swap1\n      pop\n      jump\t// out\n        /* \"#utility.yul\":924:1046   */\n    tag_71:\n        /* \"#utility.yul\":997:1021   */\n      tag_122\n        /* \"#utility.yul\":1015:1020   */\n      dup2\n        /* \"#utility.yul\":997:1021   */\n      tag_70\n      jump\t// in\n    tag_122:\n        /* \"#utility.yul\":990:995   */\n      dup2\n        /* \"#utility.yul\":987:1022   */\n      eq\n        /* \"#utility.yul\":977:1040   */\n      tag_123\n      jumpi\n        /* \"#utility.yul\":1036:1037   */\n      0x00\n        /* \"#utility.yul\":1033:1034   */\n      0x00\n        /* \"#utility.yul\":1026:1038   */\n      revert\n        /* \"#utility.yul\":977:1040   */\n    tag_123:\n        /* \"#utility.yul\":924:1046   */\n      pop\n      jump\t// out\n        /* \"#utility.yul\":1052:1191   */\n    tag_72:\n        /* \"#utility.yul\":1098:1103   */\n      0x00\n        /* \"#utility.yul\":1136:1142   */\n      dup2\n        /* \"#utility.yul\":1123:1143   */\n      calldataload\n        /* \"#utility.yul\":1114:1143   */\n      swap1\n      pop\n        /* \"#utility.yul\":1152:1185   */\n      tag_125\n        /* \"#utility.yul\":1179:1184   */\n      dup2\n        /* \"#utility.yul\":1152:1185   */\n      tag_71\n      jump\t// in\n    tag_125:\n        /* \"#utility.yul\":1052:1191   */\n      swap3\n      swap2\n      pop\n      pop\n      jump\t// out\n        /* \"#utility.yul\":1197:1314   */\n    tag_73:\n        /* \"#utility.yul\":1306:1307   */\n      0x00\n        /* \"#utility.yul\":1303:1304   */\n      0x00\n        /* \"#utility.yul\":1296:1308   */\n      revert\n        /* \"#utility.yul\":1320:1437   */\n    tag_74:\n        /* \"#utility.yul\":1429:1430   */\n      0x00\n        /* \"#utility.yul\":1426:1427   */\n      0x00\n        /* \"#utility.yul\":1419:1431   */\n      revert\n        /* \"#utility.yul\":1443:1560   */\n    tag_75:\n        /* \"#utility.yul\":1552:1553   */\n      0x00\n        /* \"#utility.yul\":1549:1550   */\n      0x00\n        /* \"#utility.yul\":1542:1554   */\n      revert\n        /* \"#utility.yul\":1580:2133   */\n    tag_76:\n        /* \"#utility.yul\":1638:1646   */\n      0x00\n        /* \"#utility.yul\":1648:1654   */\n      0x00\n        /* \"#utility.yul\":1698:1701   */\n      dup4\n        /* \"#utility.yul\":1691:1695   */\n      0x1f\n        /* \"#utility.yul\":1683:1689   */\n      dup5\n        /* \"#utility.yul\":1679:1696   */\n      add\n        /* \"#utility.yul\":1675:1702   */\n      slt\n        /* \"#utility.yul\":1665:1787   */\n      tag_130\n      jumpi\n        /* \"#utility.yul\":1706:1785   */\n      tag_131\n      tag_73\n      jump\t// in\n    tag_131:\n        /* \"#utility.yul\":1665:1787   */\n    tag_130:\n        /* \"#utility.yul\":1819:1825   */\n      dup3\n        /* \"#utility.yul\":1806:1826   */\n      calldataload\n        /* \"#utility.yul\":1796:1826   */\n      swap1\n      pop\n        /* \"#utility.yul\":1849:1867   */\n      0xffffffffffffffff\n        /* \"#utility.yul\":1841:1847   */\n      dup2\n        /* \"#utility.yul\":1838:1868   */\n      gt\n        /* \"#utility.yul\":1835:1952   */\n      iszero\n      tag_132\n      jumpi\n        /* \"#utility.yul\":1871:1950   */\n      tag_133\n      tag_74\n      jump\t// in\n    tag_133:\n        /* \"#utility.yul\":1835:1952   */\n    tag_132:\n        /* \"#utility.yul\":1985:1989   */\n      0x20\n        /* \"#utility.yul\":1977:1983   */\n      dup4\n        /* \"#utility.yul\":1973:1990   */\n      add\n        /* \"#utility.yul\":1961:1990   */\n      swap2\n      pop\n        /* \"#utility.yul\":2039:2042   */\n      dup4\n        /* \"#utility.yul\":2031:2035   */\n      0x01\n        /* \"#utility.yul\":2023:2029   */\n      dup3\n        /* \"#utility.yul\":2019:2036   */\n      mul\n        /* \"#utility.yul\":2009:2017   */\n      dup4\n        /* \"#utility.yul\":2005:2037   */\n      add\n        /* \"#utility.yul\":2002:2043   */\n      gt\n        /* \"#utility.yul\":1999:2127   */\n      iszero\n      tag_134\n      jumpi\n        /* \"#utility.yul\":2046:2125   */\n      tag_135\n      tag_75\n      jump\t// in\n    tag_135:\n        /* \"#utility.yul\":1999:2127   */\n    tag_134:\n        /* \"#utility.yul\":1580:2133   */\n      swap3\n      pop\n      swap3\n      swap1\n      pop\n      jump\t// out\n        /* \"#utility.yul\":2139:2958   */\n    tag_13:\n        /* \"#utility.yul\":2228:2234   */\n      0x00\n        /* \"#utility.yul\":2236:2242   */\n      0x00\n        /* \"#utility.yul\":2244:2250   */\n      0x00\n        /* \"#utility.yul\":2252:2258   */\n      0x00\n        /* \"#utility.yul\":2301:2303   */\n      0x60\n        /* \"#utility.yul\":2289:2298   */\n      dup6\n        /* \"#utility.yul\":2280:2287   */\n      dup8\n        /* \"#utility.yul\":2276:2299   */\n      sub\n        /* \"#utility.yul\":2272:2304   */\n      slt\n        /* \"#utility.yul\":2269:2388   */\n      iszero\n      tag_137\n      jumpi\n        /* \"#utility.yul\":2307:2386   */\n      tag_138\n      tag_64\n      jump\t// in\n    tag_138:\n        /* \"#utility.yul\":2269:2388   */\n    tag_137:\n        /* \"#utility.yul\":2427:2428   */\n      0x00\n        /* \"#utility.yul\":2452:2505   */\n      tag_139\n        /* \"#utility.yul\":2497:2504   */\n      dup8\n        /* \"#utility.yul\":2488:2494   */\n      dup3\n        /* \"#utility.yul\":2477:2486   */\n      dup9\n        /* \"#utility.yul\":2473:2495   */\n      add\n        /* \"#utility.yul\":2452:2505   */\n      tag_69\n      jump\t// in\n    tag_139:\n        /* \"#utility.yul\":2442:2505   */\n      swap5\n      pop\n        /* \"#utility.yul\":2398:2515   */\n      pop\n        /* \"#utility.yul\":2554:2556   */\n      0x20\n        /* \"#utility.yul\":2580:2633   */\n      tag_140\n        /* \"#utility.yul\":2625:2632   */\n      dup8\n        /* \"#utility.yul\":2616:2622   */\n      dup3\n        /* \"#utility.yul\":2605:2614   */\n      dup9\n        /* \"#utility.yul\":2601:2623   */\n      add\n        /* \"#utility.yul\":2580:2633   */\n      tag_72\n      jump\t// in\n    tag_140:\n        /* \"#utility.yul\":2570:2633   */\n      swap4\n      pop\n        /* \"#utility.yul\":2525:2643   */\n      pop\n        /* \"#utility.yul\":2710:2712   */\n      0x40\n        /* \"#utility.yul\":2699:2708   */\n      dup6\n        /* \"#utility.yul\":2695:2713   */\n      add\n        /* \"#utility.yul\":2682:2714   */\n      calldataload\n        /* \"#utility.yul\":2741:2759   */\n      0xffffffffffffffff\n        /* \"#utility.yul\":2733:2739   */\n      dup2\n        /* \"#utility.yul\":2730:2760   */\n      gt\n        /* \"#utility.yul\":2727:2844   */\n      iszero\n      tag_141\n      jumpi\n        /* \"#utility.yul\":2763:2842   */\n      tag_142\n      tag_65\n      jump\t// in\n    tag_142:\n        /* \"#utility.yul\":2727:2844   */\n    tag_141:\n        /* \"#utility.yul\":2876:2941   */\n      tag_143\n        /* \"#utility.yul\":2933:2940   */\n      dup8\n        /* \"#utility.yul\":2924:2930   */\n      dup3\n        /* \"#utility.yul\":2913:2922   */\n      dup9\n        /* \"#utility.yul\":2909:2931   */\n      add\n        /* \"#utility.yul\":2876:2941   */\n      tag_76\n      jump\t// in\n    tag_143:\n        /* \"#utility.yul\":2858:2941   */\n      swap3\n      pop\n      swap3\n      pop\n        /* \"#utility.yul\":2653:2951   */\n      pop\n        /* \"#utility.yul\":2139:2958   */\n      swap3\n      swap6\n      swap2\n      swap5\n      pop\n      swap3\n      pop\n      jump\t// out\n        /* \"#utility.yul\":2964:3082   */\n    tag_77:\n        /* \"#utility.yul\":3051:3075   */\n      tag_145\n        /* \"#utility.yul\":3069:3074   */\n      dup2\n        /* \"#utility.yul\":3051:3075   */\n      tag_67\n      jump\t// in\n    tag_145:\n        /* \"#utility.yul\":3046:3049   */\n      dup3\n        /* \"#utility.yul\":3039:3076   */\n      mstore\n        /* \"#utility.yul\":2964:3082   */\n      pop\n      pop\n      jump\t// out\n        /* \"#utility.yul\":3088:3310   */\n    tag_19:\n        /* \"#utility.yul\":3181:3185   */\n      0x00\n        /* \"#utility.yul\":3219:3221   */\n      0x20\n        /* \"#utility.yul\":3208:3217   */\n      dup3\n        /* \"#utility.yul\":3204:3222   */\n      add\n        /* \"#utility.yul\":3196:3222   */\n      swap1\n      pop\n        /* \"#utility.yul\":3232:3303   */\n      tag_147\n        /* \"#utility.yul\":3300:3301   */\n      0x00\n        /* \"#utility.yul\":3289:3298   */\n      dup4\n        /* \"#utility.yul\":3285:3302   */\n      add\n        /* \"#utility.yul\":3276:3282   */\n      dup5\n        /* \"#utility.yul\":3232:3303   */\n      tag_77\n      jump\t// in\n    tag_147:\n        /* \"#utility.yul\":3088:3310   */\n      swap3\n      swap2\n      pop\n      pop\n      jump\t// out\n        /* \"#utility.yul\":3316:3645   */\n    tag_25:\n        /* \"#utility.yul\":3375:3381   */\n      0x00\n        /* \"#utility.yul\":3424:3426   */\n      0x20\n        /* \"#utility.yul\":3412:3421   */\n      dup3\n        /* \"#utility.yul\":3403:3410   */\n      dup5\n        /* \"#utility.yul\":3399:3422   */\n      sub\n        /* \"#utility.yul\":3395:3427   */\n      slt\n        /* \"#utility.yul\":3392:3511   */\n      iszero\n      tag_149\n      jumpi\n        /* \"#utility.yul\":3430:3509   */\n      tag_150\n      tag_64\n      jump\t// in\n    tag_150:\n        /* \"#utility.yul\":3392:3511   */\n    tag_149:\n        /* \"#utility.yul\":3550:3551   */\n      0x00\n        /* \"#utility.yul\":3575:3628   */\n      tag_151\n        /* \"#utility.yul\":3620:3627   */\n      dup5\n        /* \"#utility.yul\":3611:3617   */\n      dup3\n        /* \"#utility.yul\":3600:3609   */\n      dup6\n        /* \"#utility.yul\":3596:3618   */\n      add\n        /* \"#utility.yul\":3575:3628   */\n      tag_69\n      jump\t// in\n    tag_151:\n        /* \"#utility.yul\":3565:3628   */\n      swap2\n      pop\n        /* \"#utility.yul\":3521:3638   */\n      pop\n        /* \"#utility.yul\":3316:3645   */\n      swap3\n      swap2\n      pop\n      pop\n      jump\t// out\n        /* \"#utility.yul\":3651:3820   */\n    tag_78:\n        /* \"#utility.yul\":3735:3746   */\n      0x00\n        /* \"#utility.yul\":3769:3775   */\n      dup3\n        /* \"#utility.yul\":3764:3767   */\n      dup3\n        /* \"#utility.yul\":3757:3776   */\n      mstore\n        /* \"#utility.yul\":3809:3813   */\n      0x20\n        /* \"#utility.yul\":3804:3807   */\n      dup3\n        /* \"#utility.yul\":3800:3814   */\n      add\n        /* \"#utility.yul\":3785:3814   */\n      swap1\n      pop\n        /* \"#utility.yul\":3651:3820   */\n      swap3\n      swap2\n      pop\n      pop\n      jump\t// out\n        /* \"#utility.yul\":3826:3994   */\n    tag_79:\n        /* \"#utility.yul\":3966:3986   */\n      0x596f7520617265206e6f74206f776e6572210000000000000000000000000000\n        /* \"#utility.yul\":3962:3963   */\n      0x00\n        /* \"#utility.yul\":3954:3960   */\n      dup3\n        /* \"#utility.yul\":3950:3964   */\n      add\n        /* \"#utility.yul\":3943:3987   */\n      mstore\n        /* \"#utility.yul\":3826:3994   */\n      pop\n      jump\t// out\n        /* \"#utility.yul\":4000:4366   */\n    tag_80:\n        /* \"#utility.yul\":4142:4145   */\n      0x00\n        /* \"#utility.yul\":4163:4230   */\n      tag_155\n        /* \"#utility.yul\":4227:4229   */\n      0x12\n        /* \"#utility.yul\":4222:4225   */\n      dup4\n        /* \"#utility.yul\":4163:4230   */\n      tag_78\n      jump\t// in\n    tag_155:\n        /* \"#utility.yul\":4156:4230   */\n      swap2\n      pop\n        /* \"#utility.yul\":4239:4332   */\n      tag_156\n        /* \"#utility.yul\":4328:4331   */\n      dup3\n        /* \"#utility.yul\":4239:4332   */\n      tag_79\n      jump\t// in\n    tag_156:\n        /* \"#utility.yul\":4357:4359   */\n      0x20\n        /* \"#utility.yul\":4352:4355   */\n      dup3\n        /* \"#utility.yul\":4348:4360   */\n      add\n        /* \"#utility.yul\":4341:4360   */\n      swap1\n      pop\n        /* \"#utility.yul\":4000:4366   */\n      swap2\n      swap1\n      pop\n      jump\t// out\n        /* \"#utility.yul\":4372:4791   */\n    tag_30:\n        /* \"#utility.yul\":4538:4542   */\n      0x00\n        /* \"#utility.yul\":4576:4578   */\n      0x20\n        /* \"#utility.yul\":4565:4574   */\n      dup3\n        /* \"#utility.yul\":4561:4579   */\n      add\n        /* \"#utility.yul\":4553:4579   */\n      swap1\n      pop\n        /* \"#utility.yul\":4625:4634   */\n      dup2\n        /* \"#utility.yul\":4619:4623   */\n      dup2\n        /* \"#utility.yul\":4615:4635   */\n      sub\n        /* \"#utility.yul\":4611:4612   */\n      0x00\n        /* \"#utility.yul\":4600:4609   */\n      dup4\n        /* \"#utility.yul\":4596:4613   */\n      add\n        /* \"#utility.yul\":4589:4636   */\n      mstore\n        /* \"#utility.yul\":4653:4784   */\n      tag_158\n        /* \"#utility.yul\":4779:4783   */\n      dup2\n        /* \"#utility.yul\":4653:4784   */\n      tag_80\n      jump\t// in\n    tag_158:\n        /* \"#utility.yul\":4645:4784   */\n      swap1\n      pop\n        /* \"#utility.yul\":4372:4791   */\n      swap2\n      swap1\n      pop\n      jump\t// out\n        /* \"#utility.yul\":4797:4977   */\n    tag_37:\n        /* \"#utility.yul\":4845:4922   */\n      0x4e487b7100000000000000000000000000000000000000000000000000000000\n        /* \"#utility.yul\":4842:4843   */\n      0x00\n        /* \"#utility.yul\":4835:4923   */\n      mstore\n        /* \"#utility.yul\":4942:4946   */\n      0x32\n        /* \"#utility.yul\":4939:4940   */\n      0x04\n        /* \"#utility.yul\":4932:4947   */\n      mstore\n        /* \"#utility.yul\":4966:4970   */\n      0x24\n        /* \"#utility.yul\":4963:4964   */\n      0x00\n        /* \"#utility.yul\":4956:4971   */\n      revert\n        /* \"#utility.yul\":4983:5153   */\n    tag_81:\n        /* \"#utility.yul\":5123:5145   */\n      0x4e6f7420616e206f7267616e697a6174696f6e21000000000000000000000000\n        /* \"#utility.yul\":5119:5120   */\n      0x00\n        /* \"#utility.yul\":5111:5117   */\n      dup3\n        /* \"#utility.yul\":5107:5121   */\n      add\n        /* \"#utility.yul\":5100:5146   */\n      mstore\n        /* \"#utility.yul\":4983:5153   */\n      pop\n      jump\t// out\n        /* \"#utility.yul\":5159:5525   */\n    tag_82:\n        /* \"#utility.yul\":5301:5304   */\n      0x00\n        /* \"#utility.yul\":5322:5389   */\n      tag_162\n        /* \"#utility.yul\":5386:5388   */\n      0x14\n        /* \"#utility.yul\":5381:5384   */\n      dup4\n        /* \"#utility.yul\":5322:5389   */\n      tag_78\n      jump\t// in\n    tag_162:\n        /* \"#utility.yul\":5315:5389   */\n      swap2\n      pop\n        /* \"#utility.yul\":5398:5491   */\n      tag_163\n        /* \"#utility.yul\":5487:5490   */\n      dup3\n        /* \"#utility.yul\":5398:5491   */\n      tag_81\n      jump\t// in\n    tag_163:\n        /* \"#utility.yul\":5516:5518   */\n      0x20\n        /* \"#utility.yul\":5511:5514   */\n      dup3\n        /* \"#utility.yul\":5507:5519   */\n      add\n        /* \"#utility.yul\":5500:5519   */\n      swap1\n      pop\n        /* \"#utility.yul\":5159:5525   */\n      swap2\n      swap1\n      pop\n      jump\t// out\n        /* \"#utility.yul\":5531:5950   */\n    tag_42:\n        /* \"#utility.yul\":5697:5701   */\n      0x00\n        /* \"#utility.yul\":5735:5737   */\n      0x20\n        /* \"#utility.yul\":5724:5733   */\n      dup3\n        /* \"#utility.yul\":5720:5738   */\n      add\n        /* \"#utility.yul\":5712:5738   */\n      swap1\n      pop\n        /* \"#utility.yul\":5784:5793   */\n      dup2\n        /* \"#utility.yul\":5778:5782   */\n      dup2\n        /* \"#utility.yul\":5774:5794   */\n      sub\n        /* \"#utility.yul\":5770:5771   */\n      0x00\n        /* \"#utility.yul\":5759:5768   */\n      dup4\n        /* \"#utility.yul\":5755:5772   */\n      add\n        /* \"#utility.yul\":5748:5795   */\n      mstore\n        /* \"#utility.yul\":5812:5943   */\n      tag_165\n        /* \"#utility.yul\":5938:5942   */\n      dup2\n        /* \"#utility.yul\":5812:5943   */\n      tag_82\n      jump\t// in\n    tag_165:\n        /* \"#utility.yul\":5804:5943   */\n      swap1\n      pop\n        /* \"#utility.yul\":5531:5950   */\n      swap2\n      swap1\n      pop\n      jump\t// out\n        /* \"#utility.yul\":5956:6055   */\n    tag_83:\n        /* \"#utility.yul\":6008:6014   */\n      0x00\n        /* \"#utility.yul\":6042:6047   */\n      dup2\n        /* \"#utility.yul\":6036:6048   */\n      mload\n        /* \"#utility.yul\":6026:6048   */\n      swap1\n      pop\n        /* \"#utility.yul\":5956:6055   */\n      swap2\n      swap1\n      pop\n      jump\t// out\n        /* \"#utility.yul\":6061:6241   */\n    tag_84:\n        /* \"#utility.yul\":6109:6186   */\n      0x4e487b7100000000000000000000000000000000000000000000000000000000\n        /* \"#utility.yul\":6106:6107   */\n      0x00\n        /* \"#utility.yul\":6099:6187   */\n      mstore\n        /* \"#utility.yul\":6206:6210   */\n      0x41\n        /* \"#utility.yul\":6203:6204   */\n      0x04\n        /* \"#utility.yul\":6196:6211   */\n      mstore\n        /* \"#utility.yul\":6230:6234   */\n      0x24\n        /* \"#utility.yul\":6227:6228   */\n      0x00\n        /* \"#utility.yul\":6220:6235   */\n      revert\n        /* \"#utility.yul\":6247:6427   */\n    tag_85:\n        /* \"#utility.yul\":6295:6372   */\n      0x4e487b7100000000000000000000000000000000000000000000000000000000\n        /* \"#utility.yul\":6292:6293   */\n      0x00\n        /* \"#utility.yul\":6285:6373   */\n      mstore\n        /* \"#utility.yul\":6392:6396   */\n      0x22\n        /* \"#utility.yul\":6389:6390   */\n      0x04\n        /* \"#utility.yul\":6382:6397   */\n      mstore\n        /* \"#utility.yul\":6416:6420   */\n      0x24\n        /* \"#utility.yul\":6413:6414   */\n      0x00\n        /* \"#utility.yul\":6406:6421   */\n      revert\n        /* \"#utility.yul\":6433:6753   */\n    tag_86:\n        /* \"#utility.yul\":6477:6483   */\n      0x00\n        /* \"#utility.yul\":6514:6515   */\n      0x02\n        /* \"#utility.yul\":6508:6512   */\n      dup3\n        /* \"#utility.yul\":6504:6516   */\n      div\n        /* \"#utility.yul\":6494:6516   */\n      swap1\n      pop\n        /* \"#utility.yul\":6561:6562   */\n      0x01\n        /* \"#utility.yul\":6555:6559   */\n      dup3\n        /* \"#utility.yul\":6551:6563   */\n      and\n        /* \"#utility.yul\":6582:6600   */\n      dup1\n        /* \"#utility.yul\":6572:6653   */\n      tag_170\n      jumpi\n        /* \"#utility.yul\":6638:6642   */\n      0x7f\n        /* \"#utility.yul\":6630:6636   */\n      dup3\n        /* \"#utility.yul\":6626:6643   */\n      and\n        /* \"#utility.yul\":6616:6643   */\n      swap2\n      pop\n        /* \"#utility.yul\":6572:6653   */\n    tag_170:\n        /* \"#utility.yul\":6700:6702   */\n      0x20\n        /* \"#utility.yul\":6692:6698   */\n      dup3\n        /* \"#utility.yul\":6689:6703   */\n      lt\n        /* \"#utility.yul\":6669:6687   */\n      dup2\n        /* \"#utility.yul\":6666:6704   */\n      sub\n        /* \"#utility.yul\":6663:6747   */\n      tag_171\n      jumpi\n        /* \"#utility.yul\":6719:6737   */\n      tag_172\n      tag_85\n      jump\t// in\n    tag_172:\n        /* \"#utility.yul\":6663:6747   */\n    tag_171:\n        /* \"#utility.yul\":6484:6753   */\n      pop\n        /* \"#utility.yul\":6433:6753   */\n      swap2\n      swap1\n      pop\n      jump\t// out\n        /* \"#utility.yul\":6759:6900   */\n    tag_87:\n        /* \"#utility.yul\":6808:6812   */\n      0x00\n        /* \"#utility.yul\":6831:6834   */\n      dup2\n        /* \"#utility.yul\":6823:6834   */\n      swap1\n      pop\n        /* \"#utility.yul\":6854:6857   */\n      dup2\n        /* \"#utility.yul\":6851:6852   */\n      0x00\n        /* \"#utility.yul\":6844:6858   */\n      mstore\n        /* \"#utility.yul\":6888:6892   */\n      0x20\n        /* \"#utility.yul\":6885:6886   */\n      0x00\n        /* \"#utility.yul\":6875:6893   */\n      keccak256\n        /* \"#utility.yul\":6867:6893   */\n      swap1\n      pop\n        /* \"#utility.yul\":6759:6900   */\n      swap2\n      swap1\n      pop\n      jump\t// out\n        /* \"#utility.yul\":6906:6999   */\n    tag_88:\n        /* \"#utility.yul\":6943:6949   */\n      0x00\n        /* \"#utility.yul\":6990:6992   */\n      0x20\n        /* \"#utility.yul\":6985:6987   */\n      0x1f\n        /* \"#utility.yul\":6978:6983   */\n      dup4\n        /* \"#utility.yul\":6974:6988   */\n      add\n        /* \"#utility.yul\":6970:6993   */\n      div\n        /* \"#utility.yul\":6960:6993   */\n      swap1\n      pop\n        /* \"#utility.yul\":6906:6999   */\n      swap2\n      swap1\n      pop\n      jump\t// out\n        /* \"#utility.yul\":7005:7112   */\n    tag_89:\n        /* \"#utility.yul\":7049:7057   */\n      0x00\n        /* \"#utility.yul\":7099:7104   */\n      dup3\n        /* \"#utility.yul\":7093:7097   */\n      dup3\n        /* \"#utility.yul\":7089:7105   */\n      shl\n        /* \"#utility.yul\":7068:7105   */\n      swap1\n      pop\n        /* \"#utility.yul\":7005:7112   */\n      swap3\n      swap2\n      pop\n      pop\n      jump\t// out\n        /* \"#utility.yul\":7118:7511   */\n    tag_90:\n        /* \"#utility.yul\":7187:7193   */\n      0x00\n        /* \"#utility.yul\":7237:7238   */\n      0x08\n        /* \"#utility.yul\":7225:7235   */\n      dup4\n        /* \"#utility.yul\":7221:7239   */\n      mul\n        /* \"#utility.yul\":7260:7357   */\n      tag_177\n        /* \"#utility.yul\":7290:7356   */\n      0xffffffffffffffffffffffffffffffffffffffffffffffffffffffffffffffff\n        /* \"#utility.yul\":7279:7288   */\n      dup3\n        /* \"#utility.yul\":7260:7357   */\n      tag_89\n      jump\t// in\n    tag_177:\n        /* \"#utility.yul\":7378:7417   */\n      tag_178\n        /* \"#utility.yul\":7408:7416   */\n      dup7\n        /* \"#utility.yul\":7397:7406   */\n      dup4\n        /* \"#utility.yul\":7378:7417   */\n      tag_89\n      jump\t// in\n    tag_178:\n        /* \"#utility.yul\":7366:7417   */\n      swap6\n      pop\n        /* \"#utility.yul\":7450:7454   */\n      dup1\n        /* \"#utility.yul\":7446:7455   */\n      not\n        /* \"#utility.yul\":7439:7444   */\n      dup5\n        /* \"#utility.yul\":7435:7456   */\n      and\n        /* \"#utility.yul\":7426:7456   */\n      swap4\n      pop\n        /* \"#utility.yul\":7499:7503   */\n      dup1\n        /* \"#utility.yul\":7489:7497   */\n      dup7\n        /* \"#utility.yul\":7485:7504   */\n      and\n        /* \"#utility.yul\":7478:7483   */\n      dup5\n        /* \"#utility.yul\":7475:7505   */\n      or\n        /* \"#utility.yul\":7465:7505   */\n      swap3\n      pop\n        /* \"#utility.yul\":7194:7511   */\n      pop\n      pop\n        /* \"#utility.yul\":7118:7511   */\n      swap4\n      swap3\n      pop\n      pop\n      pop\n      jump\t// out\n        /* \"#utility.yul\":7517:7577   */\n    tag_91:\n        /* \"#utility.yul\":7545:7548   */\n      0x00\n        /* \"#utility.yul\":7566:7571   */\n      dup2\n        /* \"#utility.yul\":7559:7571   */\n      swap1\n      pop\n        /* \"#utility.yul\":7517:7577   */\n      swap2\n      swap1\n      pop\n      jump\t// out\n        /* \"#utility.yul\":7583:7725   */\n    tag_92:\n        /* \"#utility.yul\":7633:7642   */\n      0x00\n        /* \"#utility.yul\":7666:7719   */\n      tag_181\n        /* \"#utility.yul\":7684:7718   */\n      tag_182\n        /* \"#utility.yul\":7693:7717   */\n      tag_183\n        /* \"#utility.yul\":7711:7716   */\n      dup5\n        /* \"#utility.yul\":7693:7717   */\n      tag_70\n      jump\t// in\n    tag_183:\n        /* \"#utility.yul\":7684:7718   */\n      tag_91\n      jump\t// in\n    tag_182:\n        /* \"#utility.yul\":7666:7719   */\n      tag_70\n      jump\t// in\n    tag_181:\n        /* \"#utility.yul\":7653:7719   */\n      swap1\n      pop\n        /* \"#utility.yul\":7583:7725   */\n      swap2\n      swap1\n      pop\n      jump\t// out\n        /* \"#utility.yul\":7731:7806   */\n    tag_93:\n        /* \"#utility.yul\":7774:7777   */\n      0x00\n        /* \"#utility.yul\":7795:7800   */\n      dup2\n        /* \"#utility.yul\":7788:7800   */\n      swap1\n      pop\n        /* \"#utility.yul\":7731:7806   */\n      swap2\n      swap1\n      pop\n      jump\t// out\n        /* \"#utility.yul\":7812:8081   */\n    tag_94:\n        /* \"#utility.yul\":7922:7961   */\n      tag_186\n        /* \"#utility.yul\":7953:7960   */\n      dup4\n        /* \"#utility.yul\":7922:7961   */\n      tag_92\n      jump\t// in\n    tag_186:\n        /* \"#utility.yul\":7983:8074   */\n      tag_187\n        /* \"#utility.yul\":8032:8073   */\n      tag_188\n        /* \"#utility.yul\":8056:8072   */\n      dup3\n        /* \"#utility.yul\":8032:8073   */\n      tag_93\n      jump\t// in\n    tag_188:\n        /* \"#utility.yul\":8024:8030   */\n      dup5\n        /* \"#utility.yul\":8017:8021   */\n      dup5\n        /* \"#utility.yul\":8011:8022   */\n      sload\n        /* \"#utility.yul\":7983:8074   */\n      tag_90\n      jump\t// in\n    tag_187:\n        /* \"#utility.yul\":7977:7981   */\n      dup3\n        /* \"#utility.yul\":7970:8075   */\n      sstore\n        /* \"#utility.yul\":7888:8081   */\n      pop\n        /* \"#utility.yul\":7812:8081   */\n      pop\n      pop\n      pop\n      jump\t// out\n        /* \"#utility.yul\":8087:8160   */\n    tag_95:\n        /* \"#utility.yul\":8132:8135   */\n      0x00\n        /* \"#utility.yul\":8153:8154   */\n      0x00\n        /* \"#utility.yul\":8146:8154   */\n      swap1\n      pop\n        /* \"#utility.yul\":8087:8160   */\n      swap1\n      jump\t// out\n        /* \"#utility.yul\":8166:8355   */\n    tag_96:\n        /* \"#utility.yul\":8243:8275   */\n      tag_191\n      tag_95\n      jump\t// in\n    tag_191:\n        /* \"#utility.yul\":8284:8349   */\n      tag_192\n        /* \"#utility.yul\":8342:8348   */\n      dup2\n        /* \"#utility.yul\":8334:8340   */\n      dup5\n        /* \"#utility.yul\":8328:8332   */\n      dup5\n        /* \"#utility.yul\":8284:8349   */\n      tag_94\n      jump\t// in\n    tag_192:\n        /* \"#utility.yul\":8219:8355   */\n      pop\n        /* \"#utility.yul\":8166:8355   */\n      pop\n      pop\n      jump\t// out\n        /* \"#utility.yul\":8361:8547   */\n    tag_97:\n        /* \"#utility.yul\":8421:8541   */\n    tag_194:\n        /* \"#utility.yul\":8438:8441   */\n      dup2\n        /* \"#utility.yul\":8431:8436   */\n      dup2\n        /* \"#utility.yul\":8428:8442   */\n      lt\n        /* \"#utility.yul\":8421:8541   */\n      iszero\n      tag_196\n      jumpi\n        /* \"#utility.yul\":8492:8531   */\n      tag_197\n        /* \"#utility.yul\":8529:8530   */\n      0x00\n        /* \"#utility.yul\":8522:8527   */\n      dup3\n        /* \"#utility.yul\":8492:8531   */\n      tag_96\n      jump\t// in\n    tag_197:\n        /* \"#utility.yul\":8465:8466   */\n      0x01\n        /* \"#utility.yul\":8458:8463   */\n      dup2\n        /* \"#utility.yul\":8454:8467   */\n      add\n        /* \"#utility.yul\":8445:8467   */\n      swap1\n      pop\n        /* \"#utility.yul\":8421:8541   */\n      jump(tag_194)\n    tag_196:\n        /* \"#utility.yul\":8361:8547   */\n      pop\n      pop\n      jump\t// out\n        /* \"#utility.yul\":8553:9096   */\n    tag_98:\n        /* \"#utility.yul\":8654:8656   */\n      0x1f\n        /* \"#utility.yul\":8649:8652   */\n      dup3\n        /* \"#utility.yul\":8646:8657   */\n      gt\n        /* \"#utility.yul\":8643:9089   */\n      iszero\n      tag_199\n      jumpi\n        /* \"#utility.yul\":8688:8726   */\n      tag_200\n        /* \"#utility.yul\":8720:8725   */\n      dup2\n        /* \"#utility.yul\":8688:8726   */\n      tag_87\n      jump\t// in\n    tag_200:\n        /* \"#utility.yul\":8772:8801   */\n      tag_201\n        /* \"#utility.yul\":8790:8800   */\n      dup5\n        /* \"#utility.yul\":8772:8801   */\n      tag_88\n      jump\t// in\n    tag_201:\n        /* \"#utility.yul\":8762:8770   */\n      dup2\n        /* \"#utility.yul\":8758:8802   */\n      add\n        /* \"#utility.yul\":8955:8957   */\n      0x20\n        /* \"#utility.yul\":8943:8953   */\n      dup6\n        /* \"#utility.yul\":8940:8958   */\n      lt\n        /* \"#utility.yul\":8937:8986   */\n      iszero\n      tag_202\n      jumpi\n        /* \"#utility.yul\":8976:8984   */\n      dup2\n        /* \"#utility.yul\":8961:8984   */\n      swap1\n      pop\n        /* \"#utility.yul\":8937:8986   */\n    tag_202:\n        /* \"#utility.yul\":8999:9079   */\n      tag_203\n        /* \"#utility.yul\":9055:9077   */\n      tag_204\n        /* \"#utility.yul\":9073:9076   */\n      dup6\n        /* \"#utility.yul\":9055:9077   */\n      tag_88\n      jump\t// in\n    tag_204:\n        /* \"#utility.yul\":9045:9053   */\n      dup4\n        /* \"#utility.yul\":9041:9078   */\n      add\n        /* \"#utility.yul\":9028:9039   */\n      dup3\n        /* \"#utility.yul\":8999:9079   */\n      tag_97\n      jump\t// in\n    tag_203:\n        /* \"#utility.yul\":8658:9089   */\n      pop\n      pop\n        /* \"#utility.yul\":8643:9089   */\n    tag_199:\n        /* \"#utility.yul\":8553:9096   */\n      pop\n      pop\n      pop\n      jump\t// out\n        /* \"#utility.yul\":9102:9219   */\n    tag_99:\n        /* \"#utility.yul\":9156:9164   */\n      0x00\n        /* \"#utility.yul\":9206:9211   */\n      dup3\n        /* \"#utility.yul\":9200:9204   */\n      dup3\n        /* \"#utility.yul\":9196:9212   */\n      shr\n        /* \"#utility.yul\":9175:9212   */\n      swap1\n      pop\n        /* \"#utility.yul\":9102:9219   */\n      swap3\n      swap2\n      pop\n      pop\n      jump\t// out\n        /* \"#utility.yul\":9225:9394   */\n    tag_100:\n        /* \"#utility.yul\":9269:9275   */\n      0x00\n        /* \"#utility.yul\":9302:9353   */\n      tag_207\n        /* \"#utility.yul\":9350:9351   */\n      0x00\n        /* \"#utility.yul\":9346:9352   */\n      not\n        /* \"#utility.yul\":9338:9343   */\n      dup5\n        /* \"#utility.yul\":9335:9336   */\n      0x08\n        /* \"#utility.yul\":9331:9344   */\n      mul\n        /* \"#utility.yul\":9302:9353   */\n      tag_99\n      jump\t// in\n    tag_207:\n        /* \"#utility.yul\":9298:9354   */\n      not\n        /* \"#utility.yul\":9383:9387   */\n      dup1\n        /* \"#utility.yul\":9377:9381   */\n      dup4\n        /* \"#utility.yul\":9373:9388   */\n      and\n        /* \"#utility.yul\":9363:9388   */\n      swap2\n      pop\n        /* \"#utility.yul\":9276:9394   */\n      pop\n        /* \"#utility.yul\":9225:9394   */\n      swap3\n      swap2\n      pop\n      pop\n      jump\t// out\n        /* \"#utility.yul\":9399:9694   */\n    tag_101:\n        /* \"#utility.yul\":9475:9479   */\n      0x00\n        /* \"#utility.yul\":9621:9650   */\n      tag_209\n        /* \"#utility.yul\":9646:9649   */\n      dup4\n        /* \"#utility.yul\":9640:9644   */\n      dup4\n        /* \"#utility.yul\":9621:9650   */\n      tag_100\n      jump\t// in\n    tag_209:\n        /* \"#utility.yul\":9613:9650   */\n      swap2\n      pop\n        /* \"#utility.yul\":9683:9686   */\n      dup3\n        /* \"#utility.yul\":9680:9681   */\n      0x02\n        /* \"#utility.yul\":9676:9687   */\n      mul\n        /* \"#utility.yul\":9670:9674   */\n      dup3\n        /* \"#utility.yul\":9667:9688   */\n      or\n        /* \"#utility.yul\":9659:9688   */\n      swap1\n      pop\n        /* \"#utility.yul\":9399:9694   */\n      swap3\n      swap2\n      pop\n      pop\n      jump\t// out\n        /* \"#utility.yul\":9699:11094   */\n    tag_46:\n        /* \"#utility.yul\":9816:9853   */\n      tag_211\n        /* \"#utility.yul\":9849:9852   */\n      dup3\n        /* \"#utility.yul\":9816:9853   */\n      tag_83\n      jump\t// in\n    tag_211:\n        /* \"#utility.yul\":9918:9936   */\n      0xffffffffffffffff\n        /* \"#utility.yul\":9910:9916   */\n      dup2\n        /* \"#utility.yul\":9907:9937   */\n      gt\n        /* \"#utility.yul\":9904:9960   */\n      iszero\n      tag_212\n      jumpi\n        /* \"#utility.yul\":9940:9958   */\n      tag_213\n      tag_84\n      jump\t// in\n    tag_213:\n        /* \"#utility.yul\":9904:9960   */\n    tag_212:\n        /* \"#utility.yul\":9984:10022   */\n      tag_214\n        /* \"#utility.yul\":10016:10020   */\n      dup3\n        /* \"#utility.yul\":10010:10021   */\n      sload\n        /* \"#utility.yul\":9984:10022   */\n      tag_86\n      jump\t// in\n    tag_214:\n        /* \"#utility.yul\":10069:10136   */\n      tag_215\n        /* \"#utility.yul\":10129:10135   */\n      dup3\n        /* \"#utility.yul\":10121:10127   */\n      dup3\n        /* \"#utility.yul\":10115:10119   */\n      dup6\n        /* \"#utility.yul\":10069:10136   */\n      tag_98\n      jump\t// in\n    tag_215:\n        /* \"#utility.yul\":10163:10164   */\n      0x00\n        /* \"#utility.yul\":10187:10191   */\n      0x20\n        /* \"#utility.yul\":10174:10191   */\n      swap1\n      pop\n        /* \"#utility.yul\":10219:10221   */\n      0x1f\n        /* \"#utility.yul\":10211:10217   */\n      dup4\n        /* \"#utility.yul\":10208:10222   */\n      gt\n        /* \"#utility.yul\":10236:10237   */\n      0x01\n        /* \"#utility.yul\":10231:10849   */\n      dup2\n      eq\n      tag_217\n      jumpi\n        /* \"#utility.yul\":10893:10894   */\n      0x00\n        /* \"#utility.yul\":10910:10916   */\n      dup5\n        /* \"#utility.yul\":10907:10984   */\n      iszero\n      tag_218\n      jumpi\n        /* \"#utility.yul\":10959:10968   */\n      dup3\n        /* \"#utility.yul\":10954:10957   */\n      dup8\n        /* \"#utility.yul\":10950:10969   */\n      add\n        /* \"#utility.yul\":10944:10970   */\n      mload\n        /* \"#utility.yul\":10935:10970   */\n      swap1\n      pop\n        /* \"#utility.yul\":10907:10984   */\n    tag_218:\n        /* \"#utility.yul\":11010:11077   */\n      tag_219\n        /* \"#utility.yul\":11070:11076   */\n      dup6\n        /* \"#utility.yul\":11063:11068   */\n      dup3\n        /* \"#utility.yul\":11010:11077   */\n      tag_101\n      jump\t// in\n    tag_219:\n        /* \"#utility.yul\":11004:11008   */\n      dup7\n        /* \"#utility.yul\":10997:11078   */\n      sstore\n        /* \"#utility.yul\":10866:11088   */\n      pop\n        /* \"#utility.yul\":10201:11088   */\n      jump(tag_216)\n        /* \"#utility.yul\":10231:10849   */\n    tag_217:\n        /* \"#utility.yul\":10283:10287   */\n      0x1f\n        /* \"#utility.yul\":10279:10288   */\n      not\n        /* \"#utility.yul\":10271:10277   */\n      dup5\n        /* \"#utility.yul\":10267:10289   */\n      and\n        /* \"#utility.yul\":10317:10354   */\n      tag_220\n        /* \"#utility.yul\":10349:10353   */\n      dup7\n        /* \"#utility.yul\":10317:10354   */\n      tag_87\n      jump\t// in\n    tag_220:\n        /* \"#utility.yul\":10376:10377   */\n      0x00\n        /* \"#utility.yul\":10390:10598   */\n    tag_221:\n        /* \"#utility.yul\":10404:10411   */\n      dup3\n        /* \"#utility.yul\":10401:10402   */\n      dup2\n        /* \"#utility.yul\":10398:10412   */\n      lt\n        /* \"#utility.yul\":10390:10598   */\n      iszero\n      tag_223\n      jumpi\n        /* \"#utility.yul\":10483:10492   */\n      dup5\n        /* \"#utility.yul\":10478:10481   */\n      dup10\n        /* \"#utility.yul\":10474:10493   */\n      add\n        /* \"#utility.yul\":10468:10494   */\n      mload\n        /* \"#utility.yul\":10460:10466   */\n      dup3\n        /* \"#utility.yul\":10453:10495   */\n      sstore\n        /* \"#utility.yul\":10534:10535   */\n      0x01\n        /* \"#utility.yul\":10526:10532   */\n      dup3\n        /* \"#utility.yul\":10522:10536   */\n      add\n        /* \"#utility.yul\":10512:10536   */\n      swap2\n      pop\n        /* \"#utility.yul\":10581:10583   */\n      0x20\n        /* \"#utility.yul\":10570:10579   */\n      dup6\n        /* \"#utility.yul\":10566:10584   */\n      add\n        /* \"#utility.yul\":10553:10584   */\n      swap5\n      pop\n        /* \"#utility.yul\":10427:10431   */\n      0x20\n        /* \"#utility.yul\":10424:10425   */\n      dup2\n        /* \"#utility.yul\":10420:10432   */\n      add\n        /* \"#utility.yul\":10415:10432   */\n      swap1\n      pop\n        /* \"#utility.yul\":10390:10598   */\n      jump(tag_221)\n    tag_223:\n        /* \"#utility.yul\":10626:10632   */\n      dup7\n        /* \"#utility.yul\":10617:10624   */\n      dup4\n        /* \"#utility.yul\":10614:10633   */\n      lt\n        /* \"#utility.yul\":10611:10790   */\n      iszero\n      tag_224\n      jumpi\n        /* \"#utility.yul\":10684:10693   */\n      dup5\n        /* \"#utility.yul\":10679:10682   */\n      dup10\n        /* \"#utility.yul\":10675:10694   */\n      add\n        /* \"#utility.yul\":10669:10695   */\n      mload\n        /* \"#utility.yul\":10727:10775   */\n      tag_225\n        /* \"#utility.yul\":10769:10773   */\n      0x1f\n        /* \"#utility.yul\":10761:10767   */\n      dup10\n        /* \"#utility.yul\":10757:10774   */\n      and\n        /* \"#utility.yul\":10746:10755   */\n      dup3\n        /* \"#utility.yul\":10727:10775   */\n      tag_100\n      jump\t// in\n    tag_225:\n        /* \"#utility.yul\":10719:10725   */\n      dup4\n        /* \"#utility.yul\":10712:10776   */\n      sstore\n        /* \"#utility.yul\":10634:10790   */\n      pop\n        /* \"#utility.yul\":10611:10790   */\n    tag_224:\n        /* \"#utility.yul\":10836:10837   */\n      0x01\n        /* \"#utility.yul\":10832:10833   */\n      0x02\n        /* \"#utility.yul\":10824:10830   */\n      dup9\n        /* \"#utility.yul\":10820:10834   */\n      mul\n        /* \"#utility.yul\":10816:10838   */\n      add\n        /* \"#utility.yul\":10810:10814   */\n      dup9\n        /* \"#utility.yul\":10803:10839   */\n      sstore\n        /* \"#utility.yul\":10238:10849   */\n      pop\n      pop\n      pop\n        /* \"#utility.yul\":10201:11088   */\n    tag_216:\n      pop\n        /* \"#utility.yul\":9791:11094   */\n      pop\n      pop\n      pop\n        /* \"#utility.yul\":9699:11094   */\n      pop\n      pop\n      jump\t// out\n        /* \"#utility.yul\":11100:11247   */\n    tag_102:\n        /* \"#utility.yul\":11201:11212   */\n      0x00\n        /* \"#utility.yul\":11238:11241   */\n      dup2\n        /* \"#utility.yul\":11223:11241   */\n      swap1\n      pop\n        /* \"#utility.yul\":11100:11247   */\n      swap3\n      swap2\n      pop\n      pop\n      jump\t// out\n        /* \"#utility.yul\":11253:11367   */\n    tag_103:\n      pop\n      jump\t// out\n        /* \"#utility.yul\":11373:11771   */\n    tag_104:\n        /* \"#utility.yul\":11532:11535   */\n      0x00\n        /* \"#utility.yul\":11553:11636   */\n      tag_229\n        /* \"#utility.yul\":11634:11635   */\n      0x00\n        /* \"#utility.yul\":11629:11632   */\n      dup4\n        /* \"#utility.yul\":11553:11636   */\n      tag_102\n      jump\t// in\n    tag_229:\n        /* \"#utility.yul\":11546:11636   */\n      swap2\n      pop\n        /* \"#utility.yul\":11645:11738   */\n      tag_230\n        /* \"#utility.yul\":11734:11737   */\n      dup3\n        /* \"#utility.yul\":11645:11738   */\n      tag_103\n      jump\t// in\n    tag_230:\n        /* \"#utility.yul\":11763:11764   */\n      0x00\n        /* \"#utility.yul\":11758:11761   */\n      dup3\n        /* \"#utility.yul\":11754:11765   */\n      add\n        /* \"#utility.yul\":11747:11765   */\n      swap1\n      pop\n        /* \"#utility.yul\":11373:11771   */\n      swap2\n      swap1\n      pop\n      jump\t// out\n        /* \"#utility.yul\":11777:12156   */\n    tag_48:\n        /* \"#utility.yul\":11961:11964   */\n      0x00\n        /* \"#utility.yul\":11983:12130   */\n      tag_232\n        /* \"#utility.yul\":12126:12129   */\n      dup3\n        /* \"#utility.yul\":11983:12130   */\n      tag_104\n      jump\t// in\n    tag_232:\n        /* \"#utility.yul\":11976:12130   */\n      swap2\n      pop\n        /* \"#utility.yul\":12147:12150   */\n      dup2\n        /* \"#utility.yul\":12140:12150   */\n      swap1\n      pop\n        /* \"#utility.yul\":11777:12156   */\n      swap2\n      swap1\n      pop\n      jump\t// out\n        /* \"#utility.yul\":12162:12327   */\n    tag_105:\n        /* \"#utility.yul\":12302:12319   */\n      0x5061796d656e74206661696c6564210000000000000000000000000000000000\n        /* \"#utility.yul\":12298:12299   */\n      0x00\n        /* \"#utility.yul\":12290:12296   */\n      dup3\n        /* \"#utility.yul\":12286:12300   */\n      add\n        /* \"#utility.yul\":12279:12320   */\n      mstore\n        /* \"#utility.yul\":12162:12327   */\n      pop\n      jump\t// out\n        /* \"#utility.yul\":12333:12699   */\n    tag_106:\n        /* \"#utility.yul\":12475:12478   */\n      0x00\n        /* \"#utility.yul\":12496:12563   */\n      tag_235\n        /* \"#utility.yul\":12560:12562   */\n      0x0f\n        /* \"#utility.yul\":12555:12558   */\n      dup4\n        /* \"#utility.yul\":12496:12563   */\n      tag_78\n      jump\t// in\n    tag_235:\n        /* \"#utility.yul\":12489:12563   */\n      swap2\n      pop\n        /* \"#utility.yul\":12572:12665   */\n      tag_236\n        /* \"#utility.yul\":12661:12664   */\n      dup3\n        /* \"#utility.yul\":12572:12665   */\n      tag_105\n      jump\t// in\n    tag_236:\n        /* \"#utility.yul\":12690:12692   */\n      0x20\n        /* \"#utility.yul\":12685:12688   */\n      dup3\n        /* \"#utility.yul\":12681:12693   */\n      add\n        /* \"#utility.yul\":12674:12693   */\n      swap1\n      pop\n        /* \"#utility.yul\":12333:12699   */\n      swap2\n      swap1\n      pop\n      jump\t// out\n        /* \"#utility.yul\":12705:13124   */\n    tag_54:\n        /* \"#utility.yul\":12871:12875   */\n      0x00\n        /* \"#utility.yul\":12909:12911   */\n      0x20\n        /* \"#utility.yul\":12898:12907   */\n      dup3\n        /* \"#utility.yul\":12894:12912   */\n      add\n        /* \"#utility.yul\":12886:12912   */\n      swap1\n      pop\n        /* \"#utility.yul\":12958:12967   */\n      dup2\n        /* \"#utility.yul\":12952:12956   */\n      dup2\n        /* \"#utility.yul\":12948:12968   */\n      sub\n        /* \"#utility.yul\":12944:12945   */\n      0x00\n        /* \"#utility.yul\":12933:12942   */\n      dup4\n        /* \"#utility.yul\":12929:12946   */\n      add\n        /* \"#utility.yul\":12922:12969   */\n      mstore\n        /* \"#utility.yul\":12986:13117   */\n      tag_238\n        /* \"#utility.yul\":13112:13116   */\n      dup2\n        /* \"#utility.yul\":12986:13117   */\n      tag_106\n      jump\t// in\n    tag_238:\n        /* \"#utility.yul\":12978:13117   */\n      swap1\n      pop\n        /* \"#utility.yul\":12705:13124   */\n      swap2\n      swap1\n      pop\n      jump\t// out\n        /* \"#utility.yul\":13130:13248   */\n    tag_107:\n        /* \"#utility.yul\":13217:13241   */\n      tag_240\n        /* \"#utility.yul\":13235:13240   */\n      dup2\n        /* \"#utility.yul\":13217:13241   */\n      tag_70\n      jump\t// in\n    tag_240:\n        /* \"#utility.yul\":13212:13215   */\n      dup3\n        /* \"#utility.yul\":13205:13242   */\n      mstore\n        /* \"#utility.yul\":13130:13248   */\n      pop\n      pop\n      jump\t// out\n        /* \"#utility.yul\":13254:13476   */\n    tag_56:\n        /* \"#utility.yul\":13347:13351   */\n      0x00\n        /* \"#utility.yul\":13385:13387   */\n      0x20\n        /* \"#utility.yul\":13374:13383   */\n      dup3\n        /* \"#utility.yul\":13370:13388   */\n      add\n        /* \"#utility.yul\":13362:13388   */\n      swap1\n      pop\n        /* \"#utility.yul\":13398:13469   */\n      tag_242\n        /* \"#utility.yul\":13466:13467   */\n      0x00\n        /* \"#utility.yul\":13455:13464   */\n      dup4\n        /* \"#utility.yul\":13451:13468   */\n      add\n        /* \"#utility.yul\":13442:13448   */\n      dup5\n        /* \"#utility.yul\":13398:13469   */\n      tag_107\n      jump\t// in\n    tag_242:\n        /* \"#utility.yul\":13254:13476   */\n      swap3\n      swap2\n      pop\n      pop\n      jump\t// out\n\n    auxdata: 0xa264697066735822122009f9b1aea3fcccea4139ae1ccdcf5baffe52b7cac2429b1627ae2b864a9a256e64736f6c634300081e0033\n}\n",
				"bytecode": {
					"linkReferences": {},
					"object": "6080604052348015600e575f5ffd5b50335f5f6101000a81548173ffffffffffffffffffffffffffffffffffffffff021916908373ffffffffffffffffffffffffffffffffffffffff160217905550610d1b8061005b5f395ff3fe608060405260043610610042575f3560e01c80630462230d1461013d5780638da5cb5b14610165578063c2ac3aff1461018f578063d68287df1461019957610139565b36610139575f60405180606001604052803373ffffffffffffffffffffffffffffffffffffffff16815260200142815260200134815250905060015f3373ffffffffffffffffffffffffffffffffffffffff1673ffffffffffffffffffffffffffffffffffffffff1681526020019081526020015f2081908060018154018082558091505060019003905f5260205f2090600302015f909190919091505f820151815f015f6101000a81548173ffffffffffffffffffffffffffffffffffffffff021916908373ffffffffffffffffffffffffffffffffffffffff1602179055506020820151816001015560408201518160020155005b5f5ffd5b348015610148575f5ffd5b50610163600480360381019061015e9190610740565b6101c1565b005b348015610170575f5ffd5b50610179610533565b60405161018691906107c0565b60405180910390f35b610197610557565b005b3480156101a4575f5ffd5b506101bf60048036038101906101ba91906107d9565b610559565b005b5f5f9054906101000a900473ffffffffffffffffffffffffffffffffffffffff1673ffffffffffffffffffffffffffffffffffffffff163373ffffffffffffffffffffffffffffffffffffffff161461024f576040517f08c379a00000000000000000000000000000000000000000000000000000000081526004016102469061085e565b60405180910390fd5b5f5f90505f5b6002805490508110156102e257600281815481106102765761027561087c565b5b905f5260205f20015f9054906101000a900473ffffffffffffffffffffffffffffffffffffffff1673ffffffffffffffffffffffffffffffffffffffff163373ffffffffffffffffffffffffffffffffffffffff16036102d557600191505b8080600101915050610255565b5080610323576040517f08c379a000000000000000000000000000000000000000000000000000000000815260040161031a906108f3565b60405180910390fd5b600360405180608001604052808773ffffffffffffffffffffffffffffffffffffffff16815260200185858080601f0160208091040260200160405190810160405280939291908181526020018383808284375f81840152601f19601f82011690508083019250505050505050815260200186815260200142815250908060018154018082558091505060019003905f5260205f2090600402015f909190919091505f820151815f015f6101000a81548173ffffffffffffffffffffffffffffffffffffffff021916908373ffffffffffffffffffffffffffffffffffffffff160217905550602082015181600101908161041e9190610b45565b50604082015181600201556060820151816003015550505f8573ffffffffffffffffffffffffffffffffffffffff168560405161045a90610c41565b5f6040518083038185875af1925050503d805f8114610494576040519150601f19603f3d011682016040523d82523d5f602084013e610499565b606091505b50509050806104dd576040517f08c379a00000000000000000000000000000000000000000000000000000000081526004016104d490610c9f565b60405180910390fd5b8573ffffffffffffffffffffffffffffffffffffffff167f041d5930c0029b0bbd634120613c0565396ddb90ebcb050b9151c6a791d5304e866040516105239190610ccc565b60405180910390a2505050505050565b5f5f9054906101000a900473ffffffffffffffffffffffffffffffffffffffff1681565b565b5f5f9054906101000a900473ffffffffffffffffffffffffffffffffffffffff1673ffffffffffffffffffffffffffffffffffffffff163373ffffffffffffffffffffffffffffffffffffffff16146105e7576040517f08c379a00000000000000000000000000000000000000000000000000000000081526004016105de9061085e565b60405180910390fd5b600281908060018154018082558091505060019003905f5260205f20015f9091909190916101000a81548173ffffffffffffffffffffffffffffffffffffffff021916908373ffffffffffffffffffffffffffffffffffffffff16021790555050565b5f5ffd5b5f5ffd5b5f73ffffffffffffffffffffffffffffffffffffffff82169050919050565b5f61067b82610652565b9050919050565b61068b81610671565b8114610695575f5ffd5b50565b5f813590506106a681610682565b92915050565b5f819050919050565b6106be816106ac565b81146106c8575f5ffd5b50565b5f813590506106d9816106b5565b92915050565b5f5ffd5b5f5ffd5b5f5ffd5b5f5f83601f840112610700576106ff6106df565b5b8235905067ffffffffffffffff81111561071d5761071c6106e3565b5b602083019150836001820283011115610739576107386106e7565b5b9250929050565b5f5f5f5f606085870312156107585761075761064a565b5b5f61076587828801610698565b9450506020610776878288016106cb565b935050604085013567ffffffffffffffff8111156107975761079661064e565b5b6107a3878288016106eb565b925092505092959194509250565b6107ba81610671565b82525050565b5f6020820190506107d35f8301846107b1565b92915050565b5f602082840312156107ee576107ed61064a565b5b5f6107fb84828501610698565b91505092915050565b5f82825260208201905092915050565b7f596f7520617265206e6f74206f776e65722100000000000000000000000000005f82015250565b5f610848601283610804565b915061085382610814565b602082019050919050565b5f6020820190508181035f8301526108758161083c565b9050919050565b7f4e487b71000000000000000000000000000000000000000000000000000000005f52603260045260245ffd5b7f4e6f7420616e206f7267616e697a6174696f6e210000000000000000000000005f82015250565b5f6108dd601483610804565b91506108e8826108a9565b602082019050919050565b5f6020820190508181035f83015261090a816108d1565b9050919050565b5f81519050919050565b7f4e487b71000000000000000000000000000000000000000000000000000000005f52604160045260245ffd5b7f4e487b71000000000000000000000000000000000000000000000000000000005f52602260045260245ffd5b5f600282049050600182168061098c57607f821691505b60208210810361099f5761099e610948565b5b50919050565b5f819050815f5260205f209050919050565b5f6020601f8301049050919050565b5f82821b905092915050565b5f60088302610a017fffffffffffffffffffffffffffffffffffffffffffffffffffffffffffffffff826109c6565b610a0b86836109c6565b95508019841693508086168417925050509392505050565b5f819050919050565b5f610a46610a41610a3c846106ac565b610a23565b6106ac565b9050919050565b5f819050919050565b610a5f83610a2c565b610a73610a6b82610a4d565b8484546109d2565b825550505050565b5f5f905090565b610a8a610a7b565b610a95818484610a56565b505050565b5b81811015610ab857610aad5f82610a82565b600181019050610a9b565b5050565b601f821115610afd57610ace816109a5565b610ad7846109b7565b81016020851015610ae6578190505b610afa610af2856109b7565b830182610a9a565b50505b505050565b5f82821c905092915050565b5f610b1d5f1984600802610b02565b1980831691505092915050565b5f610b358383610b0e565b9150826002028217905092915050565b610b4e82610911565b67ffffffffffffffff811115610b6757610b6661091b565b5b610b718254610975565b610b7c828285610abc565b5f60209050601f831160018114610bad575f8415610b9b578287015190505b610ba58582610b2a565b865550610c0c565b601f198416610bbb866109a5565b5f5b82811015610be257848901518255600182019150602085019450602081019050610bbd565b86831015610bff5784890151610bfb601f891682610b0e565b8355505b6001600288020188555050505b505050505050565b5f81905092915050565b50565b5f610c2c5f83610c14565b9150610c3782610c1e565b5f82019050919050565b5f610c4b82610c21565b9150819050919050565b7f5061796d656e74206661696c65642100000000000000000000000000000000005f82015250565b5f610c89600f83610804565b9150610c9482610c55565b602082019050919050565b5f6020820190508181035f830152610cb681610c7d565b9050919050565b610cc6816106ac565b82525050565b5f602082019050610cdf5f830184610cbd565b9291505056fea264697066735822122009f9b1aea3fcccea4139ae1ccdcf5baffe52b7cac2429b1627ae2b864a9a256e64736f6c634300081e0033",
					"opcodes": "PUSH1 0x80 PUSH1 0x40 MSTORE CALLVALUE DUP1 ISZERO PUSH1 0xE JUMPI PUSH0 PUSH0 REVERT JUMPDEST POP CALLER PUSH0 PUSH0 PUSH2 0x100 EXP DUP2 SLOAD DUP2 PUSH20 0xFFFFFFFFFFFFFFFFFFFFFFFFFFFFFFFFFFFFFFFF MUL NOT AND SWAP1 DUP4 PUSH20 0xFFFFFFFFFFFFFFFFFFFFFFFFFFFFFFFFFFFFFFFF AND MUL OR SWAP1 SSTORE POP PUSH2 0xD1B DUP1 PUSH2 0x5B PUSH0 CODECOPY PUSH0 RETURN INVALID PUSH1 0x80 PUSH1 0x40 MSTORE PUSH1 0x4 CALLDATASIZE LT PUSH2 0x42 JUMPI PUSH0 CALLDATALOAD PUSH1 0xE0 SHR DUP1 PUSH4 0x462230D EQ PUSH2 0x13D JUMPI DUP1 PUSH4 0x8DA5CB5B EQ PUSH2 0x165 JUMPI DUP1 PUSH4 0xC2AC3AFF EQ PUSH2 0x18F JUMPI DUP1 PUSH4 0xD68287DF EQ PUSH2 0x199 JUMPI PUSH2 0x139 JUMP JUMPDEST CALLDATASIZE PUSH2 0x139 JUMPI PUSH0 PUSH1 0x40 MLOAD DUP1 PUSH1 0x60 ADD PUSH1 0x40 MSTORE DUP1 CALLER PUSH20 0xFFFFFFFFFFFFFFFFFFFFFFFFFFFFFFFFFFFFFFFF AND DUP2 MSTORE PUSH1 0x20 ADD TIMESTAMP DUP2 MSTORE PUSH1 0x20 ADD CALLVALUE DUP2 MSTORE POP SWAP1 POP PUSH1 0x1 PUSH0 CALLER PUSH20 0xFFFFFFFFFFFFFFFFFFFFFFFFFFFFFFFFFFFFFFFF AND PUSH20 0xFFFFFFFFFFFFFFFFFFFFFFFFFFFFFFFFFFFFFFFF AND DUP2 MSTORE PUSH1 0x20 ADD SWAP1 DUP2 MSTORE PUSH1 0x20 ADD PUSH0 KECCAK256 DUP2 SWAP1 DUP1 PUSH1 0x1 DUP2 SLOAD ADD DUP1 DUP3 SSTORE DUP1 SWAP2 POP POP PUSH1 0x1 SWAP1 SUB SWAP1 PUSH0 MSTORE PUSH1 0x20 PUSH0 KECCAK256 SWAP1 PUSH1 0x3 MUL ADD PUSH0 SWAP1 SWAP2 SWAP1 SWAP2 SWAP1 SWAP2 POP PUSH0 DUP3 ADD MLOAD DUP2 PUSH0 ADD PUSH0 PUSH2 0x100 EXP DUP2 SLOAD DUP2 PUSH20 0xFFFFFFFFFFFFFFFFFFFFFFFFFFFFFFFFFFFFFFFF MUL NOT AND SWAP1 DUP4 PUSH20 0xFFFFFFFFFFFFFFFFFFFFFFFFFFFFFFFFFFFFFFFF AND MUL OR SWAP1 SSTORE POP PUSH1 0x20 DUP3 ADD MLOAD DUP2 PUSH1 0x1 ADD SSTORE PUSH1 0x40 DUP3 ADD MLOAD DUP2 PUSH1 0x2 ADD SSTORE STOP JUMPDEST PUSH0 PUSH0 REVERT JUMPDEST CALLVALUE DUP1 ISZERO PUSH2 0x148 JUMPI PUSH0 PUSH0 REVERT JUMPDEST POP PUSH2 0x163 PUSH1 0x4 DUP1 CALLDATASIZE SUB DUP2 ADD SWAP1 PUSH2 0x15E SWAP2 SWAP1 PUSH2 0x740 JUMP JUMPDEST PUSH2 0x1C1 JUMP JUMPDEST STOP JUMPDEST CALLVALUE DUP1 ISZERO PUSH2 0x170 JUMPI PUSH0 PUSH0 REVERT JUMPDEST POP PUSH2 0x179 PUSH2 0x533 JUMP JUMPDEST PUSH1 0x40 MLOAD PUSH2 0x186 SWAP2 SWAP1 PUSH2 0x7C0 JUMP JUMPDEST PUSH1 0x40 MLOAD DUP1 SWAP2 SUB SWAP1 RETURN JUMPDEST PUSH2 0x197 PUSH2 0x557 JUMP JUMPDEST STOP JUMPDEST CALLVALUE DUP1 ISZERO PUSH2 0x1A4 JUMPI PUSH0 PUSH0 REVERT JUMPDEST POP PUSH2 0x1BF PUSH1 0x4 DUP1 CALLDATASIZE SUB DUP2 ADD SWAP1 PUSH2 0x1BA SWAP2 SWAP1 PUSH2 0x7D9 JUMP JUMPDEST PUSH2 0x559 JUMP JUMPDEST STOP JUMPDEST PUSH0 PUSH0 SWAP1 SLOAD SWAP1 PUSH2 0x100 EXP SWAP1 DIV PUSH20 0xFFFFFFFFFFFFFFFFFFFFFFFFFFFFFFFFFFFFFFFF AND PUSH20 0xFFFFFFFFFFFFFFFFFFFFFFFFFFFFFFFFFFFFFFFF AND CALLER PUSH20 0xFFFFFFFFFFFFFFFFFFFFFFFFFFFFFFFFFFFFFFFF AND EQ PUSH2 0x24F JUMPI PUSH1 0x40 MLOAD PUSH32 0x8C379A000000000000000000000000000000000000000000000000000000000 DUP2 MSTORE PUSH1 0x4 ADD PUSH2 0x246 SWAP1 PUSH2 0x85E JUMP JUMPDEST PUSH1 0x40 MLOAD DUP1 SWAP2 SUB SWAP1 REVERT JUMPDEST PUSH0 PUSH0 SWAP1 POP PUSH0 JUMPDEST PUSH1 0x2 DUP1 SLOAD SWAP1 POP DUP2 LT ISZERO PUSH2 0x2E2 JUMPI PUSH1 0x2 DUP2 DUP2 SLOAD DUP2 LT PUSH2 0x276 JUMPI PUSH2 0x275 PUSH2 0x87C JUMP JUMPDEST JUMPDEST SWAP1 PUSH0 MSTORE PUSH1 0x20 PUSH0 KECCAK256 ADD PUSH0 SWAP1 SLOAD SWAP1 PUSH2 0x100 EXP SWAP1 DIV PUSH20 0xFFFFFFFFFFFFFFFFFFFFFFFFFFFFFFFFFFFFFFFF AND PUSH20 0xFFFFFFFFFFFFFFFFFFFFFFFFFFFFFFFFFFFFFFFF AND CALLER PUSH20 0xFFFFFFFFFFFFFFFFFFFFFFFFFFFFFFFFFFFFFFFF AND SUB PUSH2 0x2D5 JUMPI PUSH1 0x1 SWAP2 POP JUMPDEST DUP1 DUP1 PUSH1 0x1 ADD SWAP2 POP POP PUSH2 0x255 JUMP JUMPDEST POP DUP1 PUSH2 0x323 JUMPI PUSH1 0x40 MLOAD PUSH32 0x8C379A000000000000000000000000000000000000000000000000000000000 DUP2 MSTORE PUSH1 0x4 ADD PUSH2 0x31A SWAP1 PUSH2 0x8F3 JUMP JUMPDEST PUSH1 0x40 MLOAD DUP1 SWAP2 SUB SWAP1 REVERT JUMPDEST PUSH1 0x3 PUSH1 0x40 MLOAD DUP1 PUSH1 0x80 ADD PUSH1 0x40 MSTORE DUP1 DUP8 PUSH20 0xFFFFFFFFFFFFFFFFFFFFFFFFFFFFFFFFFFFFFFFF AND DUP2 MSTORE PUSH1 0x20 ADD DUP6 DUP6 DUP1 DUP1 PUSH1 0x1F ADD PUSH1 0x20 DUP1 SWAP2 DIV MUL PUSH1 0x20 ADD PUSH1 0x40 MLOAD SWAP1 DUP2 ADD PUSH1 0x40 MSTORE DUP1 SWAP4 SWAP3 SWAP2 SWAP1 DUP2 DUP2 MSTORE PUSH1 0x20 ADD DUP4 DUP4 DUP1 DUP3 DUP5 CALLDATACOPY PUSH0 DUP2 DUP5 ADD MSTORE PUSH1 0x1F NOT PUSH1 0x1F DUP3 ADD AND SWAP1 POP DUP1 DUP4 ADD SWAP3 POP POP POP POP POP POP POP DUP2 MSTORE PUSH1 0x20 ADD DUP7 DUP2 MSTORE PUSH1 0x20 ADD TIMESTAMP DUP2 MSTORE POP SWAP1 DUP1 PUSH1 0x1 DUP2 SLOAD ADD DUP1 DUP3 SSTORE DUP1 SWAP2 POP POP PUSH1 0x1 SWAP1 SUB SWAP1 PUSH0 MSTORE PUSH1 0x20 PUSH0 KECCAK256 SWAP1 PUSH1 0x4 MUL ADD PUSH0 SWAP1 SWAP2 SWAP1 SWAP2 SWAP1 SWAP2 POP PUSH0 DUP3 ADD MLOAD DUP2 PUSH0 ADD PUSH0 PUSH2 0x100 EXP DUP2 SLOAD DUP2 PUSH20 0xFFFFFFFFFFFFFFFFFFFFFFFFFFFFFFFFFFFFFFFF MUL NOT AND SWAP1 DUP4 PUSH20 0xFFFFFFFFFFFFFFFFFFFFFFFFFFFFFFFFFFFFFFFF AND MUL OR SWAP1 SSTORE POP PUSH1 0x20 DUP3 ADD MLOAD DUP2 PUSH1 0x1 ADD SWAP1 DUP2 PUSH2 0x41E SWAP2 SWAP1 PUSH2 0xB45 JUMP JUMPDEST POP PUSH1 0x40 DUP3 ADD MLOAD DUP2 PUSH1 0x2 ADD SSTORE PUSH1 0x60 DUP3 ADD MLOAD DUP2 PUSH1 0x3 ADD SSTORE POP POP PUSH0 DUP6 PUSH20 0xFFFFFFFFFFFFFFFFFFFFFFFFFFFFFFFFFFFFFFFF AND DUP6 PUSH1 0x40 MLOAD PUSH2 0x45A SWAP1 PUSH2 0xC41 JUMP JUMPDEST PUSH0 PUSH1 0x40 MLOAD DUP1 DUP4 SUB DUP2 DUP6 DUP8 GAS CALL SWAP3 POP POP POP RETURNDATASIZE DUP1 PUSH0 DUP2 EQ PUSH2 0x494 JUMPI PUSH1 0x40 MLOAD SWAP2 POP PUSH1 0x1F NOT PUSH1 0x3F RETURNDATASIZE ADD AND DUP3 ADD PUSH1 0x40 MSTORE RETURNDATASIZE DUP3 MSTORE RETURNDATASIZE PUSH0 PUSH1 0x20 DUP5 ADD RETURNDATACOPY PUSH2 0x499 JUMP JUMPDEST PUSH1 0x60 SWAP2 POP JUMPDEST POP POP SWAP1 POP DUP1 PUSH2 0x4DD JUMPI PUSH1 0x40 MLOAD PUSH32 0x8C379A000000000000000000000000000000000000000000000000000000000 DUP2 MSTORE PUSH1 0x4 ADD PUSH2 0x4D4 SWAP1 PUSH2 0xC9F JUMP JUMPDEST PUSH1 0x40 MLOAD DUP1 SWAP2 SUB SWAP1 REVERT JUMPDEST DUP6 PUSH20 0xFFFFFFFFFFFFFFFFFFFFFFFFFFFFFFFFFFFFFFFF AND PUSH32 0x41D5930C0029B0BBD634120613C0565396DDB90EBCB050B9151C6A791D5304E DUP7 PUSH1 0x40 MLOAD PUSH2 0x523 SWAP2 SWAP1 PUSH2 0xCCC JUMP JUMPDEST PUSH1 0x40 MLOAD DUP1 SWAP2 SUB SWAP1 LOG2 POP POP POP POP POP POP JUMP JUMPDEST PUSH0 PUSH0 SWAP1 SLOAD SWAP1 PUSH2 0x100 EXP SWAP1 DIV PUSH20 0xFFFFFFFFFFFFFFFFFFFFFFFFFFFFFFFFFFFFFFFF AND DUP2 JUMP JUMPDEST JUMP JUMPDEST PUSH0 PUSH0 SWAP1 SLOAD SWAP1 PUSH2 0x100 EXP SWAP1 DIV PUSH20 0xFFFFFFFFFFFFFFFFFFFFFFFFFFFFFFFFFFFFFFFF AND PUSH20 0xFFFFFFFFFFFFFFFFFFFFFFFFFFFFFFFFFFFFFFFF AND CALLER PUSH20 0xFFFFFFFFFFFFFFFFFFFFFFFFFFFFFFFFFFFFFFFF AND EQ PUSH2 0x5E7 JUMPI PUSH1 0x40 MLOAD PUSH32 0x8C379A000000000000000000000000000000000000000000000000000000000 DUP2 MSTORE PUSH1 0x4 ADD PUSH2 0x5DE SWAP1 PUSH2 0x85E JUMP JUMPDEST PUSH1 0x40 MLOAD DUP1 SWAP2 SUB SWAP1 REVERT JUMPDEST PUSH1 0x2 DUP2 SWAP1 DUP1 PUSH1 0x1 DUP2 SLOAD ADD DUP1 DUP3 SSTORE DUP1 SWAP2 POP POP PUSH1 0x1 SWAP1 SUB SWAP1 PUSH0 MSTORE PUSH1 0x20 PUSH0 KECCAK256 ADD PUSH0 SWAP1 SWAP2 SWAP1 SWAP2 SWAP1 SWAP2 PUSH2 0x100 EXP DUP2 SLOAD DUP2 PUSH20 0xFFFFFFFFFFFFFFFFFFFFFFFFFFFFFFFFFFFFFFFF MUL NOT AND SWAP1 DUP4 PUSH20 0xFFFFFFFFFFFFFFFFFFFFFFFFFFFFFFFFFFFFFFFF AND MUL OR SWAP1 SSTORE POP POP JUMP JUMPDEST PUSH0 PUSH0 REVERT JUMPDEST PUSH0 PUSH0 REVERT JUMPDEST PUSH0 PUSH20 0xFFFFFFFFFFFFFFFFFFFFFFFFFFFFFFFFFFFFFFFF DUP3 AND SWAP1 POP SWAP2 SWAP1 POP JUMP JUMPDEST PUSH0 PUSH2 0x67B DUP3 PUSH2 0x652 JUMP JUMPDEST SWAP1 POP SWAP2 SWAP1 POP JUMP JUMPDEST PUSH2 0x68B DUP2 PUSH2 0x671 JUMP JUMPDEST DUP2 EQ PUSH2 0x695 JUMPI PUSH0 PUSH0 REVERT JUMPDEST POP JUMP JUMPDEST PUSH0 DUP2 CALLDATALOAD SWAP1 POP PUSH2 0x6A6 DUP2 PUSH2 0x682 JUMP JUMPDEST SWAP3 SWAP2 POP POP JUMP JUMPDEST PUSH0 DUP2 SWAP1 POP SWAP2 SWAP1 POP JUMP JUMPDEST PUSH2 0x6BE DUP2 PUSH2 0x6AC JUMP JUMPDEST DUP2 EQ PUSH2 0x6C8 JUMPI PUSH0 PUSH0 REVERT JUMPDEST POP JUMP JUMPDEST PUSH0 DUP2 CALLDATALOAD SWAP1 POP PUSH2 0x6D9 DUP2 PUSH2 0x6B5 JUMP JUMPDEST SWAP3 SWAP2 POP POP JUMP JUMPDEST PUSH0 PUSH0 REVERT JUMPDEST PUSH0 PUSH0 REVERT JUMPDEST PUSH0 PUSH0 REVERT JUMPDEST PUSH0 PUSH0 DUP4 PUSH1 0x1F DUP5 ADD SLT PUSH2 0x700 JUMPI PUSH2 0x6FF PUSH2 0x6DF JUMP JUMPDEST JUMPDEST DUP3 CALLDATALOAD SWAP1 POP PUSH8 0xFFFFFFFFFFFFFFFF DUP2 GT ISZERO PUSH2 0x71D JUMPI PUSH2 0x71C PUSH2 0x6E3 JUMP JUMPDEST JUMPDEST PUSH1 0x20 DUP4 ADD SWAP2 POP DUP4 PUSH1 0x1 DUP3 MUL DUP4 ADD GT ISZERO PUSH2 0x739 JUMPI PUSH2 0x738 PUSH2 0x6E7 JUMP JUMPDEST JUMPDEST SWAP3 POP SWAP3 SWAP1 POP JUMP JUMPDEST PUSH0 PUSH0 PUSH0 PUSH0 PUSH1 0x60 DUP6 DUP8 SUB SLT ISZERO PUSH2 0x758 JUMPI PUSH2 0x757 PUSH2 0x64A JUMP JUMPDEST JUMPDEST PUSH0 PUSH2 0x765 DUP8 DUP3 DUP9 ADD PUSH2 0x698 JUMP JUMPDEST SWAP5 POP POP PUSH1 0x20 PUSH2 0x776 DUP8 DUP3 DUP9 ADD PUSH2 0x6CB JUMP JUMPDEST SWAP4 POP POP PUSH1 0x40 DUP6 ADD CALLDATALOAD PUSH8 0xFFFFFFFFFFFFFFFF DUP2 GT ISZERO PUSH2 0x797 JUMPI PUSH2 0x796 PUSH2 0x64E JUMP JUMPDEST JUMPDEST PUSH2 0x7A3 DUP8 DUP3 DUP9 ADD PUSH2 0x6EB JUMP JUMPDEST SWAP3 POP SWAP3 POP POP SWAP3 SWAP6 SWAP2 SWAP5 POP SWAP3 POP JUMP JUMPDEST PUSH2 0x7BA DUP2 PUSH2 0x671 JUMP JUMPDEST DUP3 MSTORE POP POP JUMP JUMPDEST PUSH0 PUSH1 0x20 DUP3 ADD SWAP1 POP PUSH2 0x7D3 PUSH0 DUP4 ADD DUP5 PUSH2 0x7B1 JUMP JUMPDEST SWAP3 SWAP2 POP POP JUMP JUMPDEST PUSH0 PUSH1 0x20 DUP3 DUP5 SUB SLT ISZERO PUSH2 0x7EE JUMPI PUSH2 0x7ED PUSH2 0x64A JUMP JUMPDEST JUMPDEST PUSH0 PUSH2 0x7FB DUP5 DUP3 DUP6 ADD PUSH2 0x698 JUMP JUMPDEST SWAP2 POP POP SWAP3 SWAP2 POP POP JUMP JUMPDEST PUSH0 DUP3 DUP3 MSTORE PUSH1 0x20 DUP3 ADD SWAP1 POP SWAP3 SWAP2 POP POP JUMP JUMPDEST PUSH32 0x596F7520617265206E6F74206F776E6572210000000000000000000000000000 PUSH0 DUP3 ADD MSTORE POP JUMP JUMPDEST PUSH0 PUSH2 0x848 PUSH1 0x12 DUP4 PUSH2 0x804 JUMP JUMPDEST SWAP2 POP PUSH2 0x853 DUP3 PUSH2 0x814 JUMP JUMPDEST PUSH1 0x20 DUP3 ADD SWAP1 POP SWAP2 SWAP1 POP JUMP JUMPDEST PUSH0 PUSH1 0x20 DUP3 ADD SWAP1 POP DUP2 DUP2 SUB PUSH0 DUP4 ADD MSTORE PUSH2 0x875 DUP2 PUSH2 0x83C JUMP JUMPDEST SWAP1 POP SWAP2 SWAP1 POP JUMP JUMPDEST PUSH32 0x4E487B7100000000000000000000000000000000000000000000000000000000 PUSH0 MSTORE PUSH1 0x32 PUSH1 0x4 MSTORE PUSH1 0x24 PUSH0 REVERT JUMPDEST PUSH32 0x4E6F7420616E206F7267616E697A6174696F6E21000000000000000000000000 PUSH0 DUP3 ADD MSTORE POP JUMP JUMPDEST PUSH0 PUSH2 0x8DD PUSH1 0x14 DUP4 PUSH2 0x804 JUMP JUMPDEST SWAP2 POP PUSH2 0x8E8 DUP3 PUSH2 0x8A9 JUMP JUMPDEST PUSH1 0x20 DUP3 ADD SWAP1 POP SWAP2 SWAP1 POP JUMP JUMPDEST PUSH0 PUSH1 0x20 DUP3 ADD SWAP1 POP DUP2 DUP2 SUB PUSH0 DUP4 ADD MSTORE PUSH2 0x90A DUP2 PUSH2 0x8D1 JUMP JUMPDEST SWAP1 POP SWAP2 SWAP1 POP JUMP JUMPDEST PUSH0 DUP2 MLOAD SWAP1 POP SWAP2 SWAP1 POP JUMP JUMPDEST PUSH32 0x4E487B7100000000000000000000000000000000000000000000000000000000 PUSH0 MSTORE PUSH1 0x41 PUSH1 0x4 MSTORE PUSH1 0x24 PUSH0 REVERT JUMPDEST PUSH32 0x4E487B7100000000000000000000000000000000000000000000000000000000 PUSH0 MSTORE PUSH1 0x22 PUSH1 0x4 MSTORE PUSH1 0x24 PUSH0 REVERT JUMPDEST PUSH0 PUSH1 0x2 DUP3 DIV SWAP1 POP PUSH1 0x1 DUP3 AND DUP1 PUSH2 0x98C JUMPI PUSH1 0x7F DUP3 AND SWAP2 POP JUMPDEST PUSH1 0x20 DUP3 LT DUP2 SUB PUSH2 0x99F JUMPI PUSH2 0x99E PUSH2 0x948 JUMP JUMPDEST JUMPDEST POP SWAP2 SWAP1 POP JUMP JUMPDEST PUSH0 DUP2 SWAP1 POP DUP2 PUSH0 MSTORE PUSH1 0x20 PUSH0 KECCAK256 SWAP1 POP SWAP2 SWAP1 POP JUMP JUMPDEST PUSH0 PUSH1 0x20 PUSH1 0x1F DUP4 ADD DIV SWAP1 POP SWAP2 SWAP1 POP JUMP JUMPDEST PUSH0 DUP3 DUP3 SHL SWAP1 POP SWAP3 SWAP2 POP POP JUMP JUMPDEST PUSH0 PUSH1 0x8 DUP4 MUL PUSH2 0xA01 PUSH32 0xFFFFFFFFFFFFFFFFFFFFFFFFFFFFFFFFFFFFFFFFFFFFFFFFFFFFFFFFFFFFFFFF DUP3 PUSH2 0x9C6 JUMP JUMPDEST PUSH2 0xA0B DUP7 DUP4 PUSH2 0x9C6 JUMP JUMPDEST SWAP6 POP DUP1 NOT DUP5 AND SWAP4 POP DUP1 DUP7 AND DUP5 OR SWAP3 POP POP POP SWAP4 SWAP3 POP POP POP JUMP JUMPDEST PUSH0 DUP2 SWAP1 POP SWAP2 SWAP1 POP JUMP JUMPDEST PUSH0 PUSH2 0xA46 PUSH2 0xA41 PUSH2 0xA3C DUP5 PUSH2 0x6AC JUMP JUMPDEST PUSH2 0xA23 JUMP JUMPDEST PUSH2 0x6AC JUMP JUMPDEST SWAP1 POP SWAP2 SWAP1 POP JUMP JUMPDEST PUSH0 DUP2 SWAP1 POP SWAP2 SWAP1 POP JUMP JUMPDEST PUSH2 0xA5F DUP4 PUSH2 0xA2C JUMP JUMPDEST PUSH2 0xA73 PUSH2 0xA6B DUP3 PUSH2 0xA4D JUMP JUMPDEST DUP5 DUP5 SLOAD PUSH2 0x9D2 JUMP JUMPDEST DUP3 SSTORE POP POP POP POP JUMP JUMPDEST PUSH0 PUSH0 SWAP1 POP SWAP1 JUMP JUMPDEST PUSH2 0xA8A PUSH2 0xA7B JUMP JUMPDEST PUSH2 0xA95 DUP2 DUP5 DUP5 PUSH2 0xA56 JUMP JUMPDEST POP POP POP JUMP JUMPDEST JUMPDEST DUP2 DUP2 LT ISZERO PUSH2 0xAB8 JUMPI PUSH2 0xAAD PUSH0 DUP3 PUSH2 0xA82 JUMP JUMPDEST PUSH1 0x1 DUP2 ADD SWAP1 POP PUSH2 0xA9B JUMP JUMPDEST POP POP JUMP JUMPDEST PUSH1 0x1F DUP3 GT ISZERO PUSH2 0xAFD JUMPI PUSH2 0xACE DUP2 PUSH2 0x9A5 JUMP JUMPDEST PUSH2 0xAD7 DUP5 PUSH2 0x9B7 JUMP JUMPDEST DUP2 ADD PUSH1 0x20 DUP6 LT ISZERO PUSH2 0xAE6 JUMPI DUP2 SWAP1 POP JUMPDEST PUSH2 0xAFA PUSH2 0xAF2 DUP6 PUSH2 0x9B7 JUMP JUMPDEST DUP4 ADD DUP3 PUSH2 0xA9A JUMP JUMPDEST POP POP JUMPDEST POP POP POP JUMP JUMPDEST PUSH0 DUP3 DUP3 SHR SWAP1 POP SWAP3 SWAP2 POP POP JUMP JUMPDEST PUSH0 PUSH2 0xB1D PUSH0 NOT DUP5 PUSH1 0x8 MUL PUSH2 0xB02 JUMP JUMPDEST NOT DUP1 DUP4 AND SWAP2 POP POP SWAP3 SWAP2 POP POP JUMP JUMPDEST PUSH0 PUSH2 0xB35 DUP4 DUP4 PUSH2 0xB0E JUMP JUMPDEST SWAP2 POP DUP3 PUSH1 0x2 MUL DUP3 OR SWAP1 POP SWAP3 SWAP2 POP POP JUMP JUMPDEST PUSH2 0xB4E DUP3 PUSH2 0x911 JUMP JUMPDEST PUSH8 0xFFFFFFFFFFFFFFFF DUP2 GT ISZERO PUSH2 0xB67 JUMPI PUSH2 0xB66 PUSH2 0x91B JUMP JUMPDEST JUMPDEST PUSH2 0xB71 DUP3 SLOAD PUSH2 0x975 JUMP JUMPDEST PUSH2 0xB7C DUP3 DUP3 DUP6 PUSH2 0xABC JUMP JUMPDEST PUSH0 PUSH1 0x20 SWAP1 POP PUSH1 0x1F DUP4 GT PUSH1 0x1 DUP2 EQ PUSH2 0xBAD JUMPI PUSH0 DUP5 ISZERO PUSH2 0xB9B JUMPI DUP3 DUP8 ADD MLOAD SWAP1 POP JUMPDEST PUSH2 0xBA5 DUP6 DUP3 PUSH2 0xB2A JUMP JUMPDEST DUP7 SSTORE POP PUSH2 0xC0C JUMP JUMPDEST PUSH1 0x1F NOT DUP5 AND PUSH2 0xBBB DUP7 PUSH2 0x9A5 JUMP JUMPDEST PUSH0 JUMPDEST DUP3 DUP2 LT ISZERO PUSH2 0xBE2 JUMPI DUP5 DUP10 ADD MLOAD DUP3 SSTORE PUSH1 0x1 DUP3 ADD SWAP2 POP PUSH1 0x20 DUP6 ADD SWAP5 POP PUSH1 0x20 DUP2 ADD SWAP1 POP PUSH2 0xBBD JUMP JUMPDEST DUP7 DUP4 LT ISZERO PUSH2 0xBFF JUMPI DUP5 DUP10 ADD MLOAD PUSH2 0xBFB PUSH1 0x1F DUP10 AND DUP3 PUSH2 0xB0E JUMP JUMPDEST DUP4 SSTORE POP JUMPDEST PUSH1 0x1 PUSH1 0x2 DUP9 MUL ADD DUP9 SSTORE POP POP POP JUMPDEST POP POP POP POP POP POP JUMP JUMPDEST PUSH0 DUP2 SWAP1 POP SWAP3 SWAP2 POP POP JUMP JUMPDEST POP JUMP JUMPDEST PUSH0 PUSH2 0xC2C PUSH0 DUP4 PUSH2 0xC14 JUMP JUMPDEST SWAP2 POP PUSH2 0xC37 DUP3 PUSH2 0xC1E JUMP JUMPDEST PUSH0 DUP3 ADD SWAP1 POP SWAP2 SWAP1 POP JUMP JUMPDEST PUSH0 PUSH2 0xC4B DUP3 PUSH2 0xC21 JUMP JUMPDEST SWAP2 POP DUP2 SWAP1 POP SWAP2 SWAP1 POP JUMP JUMPDEST PUSH32 0x5061796D656E74206661696C6564210000000000000000000000000000000000 PUSH0 DUP3 ADD MSTORE POP JUMP JUMPDEST PUSH0 PUSH2 0xC89 PUSH1 0xF DUP4 PUSH2 0x804 JUMP JUMPDEST SWAP2 POP PUSH2 0xC94 DUP3 PUSH2 0xC55 JUMP JUMPDEST PUSH1 0x20 DUP3 ADD SWAP1 POP SWAP2 SWAP1 POP JUMP JUMPDEST PUSH0 PUSH1 0x20 DUP3 ADD SWAP1 POP DUP2 DUP2 SUB PUSH0 DUP4 ADD MSTORE PUSH2 0xCB6 DUP2 PUSH2 0xC7D JUMP JUMPDEST SWAP1 POP SWAP2 SWAP1 POP JUMP JUMPDEST PUSH2 0xCC6 DUP2 PUSH2 0x6AC JUMP JUMPDEST DUP3 MSTORE POP POP JUMP JUMPDEST PUSH0 PUSH1 0x20 DUP3 ADD SWAP1 POP PUSH2 0xCDF PUSH0 DUP4 ADD DUP5 PUSH2 0xCBD JUMP JUMPDEST SWAP3 SWAP2 POP POP JUMP INVALID LOG2 PUSH5 0x6970667358 0x22 SLT KECCAK256 MULMOD EXTDELEGATECALL 0xB1 0xAE LOG3 0xFC 0xCC 0xEA COINBASE CODECOPY 0xAE SHR 0xCD 0xCF JUMPDEST 0xAF INVALID MSTORE 0xB7 0xCA 0xC2 TIMESTAMP SWAP12 AND 0x27 0xAE 0x2B DUP7 BLOBBASEFEE SWAP11 0x25 PUSH15 0x64736F6C634300081E003300000000 "
				},
				"gasEstimates": {
					"creation": {
						"codeDepositCost": "671000",
						"executionCost": "24964",
						"totalCost": "695964"
					},
					"external": {
						"addEth()": "141",
						"addOrganization(address)": "51237",
						"owner()": "2507",
						"raiseEmergency(address,uint256,string)": "infinite"
					}
				},
				"methodIdentifiers": {
					"addEth()": "c2ac3aff",
					"addOrganization(address)": "d68287df",
					"owner()": "8da5cb5b",
					"raiseEmergency(address,uint256,string)": "0462230d"
				}
			},
			"storageLayout": {
				"storage": [
					{
						"astId": 3,
						"contract": "Emergency.sol:Emergency",
						"label": "owner",
						"offset": 0,
						"slot": "0",
						"type": "t_address"
					},
					{
						"astId": 31,
						"contract": "Emergency.sol:Emergency",
						"label": "payments",
						"offset": 0,
						"slot": "1",
						"type": "t_mapping(t_address,t_array(t_struct(Payment)10_storage)dyn_storage)"
					},
					{
						"astId": 34,
						"contract": "Emergency.sol:Emergency",
						"label": "organizations",
						"offset": 0,
						"slot": "2",
						"type": "t_array(t_address)dyn_storage"
					},
					{
						"astId": 38,
						"contract": "Emergency.sol:Emergency",
						"label": "emergencies",
						"offset": 0,
						"slot": "3",
						"type": "t_array(t_struct(EmergencyDetails)19_storage)dyn_storage"
					}
				],
				"types": {
					"t_address": {
						"encoding": "inplace",
						"label": "address",
						"numberOfBytes": "20"
					},
					"t_array(t_address)dyn_storage": {
						"base": "t_address",
						"encoding": "dynamic_array",
						"label": "address[]",
						"numberOfBytes": "32"
					},
					"t_array(t_struct(EmergencyDetails)19_storage)dyn_storage": {
						"base": "t_struct(EmergencyDetails)19_storage",
						"encoding": "dynamic_array",
						"label": "struct Emergency.EmergencyDetails[]",
						"numberOfBytes": "32"
					},
					"t_array(t_struct(Payment)10_storage)dyn_storage": {
						"base": "t_struct(Payment)10_storage",
						"encoding": "dynamic_array",
						"label": "struct Emergency.Payment[]",
						"numberOfBytes": "32"
					},
					"t_mapping(t_address,t_array(t_struct(Payment)10_storage)dyn_storage)": {
						"encoding": "mapping",
						"key": "t_address",
						"label": "mapping(address => struct Emergency.Payment[])",
						"numberOfBytes": "32",
						"value": "t_array(t_struct(Payment)10_storage)dyn_storage"
					},
					"t_string_storage": {
						"encoding": "bytes",
						"label": "string",
						"numberOfBytes": "32"
					},
					"t_struct(EmergencyDetails)19_storage": {
						"encoding": "inplace",
						"label": "struct Emergency.EmergencyDetails",
						"members": [
							{
								"astId": 12,
								"contract": "Emergency.sol:Emergency",
								"label": "victim",
								"offset": 0,
								"slot": "0",
								"type": "t_address"
							},
							{
								"astId": 14,
								"contract": "Emergency.sol:Emergency",
								"label": "description",
								"offset": 0,
								"slot": "1",
								"type": "t_string_storage"
							},
							{
								"astId": 16,
								"contract": "Emergency.sol:Emergency",
								"label": "ammount",
								"offset": 0,
								"slot": "2",
								"type": "t_uint256"
							},
							{
								"astId": 18,
								"contract": "Emergency.sol:Emergency",
								"label": "date",
								"offset": 0,
								"slot": "3",
								"type": "t_uint256"
							}
						],
						"numberOfBytes": "128"
					},
					"t_struct(Payment)10_storage": {
						"encoding": "inplace",
						"label": "struct Emergency.Payment",
						"members": [
							{
								"astId": 5,
								"contract": "Emergency.sol:Emergency",
								"label": "from",
								"offset": 0,
								"slot": "0",
								"type": "t_address"
							},
							{
								"astId": 7,
								"contract": "Emergency.sol:Emergency",
								"label": "date",
								"offset": 0,
								"slot": "1",
								"type": "t_uint256"
							},
							{
								"astId": 9,
								"contract": "Emergency.sol:Emergency",
								"label": "ammount",
								"offset": 0,
								"slot": "2",
								"type": "t_uint256"
							}
						],
						"numberOfBytes": "96"
					},
					"t_uint256": {
						"encoding": "inplace",
						"label": "uint256",
						"numberOfBytes": "32"
					}
				}
			},
			"userdoc": {
				"kind": "user",
				"methods": {},
				"version": 1
			}
		}
	}
}