{
	"calls/Resource.sol": {
		"ResourceUtils": {
			"abi": [
				{
					"inputs": [
						{
							"components": [
								{
									"internalType": "address",
									"name": "player",
									"type": "address"
								},
								{
									"internalType": "uint256",
									"name": "energy",
									"type": "uint256"
								},
								{
									"internalType": "uint256",
									"name": "balance",
									"type": "uint256"
								},
								{
									"internalType": "uint256",
									"name": "level",
									"type": "uint256"
								}
							],
							"internalType": "struct ResourceUtils.Player",
							"name": "player",
							"type": "tuple"
						}
					],
					"name": "calculateUpgraid",
					"outputs": [
						{
							"internalType": "uint256",
							"name": "",
							"type": "uint256"
						}
					],
					"stateMutability": "pure",
					"type": "function"
				},
				{
					"inputs": [
						{
							"components": [
								{
									"internalType": "address",
									"name": "player",
									"type": "address"
								},
								{
									"internalType": "uint256",
									"name": "energy",
									"type": "uint256"
								},
								{
									"internalType": "uint256",
									"name": "balance",
									"type": "uint256"
								},
								{
									"internalType": "uint256",
									"name": "level",
									"type": "uint256"
								}
							],
							"internalType": "struct ResourceUtils.Player",
							"name": "player",
							"type": "tuple"
						}
					],
					"name": "manageEnergy",
					"outputs": [
						{
							"components": [
								{
									"internalType": "address",
									"name": "player",
									"type": "address"
								},
								{
									"internalType": "uint256",
									"name": "energy",
									"type": "uint256"
								},
								{
									"internalType": "uint256",
									"name": "balance",
									"type": "uint256"
								},
								{
									"internalType": "uint256",
									"name": "level",
									"type": "uint256"
								}
							],
							"internalType": "struct ResourceUtils.Player",
							"name": "",
							"type": "tuple"
						}
					],
					"stateMutability": "pure",
					"type": "function"
				}
			],
			"devdoc": {
				"kind": "dev",
				"methods": {},
				"version": 1
			},
			"evm": {
				"assembly": "    /* \"calls/Resource.sol\":66:544  library ResourceUtils {... */\n  dataSize(sub_0)\n  dataOffset(sub_0)\n  0x0b\n  dup3\n  dup3\n  dup3\n  codecopy\n  dup1\n  mload\n  0x00\n  byte\n  0x73\n  eq\n  tag_1\n  jumpi\n  mstore(0x00, 0x4e487b7100000000000000000000000000000000000000000000000000000000)\n  mstore(0x04, 0x00)\n  revert(0x00, 0x24)\ntag_1:\n  mstore(0x00, address)\n  0x73\n  dup2\n  mstore8\n  dup3\n  dup2\n  return\nstop\n\nsub_0: assembly {\n        /* \"calls/Resource.sol\":66:544  library ResourceUtils {... */\n      eq(address, deployTimeAddress())\n      mstore(0x40, 0x80)\n      jumpi(tag_1, lt(calldatasize, 0x04))\n      shr(0xe0, calldataload(0x00))\n      dup1\n      0x19b0e7a3\n      eq\n      tag_2\n      jumpi\n      dup1\n      0xb54fa6c3\n      eq\n      tag_3\n      jumpi\n    tag_1:\n      revert(0x00, 0x00)\n        /* \"calls/Resource.sol\":207:340  function manageEnergy(Player memory player)public pure returns(Player memory) {... */\n    tag_2:\n      tag_4\n      0x04\n      dup1\n      calldatasize\n      sub\n      dup2\n      add\n      swap1\n      tag_5\n      swap2\n      swap1\n      tag_6\n      jump\t// in\n    tag_5:\n      tag_7\n      jump\t// in\n    tag_4:\n      mload(0x40)\n      tag_8\n      swap2\n      swap1\n      tag_9\n      jump\t// in\n    tag_8:\n      mload(0x40)\n      dup1\n      swap2\n      sub\n      swap1\n      return\n        /* \"calls/Resource.sol\":346:539  function calculateUpgraid(Player memory player) public pure returns(uint){... */\n    tag_3:\n      tag_10\n      0x04\n      dup1\n      calldatasize\n      sub\n      dup2\n      add\n      swap1\n      tag_11\n      swap2\n      swap1\n      tag_6\n      jump\t// in\n    tag_11:\n      tag_12\n      jump\t// in\n    tag_10:\n      mload(0x40)\n      tag_13\n      swap2\n      swap1\n      tag_14\n      jump\t// in\n    tag_13:\n      mload(0x40)\n      dup1\n      swap2\n      sub\n      swap1\n      return\n        /* \"calls/Resource.sol\":207:340  function manageEnergy(Player memory player)public pure returns(Player memory) {... */\n    tag_7:\n        /* \"calls/Resource.sol\":270:283  Player memory */\n      tag_15\n      tag_16\n      jump\t// in\n    tag_15:\n        /* \"calls/Resource.sol\":295:301  player */\n      dup2\n        /* \"calls/Resource.sol\":295:308  player.energy */\n      0x20\n      add\n        /* \"calls/Resource.sol\":295:310  player.energy-- */\n      dup1\n      mload\n      dup1\n      swap2\n      swap1\n      tag_18\n      swap1\n      tag_19\n      jump\t// in\n    tag_18:\n      dup2\n      mstore\n      pop\n      pop\n        /* \"calls/Resource.sol\":327:333  player */\n      dup2\n        /* \"calls/Resource.sol\":320:333  return player */\n      swap1\n      pop\n        /* \"calls/Resource.sol\":207:340  function manageEnergy(Player memory player)public pure returns(Player memory) {... */\n      swap2\n      swap1\n      pop\n      jump\t// out\n        /* \"calls/Resource.sol\":346:539  function calculateUpgraid(Player memory player) public pure returns(uint){... */\n    tag_12:\n        /* \"calls/Resource.sol\":414:418  uint */\n      0x00\n        /* \"calls/Resource.sol\":429:441  uint ammount */\n      0x00\n        /* \"calls/Resource.sol\":453:459  player */\n      dup3\n        /* \"calls/Resource.sol\":453:465  player.level */\n      0x60\n      add\n      mload\n        /* \"calls/Resource.sol\":444:450  1 gwei */\n      0x3b9aca00\n        /* \"calls/Resource.sol\":444:465  1 gwei * player.level */\n      tag_21\n      swap2\n      swap1\n      tag_22\n      jump\t// in\n    tag_21:\n        /* \"calls/Resource.sol\":429:465  uint ammount = 1 gwei * player.level */\n      swap1\n      pop\n        /* \"calls/Resource.sol\":493:499  player */\n      dup3\n        /* \"calls/Resource.sol\":493:507  player.balance */\n      0x40\n      add\n      mload\n        /* \"calls/Resource.sol\":483:490  ammount */\n      dup2\n        /* \"calls/Resource.sol\":483:507  ammount > player.balance */\n      gt\n        /* \"calls/Resource.sol\":475:508  require(ammount > player.balance) */\n      tag_23\n      jumpi\n      revert(0x00, 0x00)\n    tag_23:\n        /* \"calls/Resource.sol\":525:532  ammount */\n      dup1\n        /* \"calls/Resource.sol\":518:532  return ammount */\n      swap2\n      pop\n      pop\n        /* \"calls/Resource.sol\":346:539  function calculateUpgraid(Player memory player) public pure returns(uint){... */\n      swap2\n      swap1\n      pop\n      jump\t// out\n    tag_16:\n      mload(0x40)\n      dup1\n      0x80\n      add\n      0x40\n      mstore\n      dup1\n      and(0xffffffffffffffffffffffffffffffffffffffff, 0x00)\n      dup2\n      mstore\n      0x20\n      add\n      0x00\n      dup2\n      mstore\n      0x20\n      add\n      0x00\n      dup2\n      mstore\n      0x20\n      add\n      0x00\n      dup2\n      mstore\n      pop\n      swap1\n      jump\t// out\n        /* \"#utility.yul\":7:82   */\n    tag_24:\n        /* \"#utility.yul\":40:46   */\n      0x00\n        /* \"#utility.yul\":73:75   */\n      0x40\n        /* \"#utility.yul\":67:76   */\n      mload\n        /* \"#utility.yul\":57:76   */\n      swap1\n      pop\n        /* \"#utility.yul\":7:82   */\n      swap1\n      jump\t// out\n        /* \"#utility.yul\":88:205   */\n    tag_25:\n        /* \"#utility.yul\":197:198   */\n      0x00\n        /* \"#utility.yul\":194:195   */\n      0x00\n        /* \"#utility.yul\":187:199   */\n      revert\n        /* \"#utility.yul\":334:451   */\n    tag_27:\n        /* \"#utility.yul\":443:444   */\n      0x00\n        /* \"#utility.yul\":440:441   */\n      0x00\n        /* \"#utility.yul\":433:445   */\n      revert\n        /* \"#utility.yul\":457:559   */\n    tag_28:\n        /* \"#utility.yul\":498:504   */\n      0x00\n        /* \"#utility.yul\":549:551   */\n      0x1f\n        /* \"#utility.yul\":545:552   */\n      not\n        /* \"#utility.yul\":540:542   */\n      0x1f\n        /* \"#utility.yul\":533:538   */\n      dup4\n        /* \"#utility.yul\":529:543   */\n      add\n        /* \"#utility.yul\":525:553   */\n      and\n        /* \"#utility.yul\":515:553   */\n      swap1\n      pop\n        /* \"#utility.yul\":457:559   */\n      swap2\n      swap1\n      pop\n      jump\t// out\n        /* \"#utility.yul\":565:745   */\n    tag_29:\n        /* \"#utility.yul\":613:690   */\n      0x4e487b7100000000000000000000000000000000000000000000000000000000\n        /* \"#utility.yul\":610:611   */\n      0x00\n        /* \"#utility.yul\":603:691   */\n      mstore\n        /* \"#utility.yul\":710:714   */\n      0x41\n        /* \"#utility.yul\":707:708   */\n      0x04\n        /* \"#utility.yul\":700:715   */\n      mstore\n        /* \"#utility.yul\":734:738   */\n      0x24\n        /* \"#utility.yul\":731:732   */\n      0x00\n        /* \"#utility.yul\":724:739   */\n      revert\n        /* \"#utility.yul\":751:1032   */\n    tag_30:\n        /* \"#utility.yul\":834:861   */\n      tag_54\n        /* \"#utility.yul\":856:860   */\n      dup3\n        /* \"#utility.yul\":834:861   */\n      tag_28\n      jump\t// in\n    tag_54:\n        /* \"#utility.yul\":826:832   */\n      dup2\n        /* \"#utility.yul\":822:862   */\n      add\n        /* \"#utility.yul\":964:970   */\n      dup2\n        /* \"#utility.yul\":952:962   */\n      dup2\n        /* \"#utility.yul\":949:971   */\n      lt\n        /* \"#utility.yul\":928:946   */\n      0xffffffffffffffff\n        /* \"#utility.yul\":916:926   */\n      dup3\n        /* \"#utility.yul\":913:947   */\n      gt\n        /* \"#utility.yul\":910:972   */\n      or\n        /* \"#utility.yul\":907:995   */\n      iszero\n      tag_55\n      jumpi\n        /* \"#utility.yul\":975:993   */\n      tag_56\n      tag_29\n      jump\t// in\n    tag_56:\n        /* \"#utility.yul\":907:995   */\n    tag_55:\n        /* \"#utility.yul\":1015:1025   */\n      dup1\n        /* \"#utility.yul\":1011:1013   */\n      0x40\n        /* \"#utility.yul\":1004:1026   */\n      mstore\n        /* \"#utility.yul\":794:1032   */\n      pop\n        /* \"#utility.yul\":751:1032   */\n      pop\n      pop\n      jump\t// out\n        /* \"#utility.yul\":1038:1167   */\n    tag_31:\n        /* \"#utility.yul\":1072:1078   */\n      0x00\n        /* \"#utility.yul\":1099:1119   */\n      tag_58\n      tag_24\n      jump\t// in\n    tag_58:\n        /* \"#utility.yul\":1089:1119   */\n      swap1\n      pop\n        /* \"#utility.yul\":1128:1161   */\n      tag_59\n        /* \"#utility.yul\":1156:1160   */\n      dup3\n        /* \"#utility.yul\":1148:1154   */\n      dup3\n        /* \"#utility.yul\":1128:1161   */\n      tag_30\n      jump\t// in\n    tag_59:\n        /* \"#utility.yul\":1038:1167   */\n      swap2\n      swap1\n      pop\n      jump\t// out\n        /* \"#utility.yul\":1296:1422   */\n    tag_33:\n        /* \"#utility.yul\":1333:1340   */\n      0x00\n        /* \"#utility.yul\":1373:1415   */\n      0xffffffffffffffffffffffffffffffffffffffff\n        /* \"#utility.yul\":1366:1371   */\n      dup3\n        /* \"#utility.yul\":1362:1416   */\n      and\n        /* \"#utility.yul\":1351:1416   */\n      swap1\n      pop\n        /* \"#utility.yul\":1296:1422   */\n      swap2\n      swap1\n      pop\n      jump\t// out\n        /* \"#utility.yul\":1428:1524   */\n    tag_34:\n        /* \"#utility.yul\":1465:1472   */\n      0x00\n        /* \"#utility.yul\":1494:1518   */\n      tag_63\n        /* \"#utility.yul\":1512:1517   */\n      dup3\n        /* \"#utility.yul\":1494:1518   */\n      tag_33\n      jump\t// in\n    tag_63:\n        /* \"#utility.yul\":1483:1518   */\n      swap1\n      pop\n        /* \"#utility.yul\":1428:1524   */\n      swap2\n      swap1\n      pop\n      jump\t// out\n        /* \"#utility.yul\":1530:1652   */\n    tag_35:\n        /* \"#utility.yul\":1603:1627   */\n      tag_65\n        /* \"#utility.yul\":1621:1626   */\n      dup2\n        /* \"#utility.yul\":1603:1627   */\n      tag_34\n      jump\t// in\n    tag_65:\n        /* \"#utility.yul\":1596:1601   */\n      dup2\n        /* \"#utility.yul\":1593:1628   */\n      eq\n        /* \"#utility.yul\":1583:1646   */\n      tag_66\n      jumpi\n        /* \"#utility.yul\":1642:1643   */\n      0x00\n        /* \"#utility.yul\":1639:1640   */\n      0x00\n        /* \"#utility.yul\":1632:1644   */\n      revert\n        /* \"#utility.yul\":1583:1646   */\n    tag_66:\n        /* \"#utility.yul\":1530:1652   */\n      pop\n      jump\t// out\n        /* \"#utility.yul\":1658:1797   */\n    tag_36:\n        /* \"#utility.yul\":1704:1709   */\n      0x00\n        /* \"#utility.yul\":1742:1748   */\n      dup2\n        /* \"#utility.yul\":1729:1749   */\n      calldataload\n        /* \"#utility.yul\":1720:1749   */\n      swap1\n      pop\n        /* \"#utility.yul\":1758:1791   */\n      tag_68\n        /* \"#utility.yul\":1785:1790   */\n      dup2\n        /* \"#utility.yul\":1758:1791   */\n      tag_35\n      jump\t// in\n    tag_68:\n        /* \"#utility.yul\":1658:1797   */\n      swap3\n      swap2\n      pop\n      pop\n      jump\t// out\n        /* \"#utility.yul\":1803:1880   */\n    tag_37:\n        /* \"#utility.yul\":1840:1847   */\n      0x00\n        /* \"#utility.yul\":1869:1874   */\n      dup2\n        /* \"#utility.yul\":1858:1874   */\n      swap1\n      pop\n        /* \"#utility.yul\":1803:1880   */\n      swap2\n      swap1\n      pop\n      jump\t// out\n        /* \"#utility.yul\":1886:2008   */\n    tag_38:\n        /* \"#utility.yul\":1959:1983   */\n      tag_71\n        /* \"#utility.yul\":1977:1982   */\n      dup2\n        /* \"#utility.yul\":1959:1983   */\n      tag_37\n      jump\t// in\n    tag_71:\n        /* \"#utility.yul\":1952:1957   */\n      dup2\n        /* \"#utility.yul\":1949:1984   */\n      eq\n        /* \"#utility.yul\":1939:2002   */\n      tag_72\n      jumpi\n        /* \"#utility.yul\":1998:1999   */\n      0x00\n        /* \"#utility.yul\":1995:1996   */\n      0x00\n        /* \"#utility.yul\":1988:2000   */\n      revert\n        /* \"#utility.yul\":1939:2002   */\n    tag_72:\n        /* \"#utility.yul\":1886:2008   */\n      pop\n      jump\t// out\n        /* \"#utility.yul\":2014:2153   */\n    tag_39:\n        /* \"#utility.yul\":2060:2065   */\n      0x00\n        /* \"#utility.yul\":2098:2104   */\n      dup2\n        /* \"#utility.yul\":2085:2105   */\n      calldataload\n        /* \"#utility.yul\":2076:2105   */\n      swap1\n      pop\n        /* \"#utility.yul\":2114:2147   */\n      tag_74\n        /* \"#utility.yul\":2141:2146   */\n      dup2\n        /* \"#utility.yul\":2114:2147   */\n      tag_38\n      jump\t// in\n    tag_74:\n        /* \"#utility.yul\":2014:2153   */\n      swap3\n      swap2\n      pop\n      pop\n      jump\t// out\n        /* \"#utility.yul\":2194:3095   */\n    tag_40:\n        /* \"#utility.yul\":2265:2270   */\n      0x00\n        /* \"#utility.yul\":2309:2313   */\n      0x80\n        /* \"#utility.yul\":2297:2306   */\n      dup3\n        /* \"#utility.yul\":2292:2295   */\n      dup5\n        /* \"#utility.yul\":2288:2307   */\n      sub\n        /* \"#utility.yul\":2284:2314   */\n      slt\n        /* \"#utility.yul\":2281:2398   */\n      iszero\n      tag_76\n      jumpi\n        /* \"#utility.yul\":2317:2396   */\n      tag_77\n      tag_27\n      jump\t// in\n    tag_77:\n        /* \"#utility.yul\":2281:2398   */\n    tag_76:\n        /* \"#utility.yul\":2416:2437   */\n      tag_78\n        /* \"#utility.yul\":2432:2436   */\n      0x80\n        /* \"#utility.yul\":2416:2437   */\n      tag_31\n      jump\t// in\n    tag_78:\n        /* \"#utility.yul\":2407:2437   */\n      swap1\n      pop\n        /* \"#utility.yul\":2498:2499   */\n      0x00\n        /* \"#utility.yul\":2538:2587   */\n      tag_79\n        /* \"#utility.yul\":2583:2586   */\n      dup5\n        /* \"#utility.yul\":2574:2580   */\n      dup3\n        /* \"#utility.yul\":2563:2572   */\n      dup6\n        /* \"#utility.yul\":2559:2581   */\n      add\n        /* \"#utility.yul\":2538:2587   */\n      tag_36\n      jump\t// in\n    tag_79:\n        /* \"#utility.yul\":2531:2535   */\n      0x00\n        /* \"#utility.yul\":2524:2529   */\n      dup4\n        /* \"#utility.yul\":2520:2536   */\n      add\n        /* \"#utility.yul\":2513:2588   */\n      mstore\n        /* \"#utility.yul\":2447:2599   */\n      pop\n        /* \"#utility.yul\":2660:2662   */\n      0x20\n        /* \"#utility.yul\":2701:2750   */\n      tag_80\n        /* \"#utility.yul\":2746:2749   */\n      dup5\n        /* \"#utility.yul\":2737:2743   */\n      dup3\n        /* \"#utility.yul\":2726:2735   */\n      dup6\n        /* \"#utility.yul\":2722:2744   */\n      add\n        /* \"#utility.yul\":2701:2750   */\n      tag_39\n      jump\t// in\n    tag_80:\n        /* \"#utility.yul\":2694:2698   */\n      0x20\n        /* \"#utility.yul\":2687:2692   */\n      dup4\n        /* \"#utility.yul\":2683:2699   */\n      add\n        /* \"#utility.yul\":2676:2751   */\n      mstore\n        /* \"#utility.yul\":2609:2762   */\n      pop\n        /* \"#utility.yul\":2824:2826   */\n      0x40\n        /* \"#utility.yul\":2865:2914   */\n      tag_81\n        /* \"#utility.yul\":2910:2913   */\n      dup5\n        /* \"#utility.yul\":2901:2907   */\n      dup3\n        /* \"#utility.yul\":2890:2899   */\n      dup6\n        /* \"#utility.yul\":2886:2908   */\n      add\n        /* \"#utility.yul\":2865:2914   */\n      tag_39\n      jump\t// in\n    tag_81:\n        /* \"#utility.yul\":2858:2862   */\n      0x40\n        /* \"#utility.yul\":2851:2856   */\n      dup4\n        /* \"#utility.yul\":2847:2863   */\n      add\n        /* \"#utility.yul\":2840:2915   */\n      mstore\n        /* \"#utility.yul\":2772:2926   */\n      pop\n        /* \"#utility.yul\":2986:2988   */\n      0x60\n        /* \"#utility.yul\":3027:3076   */\n      tag_82\n        /* \"#utility.yul\":3072:3075   */\n      dup5\n        /* \"#utility.yul\":3063:3069   */\n      dup3\n        /* \"#utility.yul\":3052:3061   */\n      dup6\n        /* \"#utility.yul\":3048:3070   */\n      add\n        /* \"#utility.yul\":3027:3076   */\n      tag_39\n      jump\t// in\n    tag_82:\n        /* \"#utility.yul\":3020:3024   */\n      0x60\n        /* \"#utility.yul\":3013:3018   */\n      dup4\n        /* \"#utility.yul\":3009:3025   */\n      add\n        /* \"#utility.yul\":3002:3077   */\n      mstore\n        /* \"#utility.yul\":2936:3088   */\n      pop\n        /* \"#utility.yul\":2194:3095   */\n      swap3\n      swap2\n      pop\n      pop\n      jump\t// out\n        /* \"#utility.yul\":3101:3475   */\n    tag_6:\n        /* \"#utility.yul\":3182:3188   */\n      0x00\n        /* \"#utility.yul\":3231:3234   */\n      0x80\n        /* \"#utility.yul\":3219:3228   */\n      dup3\n        /* \"#utility.yul\":3210:3217   */\n      dup5\n        /* \"#utility.yul\":3206:3229   */\n      sub\n        /* \"#utility.yul\":3202:3235   */\n      slt\n        /* \"#utility.yul\":3199:3319   */\n      iszero\n      tag_84\n      jumpi\n        /* \"#utility.yul\":3238:3317   */\n      tag_85\n      tag_25\n      jump\t// in\n    tag_85:\n        /* \"#utility.yul\":3199:3319   */\n    tag_84:\n        /* \"#utility.yul\":3358:3359   */\n      0x00\n        /* \"#utility.yul\":3383:3458   */\n      tag_86\n        /* \"#utility.yul\":3450:3457   */\n      dup5\n        /* \"#utility.yul\":3441:3447   */\n      dup3\n        /* \"#utility.yul\":3430:3439   */\n      dup6\n        /* \"#utility.yul\":3426:3448   */\n      add\n        /* \"#utility.yul\":3383:3458   */\n      tag_40\n      jump\t// in\n    tag_86:\n        /* \"#utility.yul\":3373:3458   */\n      swap2\n      pop\n        /* \"#utility.yul\":3329:3468   */\n      pop\n        /* \"#utility.yul\":3101:3475   */\n      swap3\n      swap2\n      pop\n      pop\n      jump\t// out\n        /* \"#utility.yul\":3481:3597   */\n    tag_41:\n        /* \"#utility.yul\":3566:3590   */\n      tag_88\n        /* \"#utility.yul\":3584:3589   */\n      dup2\n        /* \"#utility.yul\":3566:3590   */\n      tag_34\n      jump\t// in\n    tag_88:\n        /* \"#utility.yul\":3561:3564   */\n      dup3\n        /* \"#utility.yul\":3554:3591   */\n      mstore\n        /* \"#utility.yul\":3481:3597   */\n      pop\n      pop\n      jump\t// out\n        /* \"#utility.yul\":3603:3719   */\n    tag_42:\n        /* \"#utility.yul\":3688:3712   */\n      tag_90\n        /* \"#utility.yul\":3706:3711   */\n      dup2\n        /* \"#utility.yul\":3688:3712   */\n      tag_37\n      jump\t// in\n    tag_90:\n        /* \"#utility.yul\":3683:3686   */\n      dup3\n        /* \"#utility.yul\":3676:3713   */\n      mstore\n        /* \"#utility.yul\":3603:3719   */\n      pop\n      pop\n      jump\t// out\n        /* \"#utility.yul\":3791:4688   */\n    tag_43:\n        /* \"#utility.yul\":3940:3944   */\n      0x80\n        /* \"#utility.yul\":3935:3938   */\n      dup3\n        /* \"#utility.yul\":3931:3945   */\n      add\n        /* \"#utility.yul\":4029:4033   */\n      0x00\n        /* \"#utility.yul\":4022:4027   */\n      dup3\n        /* \"#utility.yul\":4018:4034   */\n      add\n        /* \"#utility.yul\":4012:4035   */\n      mload\n        /* \"#utility.yul\":4048:4119   */\n      tag_92\n        /* \"#utility.yul\":4113:4117   */\n      0x00\n        /* \"#utility.yul\":4108:4111   */\n      dup6\n        /* \"#utility.yul\":4104:4118   */\n      add\n        /* \"#utility.yul\":4090:4102   */\n      dup3\n        /* \"#utility.yul\":4048:4119   */\n      tag_41\n      jump\t// in\n    tag_92:\n        /* \"#utility.yul\":3955:4129   */\n      pop\n        /* \"#utility.yul\":4213:4217   */\n      0x20\n        /* \"#utility.yul\":4206:4211   */\n      dup3\n        /* \"#utility.yul\":4202:4218   */\n      add\n        /* \"#utility.yul\":4196:4219   */\n      mload\n        /* \"#utility.yul\":4232:4303   */\n      tag_93\n        /* \"#utility.yul\":4297:4301   */\n      0x20\n        /* \"#utility.yul\":4292:4295   */\n      dup6\n        /* \"#utility.yul\":4288:4302   */\n      add\n        /* \"#utility.yul\":4274:4286   */\n      dup3\n        /* \"#utility.yul\":4232:4303   */\n      tag_42\n      jump\t// in\n    tag_93:\n        /* \"#utility.yul\":4139:4313   */\n      pop\n        /* \"#utility.yul\":4398:4402   */\n      0x40\n        /* \"#utility.yul\":4391:4396   */\n      dup3\n        /* \"#utility.yul\":4387:4403   */\n      add\n        /* \"#utility.yul\":4381:4404   */\n      mload\n        /* \"#utility.yul\":4417:4488   */\n      tag_94\n        /* \"#utility.yul\":4482:4486   */\n      0x40\n        /* \"#utility.yul\":4477:4480   */\n      dup6\n        /* \"#utility.yul\":4473:4487   */\n      add\n        /* \"#utility.yul\":4459:4471   */\n      dup3\n        /* \"#utility.yul\":4417:4488   */\n      tag_42\n      jump\t// in\n    tag_94:\n        /* \"#utility.yul\":4323:4498   */\n      pop\n        /* \"#utility.yul\":4581:4585   */\n      0x60\n        /* \"#utility.yul\":4574:4579   */\n      dup3\n        /* \"#utility.yul\":4570:4586   */\n      add\n        /* \"#utility.yul\":4564:4587   */\n      mload\n        /* \"#utility.yul\":4600:4671   */\n      tag_95\n        /* \"#utility.yul\":4665:4669   */\n      0x60\n        /* \"#utility.yul\":4660:4663   */\n      dup6\n        /* \"#utility.yul\":4656:4670   */\n      add\n        /* \"#utility.yul\":4642:4654   */\n      dup3\n        /* \"#utility.yul\":4600:4671   */\n      tag_42\n      jump\t// in\n    tag_95:\n        /* \"#utility.yul\":4508:4681   */\n      pop\n        /* \"#utility.yul\":3909:4688   */\n      pop\n        /* \"#utility.yul\":3791:4688   */\n      pop\n      pop\n      jump\t// out\n        /* \"#utility.yul\":4694:5021   */\n    tag_9:\n        /* \"#utility.yul\":4839:4843   */\n      0x00\n        /* \"#utility.yul\":4877:4880   */\n      0x80\n        /* \"#utility.yul\":4866:4875   */\n      dup3\n        /* \"#utility.yul\":4862:4881   */\n      add\n        /* \"#utility.yul\":4854:4881   */\n      swap1\n      pop\n        /* \"#utility.yul\":4891:5014   */\n      tag_97\n        /* \"#utility.yul\":5011:5012   */\n      0x00\n        /* \"#utility.yul\":5000:5009   */\n      dup4\n        /* \"#utility.yul\":4996:5013   */\n      add\n        /* \"#utility.yul\":4987:4993   */\n      dup5\n        /* \"#utility.yul\":4891:5014   */\n      tag_43\n      jump\t// in\n    tag_97:\n        /* \"#utility.yul\":4694:5021   */\n      swap3\n      swap2\n      pop\n      pop\n      jump\t// out\n        /* \"#utility.yul\":5027:5153   */\n    tag_44:\n        /* \"#utility.yul\":5122:5146   */\n      tag_99\n        /* \"#utility.yul\":5140:5145   */\n      dup2\n        /* \"#utility.yul\":5122:5146   */\n      tag_37\n      jump\t// in\n    tag_99:\n        /* \"#utility.yul\":5117:5120   */\n      dup3\n        /* \"#utility.yul\":5110:5147   */\n      mstore\n        /* \"#utility.yul\":5027:5153   */\n      pop\n      pop\n      jump\t// out\n        /* \"#utility.yul\":5159:5397   */\n    tag_14:\n        /* \"#utility.yul\":5260:5264   */\n      0x00\n        /* \"#utility.yul\":5298:5300   */\n      0x20\n        /* \"#utility.yul\":5287:5296   */\n      dup3\n        /* \"#utility.yul\":5283:5301   */\n      add\n        /* \"#utility.yul\":5275:5301   */\n      swap1\n      pop\n        /* \"#utility.yul\":5311:5390   */\n      tag_101\n        /* \"#utility.yul\":5387:5388   */\n      0x00\n        /* \"#utility.yul\":5376:5385   */\n      dup4\n        /* \"#utility.yul\":5372:5389   */\n      add\n        /* \"#utility.yul\":5363:5369   */\n      dup5\n        /* \"#utility.yul\":5311:5390   */\n      tag_44\n      jump\t// in\n    tag_101:\n        /* \"#utility.yul\":5159:5397   */\n      swap3\n      swap2\n      pop\n      pop\n      jump\t// out\n        /* \"#utility.yul\":5403:5583   */\n    tag_45:\n        /* \"#utility.yul\":5451:5528   */\n      0x4e487b7100000000000000000000000000000000000000000000000000000000\n        /* \"#utility.yul\":5448:5449   */\n      0x00\n        /* \"#utility.yul\":5441:5529   */\n      mstore\n        /* \"#utility.yul\":5548:5552   */\n      0x11\n        /* \"#utility.yul\":5545:5546   */\n      0x04\n        /* \"#utility.yul\":5538:5553   */\n      mstore\n        /* \"#utility.yul\":5572:5576   */\n      0x24\n        /* \"#utility.yul\":5569:5570   */\n      0x00\n        /* \"#utility.yul\":5562:5577   */\n      revert\n        /* \"#utility.yul\":5589:5760   */\n    tag_19:\n        /* \"#utility.yul\":5628:5631   */\n      0x00\n        /* \"#utility.yul\":5651:5675   */\n      tag_104\n        /* \"#utility.yul\":5669:5674   */\n      dup3\n        /* \"#utility.yul\":5651:5675   */\n      tag_37\n      jump\t// in\n    tag_104:\n        /* \"#utility.yul\":5642:5675   */\n      swap2\n      pop\n        /* \"#utility.yul\":5697:5701   */\n      0x00\n        /* \"#utility.yul\":5690:5695   */\n      dup3\n        /* \"#utility.yul\":5687:5702   */\n      sub\n        /* \"#utility.yul\":5684:5725   */\n      tag_105\n      jumpi\n        /* \"#utility.yul\":5705:5723   */\n      tag_106\n      tag_45\n      jump\t// in\n    tag_106:\n        /* \"#utility.yul\":5684:5725   */\n    tag_105:\n        /* \"#utility.yul\":5752:5753   */\n      0x01\n        /* \"#utility.yul\":5745:5750   */\n      dup3\n        /* \"#utility.yul\":5741:5754   */\n      sub\n        /* \"#utility.yul\":5734:5754   */\n      swap1\n      pop\n        /* \"#utility.yul\":5589:5760   */\n      swap2\n      swap1\n      pop\n      jump\t// out\n        /* \"#utility.yul\":5766:6176   */\n    tag_22:\n        /* \"#utility.yul\":5806:5813   */\n      0x00\n        /* \"#utility.yul\":5829:5849   */\n      tag_108\n        /* \"#utility.yul\":5847:5848   */\n      dup3\n        /* \"#utility.yul\":5829:5849   */\n      tag_37\n      jump\t// in\n    tag_108:\n        /* \"#utility.yul\":5824:5849   */\n      swap2\n      pop\n        /* \"#utility.yul\":5863:5883   */\n      tag_109\n        /* \"#utility.yul\":5881:5882   */\n      dup4\n        /* \"#utility.yul\":5863:5883   */\n      tag_37\n      jump\t// in\n    tag_109:\n        /* \"#utility.yul\":5858:5883   */\n      swap3\n      pop\n        /* \"#utility.yul\":5918:5919   */\n      dup3\n        /* \"#utility.yul\":5915:5916   */\n      dup3\n        /* \"#utility.yul\":5911:5920   */\n      mul\n        /* \"#utility.yul\":5940:5970   */\n      tag_110\n        /* \"#utility.yul\":5958:5969   */\n      dup2\n        /* \"#utility.yul\":5940:5970   */\n      tag_37\n      jump\t// in\n    tag_110:\n        /* \"#utility.yul\":5929:5970   */\n      swap2\n      pop\n        /* \"#utility.yul\":6119:6120   */\n      dup3\n        /* \"#utility.yul\":6110:6117   */\n      dup3\n        /* \"#utility.yul\":6106:6121   */\n      div\n        /* \"#utility.yul\":6103:6104   */\n      dup5\n        /* \"#utility.yul\":6100:6122   */\n      eq\n        /* \"#utility.yul\":6080:6081   */\n      dup4\n        /* \"#utility.yul\":6073:6082   */\n      iszero\n        /* \"#utility.yul\":6053:6136   */\n      or\n        /* \"#utility.yul\":6030:6169   */\n      tag_111\n      jumpi\n        /* \"#utility.yul\":6149:6167   */\n      tag_112\n      tag_45\n      jump\t// in\n    tag_112:\n        /* \"#utility.yul\":6030:6169   */\n    tag_111:\n        /* \"#utility.yul\":5814:6176   */\n      pop\n        /* \"#utility.yul\":5766:6176   */\n      swap3\n      swap2\n      pop\n      pop\n      jump\t// out\n\n    auxdata: 0xa2646970667358221220abf835210f5bad81d89439d4a59c77790f68ef4e2210b392b0aa32b62a26c72564736f6c634300081e0033\n}\n",
				"bytecode": {
					"linkReferences": {},
					"object": "61047661004d600b8282823980515f1a6073146041577f4e487b71000000000000000000000000000000000000000000000000000000005f525f60045260245ffd5b305f52607381538281f3fe730000000000000000000000000000000000000000301460806040526004361061003f575f3560e01c806319b0e7a314610043578063b54fa6c314610073575b5f5ffd5b61005d600480360381019061005891906102ce565b6100a3565b60405161006a919061036a565b60405180910390f35b61008d600480360381019061008891906102ce565b6100c9565b60405161009a9190610392565b60405180910390f35b6100ab6100f9565b8160200180518091906100bd906103d8565b81525050819050919050565b5f5f8260600151633b9aca006100df91906103ff565b9050826040015181116100f0575f5ffd5b80915050919050565b60405180608001604052805f73ffffffffffffffffffffffffffffffffffffffff1681526020015f81526020015f81526020015f81525090565b5f604051905090565b5f5ffd5b5f5ffd5b5f601f19601f8301169050919050565b7f4e487b71000000000000000000000000000000000000000000000000000000005f52604160045260245ffd5b61018a82610144565b810181811067ffffffffffffffff821117156101a9576101a8610154565b5b80604052505050565b5f6101bb610133565b90506101c78282610181565b919050565b5f73ffffffffffffffffffffffffffffffffffffffff82169050919050565b5f6101f5826101cc565b9050919050565b610205816101eb565b811461020f575f5ffd5b50565b5f81359050610220816101fc565b92915050565b5f819050919050565b61023881610226565b8114610242575f5ffd5b50565b5f813590506102538161022f565b92915050565b5f6080828403121561026e5761026d610140565b5b61027860806101b2565b90505f61028784828501610212565b5f83015250602061029a84828501610245565b60208301525060406102ae84828501610245565b60408301525060606102c284828501610245565b60608301525092915050565b5f608082840312156102e3576102e261013c565b5b5f6102f084828501610259565b91505092915050565b610302816101eb565b82525050565b61031181610226565b82525050565b608082015f82015161032b5f8501826102f9565b50602082015161033e6020850182610308565b5060408201516103516040850182610308565b5060608201516103646060850182610308565b50505050565b5f60808201905061037d5f830184610317565b92915050565b61038c81610226565b82525050565b5f6020820190506103a55f830184610383565b92915050565b7f4e487b71000000000000000000000000000000000000000000000000000000005f52601160045260245ffd5b5f6103e282610226565b91505f82036103f4576103f36103ab565b5b600182039050919050565b5f61040982610226565b915061041483610226565b925082820261042281610226565b91508282048414831517610439576104386103ab565b5b509291505056fea2646970667358221220abf835210f5bad81d89439d4a59c77790f68ef4e2210b392b0aa32b62a26c72564736f6c634300081e0033",
					"opcodes": "PUSH2 0x476 PUSH2 0x4D PUSH1 0xB DUP3 DUP3 DUP3 CODECOPY DUP1 MLOAD PUSH0 BYTE PUSH1 0x73 EQ PUSH1 0x41 JUMPI PUSH32 0x4E487B7100000000000000000000000000000000000000000000000000000000 PUSH0 MSTORE PUSH0 PUSH1 0x4 MSTORE PUSH1 0x24 PUSH0 REVERT JUMPDEST ADDRESS PUSH0 MSTORE PUSH1 0x73 DUP2 MSTORE8 DUP3 DUP2 RETURN INVALID PUSH20 0x0 ADDRESS EQ PUSH1 0x80 PUSH1 0x40 MSTORE PUSH1 0x4 CALLDATASIZE LT PUSH2 0x3F JUMPI PUSH0 CALLDATALOAD PUSH1 0xE0 SHR DUP1 PUSH4 0x19B0E7A3 EQ PUSH2 0x43 JUMPI DUP1 PUSH4 0xB54FA6C3 EQ PUSH2 0x73 JUMPI JUMPDEST PUSH0 PUSH0 REVERT JUMPDEST PUSH2 0x5D PUSH1 0x4 DUP1 CALLDATASIZE SUB DUP2 ADD SWAP1 PUSH2 0x58 SWAP2 SWAP1 PUSH2 0x2CE JUMP JUMPDEST PUSH2 0xA3 JUMP JUMPDEST PUSH1 0x40 MLOAD PUSH2 0x6A SWAP2 SWAP1 PUSH2 0x36A JUMP JUMPDEST PUSH1 0x40 MLOAD DUP1 SWAP2 SUB SWAP1 RETURN JUMPDEST PUSH2 0x8D PUSH1 0x4 DUP1 CALLDATASIZE SUB DUP2 ADD SWAP1 PUSH2 0x88 SWAP2 SWAP1 PUSH2 0x2CE JUMP JUMPDEST PUSH2 0xC9 JUMP JUMPDEST PUSH1 0x40 MLOAD PUSH2 0x9A SWAP2 SWAP1 PUSH2 0x392 JUMP JUMPDEST PUSH1 0x40 MLOAD DUP1 SWAP2 SUB SWAP1 RETURN JUMPDEST PUSH2 0xAB PUSH2 0xF9 JUMP JUMPDEST DUP2 PUSH1 0x20 ADD DUP1 MLOAD DUP1 SWAP2 SWAP1 PUSH2 0xBD SWAP1 PUSH2 0x3D8 JUMP JUMPDEST DUP2 MSTORE POP POP DUP2 SWAP1 POP SWAP2 SWAP1 POP JUMP JUMPDEST PUSH0 PUSH0 DUP3 PUSH1 0x60 ADD MLOAD PUSH4 0x3B9ACA00 PUSH2 0xDF SWAP2 SWAP1 PUSH2 0x3FF JUMP JUMPDEST SWAP1 POP DUP3 PUSH1 0x40 ADD MLOAD DUP2 GT PUSH2 0xF0 JUMPI PUSH0 PUSH0 REVERT JUMPDEST DUP1 SWAP2 POP POP SWAP2 SWAP1 POP JUMP JUMPDEST PUSH1 0x40 MLOAD DUP1 PUSH1 0x80 ADD PUSH1 0x40 MSTORE DUP1 PUSH0 PUSH20 0xFFFFFFFFFFFFFFFFFFFFFFFFFFFFFFFFFFFFFFFF AND DUP2 MSTORE PUSH1 0x20 ADD PUSH0 DUP2 MSTORE PUSH1 0x20 ADD PUSH0 DUP2 MSTORE PUSH1 0x20 ADD PUSH0 DUP2 MSTORE POP SWAP1 JUMP JUMPDEST PUSH0 PUSH1 0x40 MLOAD SWAP1 POP SWAP1 JUMP JUMPDEST PUSH0 PUSH0 REVERT JUMPDEST PUSH0 PUSH0 REVERT JUMPDEST PUSH0 PUSH1 0x1F NOT PUSH1 0x1F DUP4 ADD AND SWAP1 POP SWAP2 SWAP1 POP JUMP JUMPDEST PUSH32 0x4E487B7100000000000000000000000000000000000000000000000000000000 PUSH0 MSTORE PUSH1 0x41 PUSH1 0x4 MSTORE PUSH1 0x24 PUSH0 REVERT JUMPDEST PUSH2 0x18A DUP3 PUSH2 0x144 JUMP JUMPDEST DUP2 ADD DUP2 DUP2 LT PUSH8 0xFFFFFFFFFFFFFFFF DUP3 GT OR ISZERO PUSH2 0x1A9 JUMPI PUSH2 0x1A8 PUSH2 0x154 JUMP JUMPDEST JUMPDEST DUP1 PUSH1 0x40 MSTORE POP POP POP JUMP JUMPDEST PUSH0 PUSH2 0x1BB PUSH2 0x133 JUMP JUMPDEST SWAP1 POP PUSH2 0x1C7 DUP3 DUP3 PUSH2 0x181 JUMP JUMPDEST SWAP2 SWAP1 POP JUMP JUMPDEST PUSH0 PUSH20 0xFFFFFFFFFFFFFFFFFFFFFFFFFFFFFFFFFFFFFFFF DUP3 AND SWAP1 POP SWAP2 SWAP1 POP JUMP JUMPDEST PUSH0 PUSH2 0x1F5 DUP3 PUSH2 0x1CC JUMP JUMPDEST SWAP1 POP SWAP2 SWAP1 POP JUMP JUMPDEST PUSH2 0x205 DUP2 PUSH2 0x1EB JUMP JUMPDEST DUP2 EQ PUSH2 0x20F JUMPI PUSH0 PUSH0 REVERT JUMPDEST POP JUMP JUMPDEST PUSH0 DUP2 CALLDATALOAD SWAP1 POP PUSH2 0x220 DUP2 PUSH2 0x1FC JUMP JUMPDEST SWAP3 SWAP2 POP POP JUMP JUMPDEST PUSH0 DUP2 SWAP1 POP SWAP2 SWAP1 POP JUMP JUMPDEST PUSH2 0x238 DUP2 PUSH2 0x226 JUMP JUMPDEST DUP2 EQ PUSH2 0x242 JUMPI PUSH0 PUSH0 REVERT JUMPDEST POP JUMP JUMPDEST PUSH0 DUP2 CALLDATALOAD SWAP1 POP PUSH2 0x253 DUP2 PUSH2 0x22F JUMP JUMPDEST SWAP3 SWAP2 POP POP JUMP JUMPDEST PUSH0 PUSH1 0x80 DUP3 DUP5 SUB SLT ISZERO PUSH2 0x26E JUMPI PUSH2 0x26D PUSH2 0x140 JUMP JUMPDEST JUMPDEST PUSH2 0x278 PUSH1 0x80 PUSH2 0x1B2 JUMP JUMPDEST SWAP1 POP PUSH0 PUSH2 0x287 DUP5 DUP3 DUP6 ADD PUSH2 0x212 JUMP JUMPDEST PUSH0 DUP4 ADD MSTORE POP PUSH1 0x20 PUSH2 0x29A DUP5 DUP3 DUP6 ADD PUSH2 0x245 JUMP JUMPDEST PUSH1 0x20 DUP4 ADD MSTORE POP PUSH1 0x40 PUSH2 0x2AE DUP5 DUP3 DUP6 ADD PUSH2 0x245 JUMP JUMPDEST PUSH1 0x40 DUP4 ADD MSTORE POP PUSH1 0x60 PUSH2 0x2C2 DUP5 DUP3 DUP6 ADD PUSH2 0x245 JUMP JUMPDEST PUSH1 0x60 DUP4 ADD MSTORE POP SWAP3 SWAP2 POP POP JUMP JUMPDEST PUSH0 PUSH1 0x80 DUP3 DUP5 SUB SLT ISZERO PUSH2 0x2E3 JUMPI PUSH2 0x2E2 PUSH2 0x13C JUMP JUMPDEST JUMPDEST PUSH0 PUSH2 0x2F0 DUP5 DUP3 DUP6 ADD PUSH2 0x259 JUMP JUMPDEST SWAP2 POP POP SWAP3 SWAP2 POP POP JUMP JUMPDEST PUSH2 0x302 DUP2 PUSH2 0x1EB JUMP JUMPDEST DUP3 MSTORE POP POP JUMP JUMPDEST PUSH2 0x311 DUP2 PUSH2 0x226 JUMP JUMPDEST DUP3 MSTORE POP POP JUMP JUMPDEST PUSH1 0x80 DUP3 ADD PUSH0 DUP3 ADD MLOAD PUSH2 0x32B PUSH0 DUP6 ADD DUP3 PUSH2 0x2F9 JUMP JUMPDEST POP PUSH1 0x20 DUP3 ADD MLOAD PUSH2 0x33E PUSH1 0x20 DUP6 ADD DUP3 PUSH2 0x308 JUMP JUMPDEST POP PUSH1 0x40 DUP3 ADD MLOAD PUSH2 0x351 PUSH1 0x40 DUP6 ADD DUP3 PUSH2 0x308 JUMP JUMPDEST POP PUSH1 0x60 DUP3 ADD MLOAD PUSH2 0x364 PUSH1 0x60 DUP6 ADD DUP3 PUSH2 0x308 JUMP JUMPDEST POP POP POP POP JUMP JUMPDEST PUSH0 PUSH1 0x80 DUP3 ADD SWAP1 POP PUSH2 0x37D PUSH0 DUP4 ADD DUP5 PUSH2 0x317 JUMP JUMPDEST SWAP3 SWAP2 POP POP JUMP JUMPDEST PUSH2 0x38C DUP2 PUSH2 0x226 JUMP JUMPDEST DUP3 MSTORE POP POP JUMP JUMPDEST PUSH0 PUSH1 0x20 DUP3 ADD SWAP1 POP PUSH2 0x3A5 PUSH0 DUP4 ADD DUP5 PUSH2 0x383 JUMP JUMPDEST SWAP3 SWAP2 POP POP JUMP JUMPDEST PUSH32 0x4E487B7100000000000000000000000000000000000000000000000000000000 PUSH0 MSTORE PUSH1 0x11 PUSH1 0x4 MSTORE PUSH1 0x24 PUSH0 REVERT JUMPDEST PUSH0 PUSH2 0x3E2 DUP3 PUSH2 0x226 JUMP JUMPDEST SWAP2 POP PUSH0 DUP3 SUB PUSH2 0x3F4 JUMPI PUSH2 0x3F3 PUSH2 0x3AB JUMP JUMPDEST JUMPDEST PUSH1 0x1 DUP3 SUB SWAP1 POP SWAP2 SWAP1 POP JUMP JUMPDEST PUSH0 PUSH2 0x409 DUP3 PUSH2 0x226 JUMP JUMPDEST SWAP2 POP PUSH2 0x414 DUP4 PUSH2 0x226 JUMP JUMPDEST SWAP3 POP DUP3 DUP3 MUL PUSH2 0x422 DUP2 PUSH2 0x226 JUMP JUMPDEST SWAP2 POP DUP3 DUP3 DIV DUP5 EQ DUP4 ISZERO OR PUSH2 0x439 JUMPI PUSH2 0x438 PUSH2 0x3AB JUMP JUMPDEST JUMPDEST POP SWAP3 SWAP2 POP POP JUMP INVALID LOG2 PUSH5 0x6970667358 0x22 SLT KECCAK256 0xAB EXTCALL CALLDATALOAD 0x21 0xF JUMPDEST 0xAD DUP2 0xD8 SWAP5 CODECOPY 0xD4 0xA5 SWAP13 PUSH24 0x790F68EF4E2210B392B0AA32B62A26C72564736F6C634300 ADDMOD 0x1E STOP CALLER "
				},
				"gasEstimates": {
					"creation": {
						"codeDepositCost": "228400",
						"executionCost": "295",
						"totalCost": "228695"
					},
					"external": {
						"calculateUpgraid(ResourceUtils.Player)": "infinite",
						"manageEnergy(ResourceUtils.Player)": "infinite"
					}
				},
				"methodIdentifiers": {
					"calculateUpgraid(ResourceUtils.Player)": "b54fa6c3",
					"manageEnergy(ResourceUtils.Player)": "19b0e7a3"
				}
			},
			"storageLayout": {
				"storage": [],
				"types": null
			},
			"userdoc": {
				"kind": "user",
				"methods": {},
				"version": 1
			}
		}
	}
}