{
  "_format": "hh-sol-artifact-1",
  "contractName": "Forum",
  "sourceName": "contracts/forum.sol",
  "abi": [
    {
      "inputs": [],
      "stateMutability": "nonpayable",
      "type": "constructor"
    },
    {
      "anonymous": false,
      "inputs": [
        {
          "indexed": true,
          "internalType": "address",
          "name": "author",
          "type": "address"
        },
        {
          "indexed": false,
          "internalType": "uint256",
          "name": "timestamp",
          "type": "uint256"
        }
      ],
      "name": "PostCreated",
      "type": "event"
    },
    {
      "anonymous": false,
      "inputs": [
        {
          "indexed": true,
          "internalType": "uint256",
          "name": "timestamp",
          "type": "uint256"
        },
        {
          "indexed": false,
          "internalType": "uint256",
          "name": "post_quantity",
          "type": "uint256"
        }
      ],
      "name": "PostsCleared",
      "type": "event"
    },
    {
      "inputs": [],
      "name": "clear_posts",
      "outputs": [],
      "stateMutability": "nonpayable",
      "type": "function"
    },
    {
      "inputs": [
        {
          "internalType": "string",
          "name": "message",
          "type": "string"
        }
      ],
      "name": "create_post",
      "outputs": [],
      "stateMutability": "nonpayable",
      "type": "function"
    },
    {
      "inputs": [
        {
          "internalType": "uint256",
          "name": "postIndex",
          "type": "uint256"
        }
      ],
      "name": "deletePost",
      "outputs": [],
      "stateMutability": "nonpayable",
      "type": "function"
    },
    {
      "inputs": [
        {
          "internalType": "address",
          "name": "author",
          "type": "address"
        }
      ],
      "name": "getPostsByAuthor",
      "outputs": [
        {
          "components": [
            {
              "internalType": "string",
              "name": "message",
              "type": "string"
            },
            {
              "internalType": "address",
              "name": "author",
              "type": "address"
            },
            {
              "internalType": "uint256",
              "name": "timestamp",
              "type": "uint256"
            },
            {
              "internalType": "uint256",
              "name": "like",
              "type": "uint256"
            }
          ],
          "internalType": "struct Forum.Post[]",
          "name": "",
          "type": "tuple[]"
        }
      ],
      "stateMutability": "view",
      "type": "function"
    },
    {
      "inputs": [
        {
          "internalType": "uint256",
          "name": "idx",
          "type": "uint256"
        }
      ],
      "name": "get_post",
      "outputs": [
        {
          "components": [
            {
              "internalType": "string",
              "name": "message",
              "type": "string"
            },
            {
              "internalType": "address",
              "name": "author",
              "type": "address"
            },
            {
              "internalType": "uint256",
              "name": "timestamp",
              "type": "uint256"
            },
            {
              "internalType": "uint256",
              "name": "like",
              "type": "uint256"
            }
          ],
          "internalType": "struct Forum.Post",
          "name": "",
          "type": "tuple"
        }
      ],
      "stateMutability": "view",
      "type": "function"
    },
    {
      "inputs": [],
      "name": "get_posts",
      "outputs": [
        {
          "components": [
            {
              "internalType": "string",
              "name": "message",
              "type": "string"
            },
            {
              "internalType": "address",
              "name": "author",
              "type": "address"
            },
            {
              "internalType": "uint256",
              "name": "timestamp",
              "type": "uint256"
            },
            {
              "internalType": "uint256",
              "name": "like",
              "type": "uint256"
            }
          ],
          "internalType": "struct Forum.Post[]",
          "name": "",
          "type": "tuple[]"
        }
      ],
      "stateMutability": "view",
      "type": "function"
    },
    {
      "inputs": [
        {
          "internalType": "uint256",
          "name": "postIndex",
          "type": "uint256"
        }
      ],
      "name": "like",
      "outputs": [],
      "stateMutability": "nonpayable",
      "type": "function"
    }
  ],
  "bytecode": "0x6080604052348015600f57600080fd5b5033600260006101000a81548173ffffffffffffffffffffffffffffffffffffffff021916908373ffffffffffffffffffffffffffffffffffffffff160217905550611a18806100606000396000f3fe608060405234801561001057600080fd5b506004361061007d5760003560e01c80637c6a82231161005b5780637c6a8223146100d8578063d17a0adf146100f4578063e82935da14610112578063f4ab24991461012e5761007d565b8063094cd5ee146100825780632850ab7d1461009e57806374d6f650146100ce575b600080fd5b61009c60048036038101906100979190610ea5565b61015e565b005b6100b860048036038101906100b39190610ea5565b6103af565b6040516100c59190611015565b60405180910390f35b6100d661052e565b005b6100f260048036038101906100ed919061116c565b61060b565b005b6100fc610732565b60405161010991906112da565b60405180910390f35b61012c60048036038101906101279190610ea5565b61088d565b005b61014860048036038101906101439190611328565b610a48565b60405161015591906112da565b60405180910390f35b336000805b6001805490508110156101fe578273ffffffffffffffffffffffffffffffffffffffff166001828154811061019b5761019a611355565b5b906000526020600020906004020160010160009054906101000a900473ffffffffffffffffffffffffffffffffffffffff1673ffffffffffffffffffffffffffffffffffffffff16036101f157600191506101fe565b8080600101915050610163565b508061023f576040517f08c379a0000000000000000000000000000000000000000000000000000000008152600401610236906113e1565b60405180910390fd5b82600180549050811061025157600080fd5b60018080805490506102639190611430565b8154811061027457610273611355565b5b90600052602060002090600402016001858154811061029657610295611355565b5b9060005260206000209060040201600082018160000190816102b89190611686565b506001820160009054906101000a900473ffffffffffffffffffffffffffffffffffffffff168160010160006101000a81548173ffffffffffffffffffffffffffffffffffffffff021916908373ffffffffffffffffffffffffffffffffffffffff160217905550600282015481600201556003820154816003015590505060018054806103495761034861176e565b5b60019003818190600052602060002090600402016000808201600061036e9190610d3e565b6001820160006101000a81549073ffffffffffffffffffffffffffffffffffffffff0219169055600282016000905560038201600090555050905550505050565b6103b7610d7e565b60018054905082106103fe576040517f08c379a00000000000000000000000000000000000000000000000000000000081526004016103f5906117e9565b60405180910390fd5b6001828154811061041257610411611355565b5b906000526020600020906004020160405180608001604052908160008201805461043b90611493565b80601f016020809104026020016040519081016040528092919081815260200182805461046790611493565b80156104b45780601f10610489576101008083540402835291602001916104b4565b820191906000526020600020905b81548152906001019060200180831161049757829003601f168201915b505050505081526020016001820160009054906101000a900473ffffffffffffffffffffffffffffffffffffffff1673ffffffffffffffffffffffffffffffffffffffff1673ffffffffffffffffffffffffffffffffffffffff168152602001600282015481526020016003820154815250509050919050565b3373ffffffffffffffffffffffffffffffffffffffff16600260009054906101000a900473ffffffffffffffffffffffffffffffffffffffff1673ffffffffffffffffffffffffffffffffffffffff16146105be576040517f08c379a00000000000000000000000000000000000000000000000000000000081526004016105b590611855565b60405180910390fd5b427f1c22fcb2fcb12bc7c8b231d418cff8fb2897e5c6add999f6d27db96a93b1e3d16001805490506040516105f39190611884565b60405180910390a2600160006106099190610dbc565b565b600160405180608001604052808381526020013373ffffffffffffffffffffffffffffffffffffffff168152602001428152602001600081525090806001815401808255809150506001900390600052602060002090600402016000909190919091506000820151816000019081610683919061189f565b5060208201518160010160006101000a81548173ffffffffffffffffffffffffffffffffffffffff021916908373ffffffffffffffffffffffffffffffffffffffff160217905550604082015181600201556060820151816003015550503373ffffffffffffffffffffffffffffffffffffffff167f09cf2578b7d56ad392e46d90ca0c5004ffca074e158a150ccc34aac58ce1b8c6426040516107279190611884565b60405180910390a250565b60606001805480602002602001604051908101604052809291908181526020016000905b82821015610884578382906000526020600020906004020160405180608001604052908160008201805461078990611493565b80601f01602080910402602001604051908101604052809291908181526020018280546107b590611493565b80156108025780601f106107d757610100808354040283529160200191610802565b820191906000526020600020905b8154815290600101906020018083116107e557829003601f168201915b505050505081526020016001820160009054906101000a900473ffffffffffffffffffffffffffffffffffffffff1673ffffffffffffffffffffffffffffffffffffffff1673ffffffffffffffffffffffffffffffffffffffff1681526020016002820154815260200160038201548152505081526020019060010190610756565b50505050905090565b80600180549050811061089f57600080fd5b60005b600180549050811015610a4357828103610a36576000803373ffffffffffffffffffffffffffffffffffffffff1673ffffffffffffffffffffffffffffffffffffffff16815260200190815260200160002060009054906101000a900460ff161561099e576001818154811061091b5761091a611355565b5b9060005260206000209060040201600301600081548092919061093d90611971565b919050555060008060003373ffffffffffffffffffffffffffffffffffffffff1673ffffffffffffffffffffffffffffffffffffffff16815260200190815260200160002060006101000a81548160ff021916908315150217905550610a31565b60016000803373ffffffffffffffffffffffffffffffffffffffff1673ffffffffffffffffffffffffffffffffffffffff16815260200190815260200160002060006101000a81548160ff02191690831515021790555060018181548110610a0957610a08611355565b5b90600052602060002090600402016003016000815480929190610a2b9061199a565b91905055505b610a43565b80806001019150506108a2565b505050565b6060600060018054905067ffffffffffffffff811115610a6b57610a6a611041565b5b604051908082528060200260200182016040528015610a995781602001602082028036833780820191505090505b5090506000805b600180549050811015610b5f578473ffffffffffffffffffffffffffffffffffffffff1660018281548110610ad857610ad7611355565b5b906000526020600020906004020160010160009054906101000a900473ffffffffffffffffffffffffffffffffffffffff1673ffffffffffffffffffffffffffffffffffffffff1603610b525780838380610b329061199a565b945081518110610b4557610b44611355565b5b6020026020010181815250505b8080600101915050610aa0565b5060008167ffffffffffffffff811115610b7c57610b7b611041565b5b604051908082528060200260200182016040528015610bb557816020015b610ba2610d7e565b815260200190600190039081610b9a5790505b50905060005b8151811015610d32576001848281518110610bd957610bd8611355565b5b602002602001015181548110610bf257610bf1611355565b5b9060005260206000209060040201604051806080016040529081600082018054610c1b90611493565b80601f0160208091040260200160405190810160405280929190818152602001828054610c4790611493565b8015610c945780601f10610c6957610100808354040283529160200191610c94565b820191906000526020600020905b815481529060010190602001808311610c7757829003601f168201915b505050505081526020016001820160009054906101000a900473ffffffffffffffffffffffffffffffffffffffff1673ffffffffffffffffffffffffffffffffffffffff1673ffffffffffffffffffffffffffffffffffffffff16815260200160028201548152602001600382015481525050828281518110610d1a57610d19611355565b5b60200260200101819052508080600101915050610bbb565b50809350505050919050565b508054610d4a90611493565b6000825580601f10610d5c5750610d7b565b601f016020900490600052602060002090810190610d7a9190610de0565b5b50565b604051806080016040528060608152602001600073ffffffffffffffffffffffffffffffffffffffff16815260200160008152602001600081525090565b5080546000825560040290600052602060002090810190610ddd9190610dfd565b50565b5b80821115610df9576000816000905550600101610de1565b5090565b5b80821115610e575760008082016000610e179190610d3e565b6001820160006101000a81549073ffffffffffffffffffffffffffffffffffffffff02191690556002820160009055600382016000905550600401610dfe565b5090565b6000604051905090565b600080fd5b600080fd5b6000819050919050565b610e8281610e6f565b8114610e8d57600080fd5b50565b600081359050610e9f81610e79565b92915050565b600060208284031215610ebb57610eba610e65565b5b6000610ec984828501610e90565b91505092915050565b600081519050919050565b600082825260208201905092915050565b60005b83811015610f0c578082015181840152602081019050610ef1565b60008484015250505050565b6000601f19601f8301169050919050565b6000610f3482610ed2565b610f3e8185610edd565b9350610f4e818560208601610eee565b610f5781610f18565b840191505092915050565b600073ffffffffffffffffffffffffffffffffffffffff82169050919050565b6000610f8d82610f62565b9050919050565b610f9d81610f82565b82525050565b610fac81610e6f565b82525050565b60006080830160008301518482036000860152610fcf8282610f29565b9150506020830151610fe46020860182610f94565b506040830151610ff76040860182610fa3565b50606083015161100a6060860182610fa3565b508091505092915050565b6000602082019050818103600083015261102f8184610fb2565b905092915050565b600080fd5b600080fd5b7f4e487b7100000000000000000000000000000000000000000000000000000000600052604160045260246000fd5b61107982610f18565b810181811067ffffffffffffffff8211171561109857611097611041565b5b80604052505050565b60006110ab610e5b565b90506110b78282611070565b919050565b600067ffffffffffffffff8211156110d7576110d6611041565b5b6110e082610f18565b9050602081019050919050565b82818337600083830152505050565b600061110f61110a846110bc565b6110a1565b90508281526020810184848401111561112b5761112a61103c565b5b6111368482856110ed565b509392505050565b600082601f83011261115357611152611037565b5b81356111638482602086016110fc565b91505092915050565b60006020828403121561118257611181610e65565b5b600082013567ffffffffffffffff8111156111a05761119f610e6a565b5b6111ac8482850161113e565b91505092915050565b600081519050919050565b600082825260208201905092915050565b6000819050602082019050919050565b600060808301600083015184820360008601526111fe8282610f29565b91505060208301516112136020860182610f94565b5060408301516112266040860182610fa3565b5060608301516112396060860182610fa3565b508091505092915050565b600061125083836111e1565b905092915050565b6000602082019050919050565b6000611270826111b5565b61127a81856111c0565b93508360208202850161128c856111d1565b8060005b858110156112c857848403895281516112a98582611244565b94506112b483611258565b925060208a01995050600181019050611290565b50829750879550505050505092915050565b600060208201905081810360008301526112f48184611265565b905092915050565b61130581610f82565b811461131057600080fd5b50565b600081359050611322816112fc565b92915050565b60006020828403121561133e5761133d610e65565b5b600061134c84828501611313565b91505092915050565b7f4e487b7100000000000000000000000000000000000000000000000000000000600052603260045260246000fd5b600082825260208201905092915050565b7f596f7520617265206e6f7420617574686f722100000000000000000000000000600082015250565b60006113cb601383611384565b91506113d682611395565b602082019050919050565b600060208201905081810360008301526113fa816113be565b9050919050565b7f4e487b7100000000000000000000000000000000000000000000000000000000600052601160045260246000fd5b600061143b82610e6f565b915061144683610e6f565b925082820390508181111561145e5761145d611401565b5b92915050565b7f4e487b7100000000000000000000000000000000000000000000000000000000600052602260045260246000fd5b600060028204905060018216806114ab57607f821691505b6020821081036114be576114bd611464565b5b50919050565b6000815490506114d381611493565b9050919050565b60008190508160005260206000209050919050565b60006020601f8301049050919050565b600082821b905092915050565b60006008830261153c7fffffffffffffffffffffffffffffffffffffffffffffffffffffffffffffffff826114ff565b61154686836114ff565b95508019841693508086168417925050509392505050565b6000819050919050565b600061158361157e61157984610e6f565b61155e565b610e6f565b9050919050565b6000819050919050565b61159d83611568565b6115b16115a98261158a565b84845461150c565b825550505050565b600090565b6115c66115b9565b6115d1818484611594565b505050565b5b818110156115f5576115ea6000826115be565b6001810190506115d7565b5050565b601f82111561163a5761160b816114da565b611614846114ef565b81016020851015611623578190505b61163761162f856114ef565b8301826115d6565b50505b505050565b600082821c905092915050565b600061165d6000198460080261163f565b1980831691505092915050565b6000611676838361164c565b9150826002028217905092915050565b81810361169457505061176c565b61169d826114c4565b67ffffffffffffffff8111156116b6576116b5611041565b5b6116c08254611493565b6116cb8282856115f9565b6000601f8311600181146116fa57600084156116e8578287015490505b6116f2858261166a565b865550611765565b601f198416611708876114da565b9650611713866114da565b60005b8281101561173b57848901548255600182019150600185019450602081019050611716565b868310156117585784890154611754601f89168261164c565b8355505b6001600288020188555050505b5050505050505b565b7f4e487b7100000000000000000000000000000000000000000000000000000000600052603160045260246000fd5b7f4e6f7420666f756e640000000000000000000000000000000000000000000000600082015250565b60006117d3600983611384565b91506117de8261179d565b602082019050919050565b60006020820190508181036000830152611802816117c6565b9050919050565b7f596f75277265206e6f74206f776e657200000000000000000000000000000000600082015250565b600061183f601083611384565b915061184a82611809565b602082019050919050565b6000602082019050818103600083015261186e81611832565b9050919050565b61187e81610e6f565b82525050565b60006020820190506118996000830184611875565b92915050565b6118a882610ed2565b67ffffffffffffffff8111156118c1576118c0611041565b5b6118cb8254611493565b6118d68282856115f9565b600060209050601f83116001811461190957600084156118f7578287015190505b611901858261166a565b865550611969565b601f198416611917866114da565b60005b8281101561193f5784890151825560018201915060208501945060208101905061191a565b8683101561195c5784890151611958601f89168261164c565b8355505b6001600288020188555050505b505050505050565b600061197c82610e6f565b91506000820361198f5761198e611401565b5b600182039050919050565b60006119a582610e6f565b91507fffffffffffffffffffffffffffffffffffffffffffffffffffffffffffffffff82036119d7576119d6611401565b5b60018201905091905056fea2646970667358221220902489993bbac7787c0972d380e852ee05a848df278df40c903bbe7557cd2b3e64736f6c634300081c0033",
  "linkReferences": {},
  "deployedLinkReferences": {}
}