{
  "_format": "hh-sol-artifact-1",
  "contractName": "Counter",
  "sourceName": "contracts/Counter.sol",
  "abi": [
    {
      "inputs": [],
      "name": "get_user",
      "outputs": [
        {
          "components": [
            {
              "internalType": "string",
              "name": "name",
              "type": "string"
            },
            {
              "internalType": "uint256",
              "name": "age",
              "type": "uint256"
            }
          ],
          "internalType": "struct Counter.User",
          "name": "",
          "type": "tuple"
        }
      ],
      "stateMutability": "pure",
      "type": "function"
    },
    {
      "inputs": [],
      "name": "get_value",
      "outputs": [
        {
          "internalType": "uint256",
          "name": "",
          "type": "uint256"
        }
      ],
      "stateMutability": "view",
      "type": "function"
    },
    {
      "inputs": [
        {
          "internalType": "uint256",
          "name": "_value",
          "type": "uint256"
        }
      ],
      "name": "set_value",
      "outputs": [],
      "stateMutability": "nonpayable",
      "type": "function"
    }
  ],
  "bytecode": "0x6080604052348015600f57600080fd5b506102e98061001f6000396000f3fe608060405234801561001057600080fd5b50600436106100415760003560e01c806333cf508014610046578063b0f2b72a14610064578063fba1bc4c14610080575b600080fd5b61004e61009e565b60405161005b919061013c565b60405180910390f35b61007e60048036038101906100799190610188565b6100a7565b005b6100886100b1565b6040516100959190610291565b60405180910390f35b60008054905090565b8060008190555050565b6100b9610109565b60405180604001604052806040518060400160405280600381526020017f546f6d000000000000000000000000000000000000000000000000000000000081525081526020016018815250905090565b604051806040016040528060608152602001600081525090565b6000819050919050565b61013681610123565b82525050565b6000602082019050610151600083018461012d565b92915050565b600080fd5b61016581610123565b811461017057600080fd5b50565b6000813590506101828161015c565b92915050565b60006020828403121561019e5761019d610157565b5b60006101ac84828501610173565b91505092915050565b600081519050919050565b600082825260208201905092915050565b60005b838110156101ef5780820151818401526020810190506101d4565b60008484015250505050565b6000601f19601f8301169050919050565b6000610217826101b5565b61022181856101c0565b93506102318185602086016101d1565b61023a816101fb565b840191505092915050565b61024e81610123565b82525050565b60006040830160008301518482036000860152610271828261020c565b91505060208301516102866020860182610245565b508091505092915050565b600060208201905081810360008301526102ab8184610254565b90509291505056fea2646970667358221220d94c0e8a1a9da2b651b9a0cf0f655e40e6d3a824f227e8428a52b5669b50b77764736f6c634300081c0033",
  "linkReferences": {},
  "deployedLinkReferences": {}
}