{
	"data": {
		"bytecode": {
			"linkReferences": {
				"libs/ArrayLibrary.sol": {
					"ArrayLibrary": [
						{
							"length": 20,
							"start": 637
						}
					]
				}
			},
			"object": "6080604052348015600e575f5ffd5b506109cf8061001c5f395ff3fe608060405234801561000f575f5ffd5b5060043610610055575f3560e01c80634cc82215146100595780634f2be91f146100755780636d4ce63c1461009357806371e5ee5f146100b15780638cdc86a6146100e1575b5f5ffd5b610073600480360381019061006e9190610486565b6100eb565b005b61007d610101565b60405161008a9190610568565b60405180910390f35b61009b61019d565b6040516100a89190610568565b60405180910390f35b6100cb60048036038101906100c69190610486565b6101f2565b6040516100d89190610597565b60405180910390f35b6100e9610211565b005b6100fe815f6102f090919063ffffffff16565b50565b60605f601e90505b5f811115610149575f81908060018154018082558091505060019003905f5260205f20015f90919091909150558080610141906105dd565b915050610109565b505f80548060200260200160405190810160405280929190818152602001828054801561019357602002820191905f5260205f20905b81548152602001906001019080831161017f575b5050505050905090565b60605f8054806020026020016040519081016040528092919081815260200182805480156101e857602002820191905f5260205f20905b8154815260200190600101908083116101d4575b5050505050905090565b5f8181548110610200575f80fd5b905f5260205f20015f915090505481565b5f80548060200260200160405190810160405280929190818152602001828054801561025a57602002820191905f5260205f20905b815481526020019060010190808311610246575b505050505073__$9fbc46071dbe0b1f461e88be201ae23cad$__639ec8b02690916040518263ffffffff1660e01b81526004016102979190610696565b5f60405180830381865af41580156102b1573d5f5f3e3d5ffd5b505050506040513d5f823e3d601f19601f820116820180604052508101906102d9919061081a565b5f90805190602001906102ed9291906103dc565b50565b5f81101580156103035750818054905081105b610342576040517f08c379a0000000000000000000000000000000000000000000000000000000008152600401610339906108bb565b60405180910390fd5b5f8190505b6001838054905061035891906108d9565b8110156103b3578260018261036d919061090c565b8154811061037e5761037d61093f565b5b905f5260205f20015483828154811061039a5761039961093f565b5b905f5260205f2001819055508080600101915050610347565b50818054806103c5576103c461096c565b5b600190038181905f5260205f20015f905590555050565b828054828255905f5260205f20908101928215610416579160200282015b828111156104155782518255916020019190600101906103fa565b5b5090506104239190610427565b5090565b5b8082111561043e575f815f905550600101610428565b5090565b5f604051905090565b5f5ffd5b5f5ffd5b5f819050919050565b61046581610453565b811461046f575f5ffd5b50565b5f813590506104808161045c565b92915050565b5f6020828403121561049b5761049a61044b565b5b5f6104a884828501610472565b91505092915050565b5f81519050919050565b5f82825260208201905092915050565b5f819050602082019050919050565b6104e381610453565b82525050565b5f6104f483836104da565b60208301905092915050565b5f602082019050919050565b5f610516826104b1565b61052081856104bb565b935061052b836104cb565b805f5b8381101561055b57815161054288826104e9565b975061054d83610500565b92505060018101905061052e565b5085935050505092915050565b5f6020820190508181035f830152610580818461050c565b905092915050565b61059181610453565b82525050565b5f6020820190506105aa5f830184610588565b92915050565b7f4e487b71000000000000000000000000000000000000000000000000000000005f52601160045260245ffd5b5f6105e782610453565b91505f82036105f9576105f86105b0565b5b600182039050919050565b5f82825260208201905092915050565b61061d81610453565b82525050565b5f61062e8383610614565b60208301905092915050565b5f610644826104b1565b61064e8185610604565b9350610659836104cb565b805f5b838110156106895781516106708882610623565b975061067b83610500565b92505060018101905061065c565b5085935050505092915050565b5f6020820190508181035f8301526106ae818461063a565b905092915050565b5f5ffd5b5f601f19601f8301169050919050565b7f4e487b71000000000000000000000000000000000000000000000000000000005f52604160045260245ffd5b610700826106ba565b810181811067ffffffffffffffff8211171561071f5761071e6106ca565b5b80604052505050565b5f610731610442565b905061073d82826106f7565b919050565b5f67ffffffffffffffff82111561075c5761075b6106ca565b5b602082029050602081019050919050565b5f5ffd5b5f8151905061077f8161045c565b92915050565b5f61079761079284610742565b610728565b905080838252602082019050602084028301858111156107ba576107b961076d565b5b835b818110156107e357806107cf8882610771565b8452602084019350506020810190506107bc565b5050509392505050565b5f82601f830112610801576108006106b6565b5b8151610811848260208601610785565b91505092915050565b5f6020828403121561082f5761082e61044b565b5b5f82015167ffffffffffffffff81111561084c5761084b61044f565b5b610858848285016107ed565b91505092915050565b5f82825260208201905092915050565b7f4f7574206f662072616e676500000000000000000000000000000000000000005f82015250565b5f6108a5600c83610861565b91506108b082610871565b602082019050919050565b5f6020820190508181035f8301526108d281610899565b9050919050565b5f6108e382610453565b91506108ee83610453565b9250828203905081811115610906576109056105b0565b5b92915050565b5f61091682610453565b915061092183610453565b9250828201905080821115610939576109386105b0565b5b92915050565b7f4e487b71000000000000000000000000000000000000000000000000000000005f52603260045260245ffd5b7f4e487b71000000000000000000000000000000000000000000000000000000005f52603160045260245ffdfea2646970667358221220a08046603a753ee21bcd017bacf6a2a44a7a7b4ee965f659f1a1b553b60d7ed364736f6c634300081e0033",
			"opcodes": "PUSH1 0x80 PUSH1 0x40 MSTORE CALLVALUE DUP1 ISZERO PUSH1 0xE JUMPI PUSH0 PUSH0 REVERT JUMPDEST POP PUSH2 0x9CF DUP1 PUSH2 0x1C PUSH0 CODECOPY PUSH0 RETURN INVALID PUSH1 0x80 PUSH1 0x40 MSTORE CALLVALUE DUP1 ISZERO PUSH2 0xF JUMPI PUSH0 PUSH0 REVERT JUMPDEST POP PUSH1 0x4 CALLDATASIZE LT PUSH2 0x55 JUMPI PUSH0 CALLDATALOAD PUSH1 0xE0 SHR DUP1 PUSH4 0x4CC82215 EQ PUSH2 0x59 JUMPI DUP1 PUSH4 0x4F2BE91F EQ PUSH2 0x75 JUMPI DUP1 PUSH4 0x6D4CE63C EQ PUSH2 0x93 JUMPI DUP1 PUSH4 0x71E5EE5F EQ PUSH2 0xB1 JUMPI DUP1 PUSH4 0x8CDC86A6 EQ PUSH2 0xE1 JUMPI JUMPDEST PUSH0 PUSH0 REVERT JUMPDEST PUSH2 0x73 PUSH1 0x4 DUP1 CALLDATASIZE SUB DUP2 ADD SWAP1 PUSH2 0x6E SWAP2 SWAP1 PUSH2 0x486 JUMP JUMPDEST PUSH2 0xEB JUMP JUMPDEST STOP JUMPDEST PUSH2 0x7D PUSH2 0x101 JUMP JUMPDEST PUSH1 0x40 MLOAD PUSH2 0x8A SWAP2 SWAP1 PUSH2 0x568 JUMP JUMPDEST PUSH1 0x40 MLOAD DUP1 SWAP2 SUB SWAP1 RETURN JUMPDEST PUSH2 0x9B PUSH2 0x19D JUMP JUMPDEST PUSH1 0x40 MLOAD PUSH2 0xA8 SWAP2 SWAP1 PUSH2 0x568 JUMP JUMPDEST PUSH1 0x40 MLOAD DUP1 SWAP2 SUB SWAP1 RETURN JUMPDEST PUSH2 0xCB PUSH1 0x4 DUP1 CALLDATASIZE SUB DUP2 ADD SWAP1 PUSH2 0xC6 SWAP2 SWAP1 PUSH2 0x486 JUMP JUMPDEST PUSH2 0x1F2 JUMP JUMPDEST PUSH1 0x40 MLOAD PUSH2 0xD8 SWAP2 SWAP1 PUSH2 0x597 JUMP JUMPDEST PUSH1 0x40 MLOAD DUP1 SWAP2 SUB SWAP1 RETURN JUMPDEST PUSH2 0xE9 PUSH2 0x211 JUMP JUMPDEST STOP JUMPDEST PUSH2 0xFE DUP2 PUSH0 PUSH2 0x2F0 SWAP1 SWAP2 SWAP1 PUSH4 0xFFFFFFFF AND JUMP JUMPDEST POP JUMP JUMPDEST PUSH1 0x60 PUSH0 PUSH1 0x1E SWAP1 POP JUMPDEST PUSH0 DUP2 GT ISZERO PUSH2 0x149 JUMPI PUSH0 DUP2 SWAP1 DUP1 PUSH1 0x1 DUP2 SLOAD ADD DUP1 DUP3 SSTORE DUP1 SWAP2 POP POP PUSH1 0x1 SWAP1 SUB SWAP1 PUSH0 MSTORE PUSH1 0x20 PUSH0 KECCAK256 ADD PUSH0 SWAP1 SWAP2 SWAP1 SWAP2 SWAP1 SWAP2 POP SSTORE DUP1 DUP1 PUSH2 0x141 SWAP1 PUSH2 0x5DD JUMP JUMPDEST SWAP2 POP POP PUSH2 0x109 JUMP JUMPDEST POP PUSH0 DUP1 SLOAD DUP1 PUSH1 0x20 MUL PUSH1 0x20 ADD PUSH1 0x40 MLOAD SWAP1 DUP2 ADD PUSH1 0x40 MSTORE DUP1 SWAP3 SWAP2 SWAP1 DUP2 DUP2 MSTORE PUSH1 0x20 ADD DUP3 DUP1 SLOAD DUP1 ISZERO PUSH2 0x193 JUMPI PUSH1 0x20 MUL DUP3 ADD SWAP2 SWAP1 PUSH0 MSTORE PUSH1 0x20 PUSH0 KECCAK256 SWAP1 JUMPDEST DUP2 SLOAD DUP2 MSTORE PUSH1 0x20 ADD SWAP1 PUSH1 0x1 ADD SWAP1 DUP1 DUP4 GT PUSH2 0x17F JUMPI JUMPDEST POP POP POP POP POP SWAP1 POP SWAP1 JUMP JUMPDEST PUSH1 0x60 PUSH0 DUP1 SLOAD DUP1 PUSH1 0x20 MUL PUSH1 0x20 ADD PUSH1 0x40 MLOAD SWAP1 DUP2 ADD PUSH1 0x40 MSTORE DUP1 SWAP3 SWAP2 SWAP1 DUP2 DUP2 MSTORE PUSH1 0x20 ADD DUP3 DUP1 SLOAD DUP1 ISZERO PUSH2 0x1E8 JUMPI PUSH1 0x20 MUL DUP3 ADD SWAP2 SWAP1 PUSH0 MSTORE PUSH1 0x20 PUSH0 KECCAK256 SWAP1 JUMPDEST DUP2 SLOAD DUP2 MSTORE PUSH1 0x20 ADD SWAP1 PUSH1 0x1 ADD SWAP1 DUP1 DUP4 GT PUSH2 0x1D4 JUMPI JUMPDEST POP POP POP POP POP SWAP1 POP SWAP1 JUMP JUMPDEST PUSH0 DUP2 DUP2 SLOAD DUP2 LT PUSH2 0x200 JUMPI PUSH0 DUP1 REVERT JUMPDEST SWAP1 PUSH0 MSTORE PUSH1 0x20 PUSH0 KECCAK256 ADD PUSH0 SWAP2 POP SWAP1 POP SLOAD DUP2 JUMP JUMPDEST PUSH0 DUP1 SLOAD DUP1 PUSH1 0x20 MUL PUSH1 0x20 ADD PUSH1 0x40 MLOAD SWAP1 DUP2 ADD PUSH1 0x40 MSTORE DUP1 SWAP3 SWAP2 SWAP1 DUP2 DUP2 MSTORE PUSH1 0x20 ADD DUP3 DUP1 SLOAD DUP1 ISZERO PUSH2 0x25A JUMPI PUSH1 0x20 MUL DUP3 ADD SWAP2 SWAP1 PUSH0 MSTORE PUSH1 0x20 PUSH0 KECCAK256 SWAP1 JUMPDEST DUP2 SLOAD DUP2 MSTORE PUSH1 0x20 ADD SWAP1 PUSH1 0x1 ADD SWAP1 DUP1 DUP4 GT PUSH2 0x246 JUMPI JUMPDEST POP POP POP POP POP PUSH20 0x0 PUSH4 0x9EC8B026 SWAP1 SWAP2 PUSH1 0x40 MLOAD DUP3 PUSH4 0xFFFFFFFF AND PUSH1 0xE0 SHL DUP2 MSTORE PUSH1 0x4 ADD PUSH2 0x297 SWAP2 SWAP1 PUSH2 0x696 JUMP JUMPDEST PUSH0 PUSH1 0x40 MLOAD DUP1 DUP4 SUB DUP2 DUP7 GAS DELEGATECALL ISZERO DUP1 ISZERO PUSH2 0x2B1 JUMPI RETURNDATASIZE PUSH0 PUSH0 RETURNDATACOPY RETURNDATASIZE PUSH0 REVERT JUMPDEST POP POP POP POP PUSH1 0x40 MLOAD RETURNDATASIZE PUSH0 DUP3 RETURNDATACOPY RETURNDATASIZE PUSH1 0x1F NOT PUSH1 0x1F DUP3 ADD AND DUP3 ADD DUP1 PUSH1 0x40 MSTORE POP DUP2 ADD SWAP1 PUSH2 0x2D9 SWAP2 SWAP1 PUSH2 0x81A JUMP JUMPDEST PUSH0 SWAP1 DUP1 MLOAD SWAP1 PUSH1 0x20 ADD SWAP1 PUSH2 0x2ED SWAP3 SWAP2 SWAP1 PUSH2 0x3DC JUMP JUMPDEST POP JUMP JUMPDEST PUSH0 DUP2 LT ISZERO DUP1 ISZERO PUSH2 0x303 JUMPI POP DUP2 DUP1 SLOAD SWAP1 POP DUP2 LT JUMPDEST PUSH2 0x342 JUMPI PUSH1 0x40 MLOAD PUSH32 0x8C379A000000000000000000000000000000000000000000000000000000000 DUP2 MSTORE PUSH1 0x4 ADD PUSH2 0x339 SWAP1 PUSH2 0x8BB JUMP JUMPDEST PUSH1 0x40 MLOAD DUP1 SWAP2 SUB SWAP1 REVERT JUMPDEST PUSH0 DUP2 SWAP1 POP JUMPDEST PUSH1 0x1 DUP4 DUP1 SLOAD SWAP1 POP PUSH2 0x358 SWAP2 SWAP1 PUSH2 0x8D9 JUMP JUMPDEST DUP2 LT ISZERO PUSH2 0x3B3 JUMPI DUP3 PUSH1 0x1 DUP3 PUSH2 0x36D SWAP2 SWAP1 PUSH2 0x90C JUMP JUMPDEST DUP2 SLOAD DUP2 LT PUSH2 0x37E JUMPI PUSH2 0x37D PUSH2 0x93F JUMP JUMPDEST JUMPDEST SWAP1 PUSH0 MSTORE PUSH1 0x20 PUSH0 KECCAK256 ADD SLOAD DUP4 DUP3 DUP2 SLOAD DUP2 LT PUSH2 0x39A JUMPI PUSH2 0x399 PUSH2 0x93F JUMP JUMPDEST JUMPDEST SWAP1 PUSH0 MSTORE PUSH1 0x20 PUSH0 KECCAK256 ADD DUP2 SWAP1 SSTORE POP DUP1 DUP1 PUSH1 0x1 ADD SWAP2 POP POP PUSH2 0x347 JUMP JUMPDEST POP DUP2 DUP1 SLOAD DUP1 PUSH2 0x3C5 JUMPI PUSH2 0x3C4 PUSH2 0x96C JUMP JUMPDEST JUMPDEST PUSH1 0x1 SWAP1 SUB DUP2 DUP2 SWAP1 PUSH0 MSTORE PUSH1 0x20 PUSH0 KECCAK256 ADD PUSH0 SWAP1 SSTORE SWAP1 SSTORE POP POP JUMP JUMPDEST DUP3 DUP1 SLOAD DUP3 DUP3 SSTORE SWAP1 PUSH0 MSTORE PUSH1 0x20 PUSH0 KECCAK256 SWAP1 DUP2 ADD SWAP3 DUP3 ISZERO PUSH2 0x416 JUMPI SWAP2 PUSH1 0x20 MUL DUP3 ADD JUMPDEST DUP3 DUP2 GT ISZERO PUSH2 0x415 JUMPI DUP3 MLOAD DUP3 SSTORE SWAP2 PUSH1 0x20 ADD SWAP2 SWAP1 PUSH1 0x1 ADD SWAP1 PUSH2 0x3FA JUMP JUMPDEST JUMPDEST POP SWAP1 POP PUSH2 0x423 SWAP2 SWAP1 PUSH2 0x427 JUMP JUMPDEST POP SWAP1 JUMP JUMPDEST JUMPDEST DUP1 DUP3 GT ISZERO PUSH2 0x43E JUMPI PUSH0 DUP2 PUSH0 SWAP1 SSTORE POP PUSH1 0x1 ADD PUSH2 0x428 JUMP JUMPDEST POP SWAP1 JUMP JUMPDEST PUSH0 PUSH1 0x40 MLOAD SWAP1 POP SWAP1 JUMP JUMPDEST PUSH0 PUSH0 REVERT JUMPDEST PUSH0 PUSH0 REVERT JUMPDEST PUSH0 DUP2 SWAP1 POP SWAP2 SWAP1 POP JUMP JUMPDEST PUSH2 0x465 DUP2 PUSH2 0x453 JUMP JUMPDEST DUP2 EQ PUSH2 0x46F JUMPI PUSH0 PUSH0 REVERT JUMPDEST POP JUMP JUMPDEST PUSH0 DUP2 CALLDATALOAD SWAP1 POP PUSH2 0x480 DUP2 PUSH2 0x45C JUMP JUMPDEST SWAP3 SWAP2 POP POP JUMP JUMPDEST PUSH0 PUSH1 0x20 DUP3 DUP5 SUB SLT ISZERO PUSH2 0x49B JUMPI PUSH2 0x49A PUSH2 0x44B JUMP JUMPDEST JUMPDEST PUSH0 PUSH2 0x4A8 DUP5 DUP3 DUP6 ADD PUSH2 0x472 JUMP JUMPDEST SWAP2 POP POP SWAP3 SWAP2 POP POP JUMP JUMPDEST PUSH0 DUP2 MLOAD SWAP1 POP SWAP2 SWAP1 POP JUMP JUMPDEST PUSH0 DUP3 DUP3 MSTORE PUSH1 0x20 DUP3 ADD SWAP1 POP SWAP3 SWAP2 POP POP JUMP JUMPDEST PUSH0 DUP2 SWAP1 POP PUSH1 0x20 DUP3 ADD SWAP1 POP SWAP2 SWAP1 POP JUMP JUMPDEST PUSH2 0x4E3 DUP2 PUSH2 0x453 JUMP JUMPDEST DUP3 MSTORE POP POP JUMP JUMPDEST PUSH0 PUSH2 0x4F4 DUP4 DUP4 PUSH2 0x4DA JUMP JUMPDEST PUSH1 0x20 DUP4 ADD SWAP1 POP SWAP3 SWAP2 POP POP JUMP JUMPDEST PUSH0 PUSH1 0x20 DUP3 ADD SWAP1 POP SWAP2 SWAP1 POP JUMP JUMPDEST PUSH0 PUSH2 0x516 DUP3 PUSH2 0x4B1 JUMP JUMPDEST PUSH2 0x520 DUP2 DUP6 PUSH2 0x4BB JUMP JUMPDEST SWAP4 POP PUSH2 0x52B DUP4 PUSH2 0x4CB JUMP JUMPDEST DUP1 PUSH0 JUMPDEST DUP4 DUP2 LT ISZERO PUSH2 0x55B JUMPI DUP2 MLOAD PUSH2 0x542 DUP9 DUP3 PUSH2 0x4E9 JUMP JUMPDEST SWAP8 POP PUSH2 0x54D DUP4 PUSH2 0x500 JUMP JUMPDEST SWAP3 POP POP PUSH1 0x1 DUP2 ADD SWAP1 POP PUSH2 0x52E JUMP JUMPDEST POP DUP6 SWAP4 POP POP POP POP SWAP3 SWAP2 POP POP JUMP JUMPDEST PUSH0 PUSH1 0x20 DUP3 ADD SWAP1 POP DUP2 DUP2 SUB PUSH0 DUP4 ADD MSTORE PUSH2 0x580 DUP2 DUP5 PUSH2 0x50C JUMP JUMPDEST SWAP1 POP SWAP3 SWAP2 POP POP JUMP JUMPDEST PUSH2 0x591 DUP2 PUSH2 0x453 JUMP JUMPDEST DUP3 MSTORE POP POP JUMP JUMPDEST PUSH0 PUSH1 0x20 DUP3 ADD SWAP1 POP PUSH2 0x5AA PUSH0 DUP4 ADD DUP5 PUSH2 0x588 JUMP JUMPDEST SWAP3 SWAP2 POP POP JUMP JUMPDEST PUSH32 0x4E487B7100000000000000000000000000000000000000000000000000000000 PUSH0 MSTORE PUSH1 0x11 PUSH1 0x4 MSTORE PUSH1 0x24 PUSH0 REVERT JUMPDEST PUSH0 PUSH2 0x5E7 DUP3 PUSH2 0x453 JUMP JUMPDEST SWAP2 POP PUSH0 DUP3 SUB PUSH2 0x5F9 JUMPI PUSH2 0x5F8 PUSH2 0x5B0 JUMP JUMPDEST JUMPDEST PUSH1 0x1 DUP3 SUB SWAP1 POP SWAP2 SWAP1 POP JUMP JUMPDEST PUSH0 DUP3 DUP3 MSTORE PUSH1 0x20 DUP3 ADD SWAP1 POP SWAP3 SWAP2 POP POP JUMP JUMPDEST PUSH2 0x61D DUP2 PUSH2 0x453 JUMP JUMPDEST DUP3 MSTORE POP POP JUMP JUMPDEST PUSH0 PUSH2 0x62E DUP4 DUP4 PUSH2 0x614 JUMP JUMPDEST PUSH1 0x20 DUP4 ADD SWAP1 POP SWAP3 SWAP2 POP POP JUMP JUMPDEST PUSH0 PUSH2 0x644 DUP3 PUSH2 0x4B1 JUMP JUMPDEST PUSH2 0x64E DUP2 DUP6 PUSH2 0x604 JUMP JUMPDEST SWAP4 POP PUSH2 0x659 DUP4 PUSH2 0x4CB JUMP JUMPDEST DUP1 PUSH0 JUMPDEST DUP4 DUP2 LT ISZERO PUSH2 0x689 JUMPI DUP2 MLOAD PUSH2 0x670 DUP9 DUP3 PUSH2 0x623 JUMP JUMPDEST SWAP8 POP PUSH2 0x67B DUP4 PUSH2 0x500 JUMP JUMPDEST SWAP3 POP POP PUSH1 0x1 DUP2 ADD SWAP1 POP PUSH2 0x65C JUMP JUMPDEST POP DUP6 SWAP4 POP POP POP POP SWAP3 SWAP2 POP POP JUMP JUMPDEST PUSH0 PUSH1 0x20 DUP3 ADD SWAP1 POP DUP2 DUP2 SUB PUSH0 DUP4 ADD MSTORE PUSH2 0x6AE DUP2 DUP5 PUSH2 0x63A JUMP JUMPDEST SWAP1 POP SWAP3 SWAP2 POP POP JUMP JUMPDEST PUSH0 PUSH0 REVERT JUMPDEST PUSH0 PUSH1 0x1F NOT PUSH1 0x1F DUP4 ADD AND SWAP1 POP SWAP2 SWAP1 POP JUMP JUMPDEST PUSH32 0x4E487B7100000000000000000000000000000000000000000000000000000000 PUSH0 MSTORE PUSH1 0x41 PUSH1 0x4 MSTORE PUSH1 0x24 PUSH0 REVERT JUMPDEST PUSH2 0x700 DUP3 PUSH2 0x6BA JUMP JUMPDEST DUP2 ADD DUP2 DUP2 LT PUSH8 0xFFFFFFFFFFFFFFFF DUP3 GT OR ISZERO PUSH2 0x71F JUMPI PUSH2 0x71E PUSH2 0x6CA JUMP JUMPDEST JUMPDEST DUP1 PUSH1 0x40 MSTORE POP POP POP JUMP JUMPDEST PUSH0 PUSH2 0x731 PUSH2 0x442 JUMP JUMPDEST SWAP1 POP PUSH2 0x73D DUP3 DUP3 PUSH2 0x6F7 JUMP JUMPDEST SWAP2 SWAP1 POP JUMP JUMPDEST PUSH0 PUSH8 0xFFFFFFFFFFFFFFFF DUP3 GT ISZERO PUSH2 0x75C JUMPI PUSH2 0x75B PUSH2 0x6CA JUMP JUMPDEST JUMPDEST PUSH1 0x20 DUP3 MUL SWAP1 POP PUSH1 0x20 DUP2 ADD SWAP1 POP SWAP2 SWAP1 POP JUMP JUMPDEST PUSH0 PUSH0 REVERT JUMPDEST PUSH0 DUP2 MLOAD SWAP1 POP PUSH2 0x77F DUP2 PUSH2 0x45C JUMP JUMPDEST SWAP3 SWAP2 POP POP JUMP JUMPDEST PUSH0 PUSH2 0x797 PUSH2 0x792 DUP5 PUSH2 0x742 JUMP JUMPDEST PUSH2 0x728 JUMP JUMPDEST SWAP1 POP DUP1 DUP4 DUP3 MSTORE PUSH1 0x20 DUP3 ADD SWAP1 POP PUSH1 0x20 DUP5 MUL DUP4 ADD DUP6 DUP2 GT ISZERO PUSH2 0x7BA JUMPI PUSH2 0x7B9 PUSH2 0x76D JUMP JUMPDEST JUMPDEST DUP4 JUMPDEST DUP2 DUP2 LT ISZERO PUSH2 0x7E3 JUMPI DUP1 PUSH2 0x7CF DUP9 DUP3 PUSH2 0x771 JUMP JUMPDEST DUP5 MSTORE PUSH1 0x20 DUP5 ADD SWAP4 POP POP PUSH1 0x20 DUP2 ADD SWAP1 POP PUSH2 0x7BC JUMP JUMPDEST POP POP POP SWAP4 SWAP3 POP POP POP JUMP JUMPDEST PUSH0 DUP3 PUSH1 0x1F DUP4 ADD SLT PUSH2 0x801 JUMPI PUSH2 0x800 PUSH2 0x6B6 JUMP JUMPDEST JUMPDEST DUP2 MLOAD PUSH2 0x811 DUP5 DUP3 PUSH1 0x20 DUP7 ADD PUSH2 0x785 JUMP JUMPDEST SWAP2 POP POP SWAP3 SWAP2 POP POP JUMP JUMPDEST PUSH0 PUSH1 0x20 DUP3 DUP5 SUB SLT ISZERO PUSH2 0x82F JUMPI PUSH2 0x82E PUSH2 0x44B JUMP JUMPDEST JUMPDEST PUSH0 DUP3 ADD MLOAD PUSH8 0xFFFFFFFFFFFFFFFF DUP2 GT ISZERO PUSH2 0x84C JUMPI PUSH2 0x84B PUSH2 0x44F JUMP JUMPDEST JUMPDEST PUSH2 0x858 DUP5 DUP3 DUP6 ADD PUSH2 0x7ED JUMP JUMPDEST SWAP2 POP POP SWAP3 SWAP2 POP POP JUMP JUMPDEST PUSH0 DUP3 DUP3 MSTORE PUSH1 0x20 DUP3 ADD SWAP1 POP SWAP3 SWAP2 POP POP JUMP JUMPDEST PUSH32 0x4F7574206F662072616E67650000000000000000000000000000000000000000 PUSH0 DUP3 ADD MSTORE POP JUMP JUMPDEST PUSH0 PUSH2 0x8A5 PUSH1 0xC DUP4 PUSH2 0x861 JUMP JUMPDEST SWAP2 POP PUSH2 0x8B0 DUP3 PUSH2 0x871 JUMP JUMPDEST PUSH1 0x20 DUP3 ADD SWAP1 POP SWAP2 SWAP1 POP JUMP JUMPDEST PUSH0 PUSH1 0x20 DUP3 ADD SWAP1 POP DUP2 DUP2 SUB PUSH0 DUP4 ADD MSTORE PUSH2 0x8D2 DUP2 PUSH2 0x899 JUMP JUMPDEST SWAP1 POP SWAP2 SWAP1 POP JUMP JUMPDEST PUSH0 PUSH2 0x8E3 DUP3 PUSH2 0x453 JUMP JUMPDEST SWAP2 POP PUSH2 0x8EE DUP4 PUSH2 0x453 JUMP JUMPDEST SWAP3 POP DUP3 DUP3 SUB SWAP1 POP DUP2 DUP2 GT ISZERO PUSH2 0x906 JUMPI PUSH2 0x905 PUSH2 0x5B0 JUMP JUMPDEST JUMPDEST SWAP3 SWAP2 POP POP JUMP JUMPDEST PUSH0 PUSH2 0x916 DUP3 PUSH2 0x453 JUMP JUMPDEST SWAP2 POP PUSH2 0x921 DUP4 PUSH2 0x453 JUMP JUMPDEST SWAP3 POP DUP3 DUP3 ADD SWAP1 POP DUP1 DUP3 GT ISZERO PUSH2 0x939 JUMPI PUSH2 0x938 PUSH2 0x5B0 JUMP JUMPDEST JUMPDEST SWAP3 SWAP2 POP POP JUMP JUMPDEST PUSH32 0x4E487B7100000000000000000000000000000000000000000000000000000000 PUSH0 MSTORE PUSH1 0x32 PUSH1 0x4 MSTORE PUSH1 0x24 PUSH0 REVERT JUMPDEST PUSH32 0x4E487B7100000000000000000000000000000000000000000000000000000000 PUSH0 MSTORE PUSH1 0x31 PUSH1 0x4 MSTORE PUSH1 0x24 PUSH0 REVERT INVALID LOG2 PUSH5 0x6970667358 0x22 SLT KECCAK256 LOG0 DUP1 CHAINID PUSH1 0x3A PUSH22 0x3EE21BCD017BACF6A2A44A7A7B4EE965F659F1A1B553 0xB6 0xD PUSH31 0xD364736F6C634300081E003300000000000000000000000000000000000000 "
		},
		"gasEstimates": {
			"creation": {
				"codeDepositCost": "502200",
				"executionCost": "535",
				"totalCost": "502735"
			},
			"external": {
				"add()": "infinite",
				"arr(uint256)": "infinite",
				"get()": "infinite",
				"remove(uint256)": "infinite",
				"sort()": "infinite"
			}
		},
		"methodIdentifiers": {
			"add()": "4f2be91f",
			"arr(uint256)": "71e5ee5f",
			"get()": "6d4ce63c",
			"remove(uint256)": "4cc82215",
			"sort()": "8cdc86a6"
		}
	},
	"abi": [
		{
			"inputs": [],
			"name": "add",
			"outputs": [
				{
					"internalType": "uint256[]",
					"name": "",
					"type": "uint256[]"
				}
			],
			"stateMutability": "nonpayable",
			"type": "function"
		},
		{
			"inputs": [
				{
					"internalType": "uint256",
					"name": "",
					"type": "uint256"
				}
			],
			"name": "arr",
			"outputs": [
				{
					"internalType": "uint256",
					"name": "",
					"type": "uint256"
				}
			],
			"stateMutability": "view",
			"type": "function"
		},
		{
			"inputs": [],
			"name": "get",
			"outputs": [
				{
					"internalType": "uint256[]",
					"name": "",
					"type": "uint256[]"
				}
			],
			"stateMutability": "view",
			"type": "function"
		},
		{
			"inputs": [
				{
					"internalType": "uint256",
					"name": "index",
					"type": "uint256"
				}
			],
			"name": "remove",
			"outputs": [],
			"stateMutability": "nonpayable",
			"type": "function"
		},
		{
			"inputs": [],
			"name": "sort",
			"outputs": [],
			"stateMutability": "nonpayable",
			"type": "function"
		}
	]
}