{
	"data": {
		"bytecode": {
			"linkReferences": {},
			"object": "610b1561004d600b8282823980515f1a6073146041577f4e487b71000000000000000000000000000000000000000000000000000000005f525f60045260245ffd5b305f52607381538281f3fe730000000000000000000000000000000000000000301460806040526004361061003f575f3560e01c80639ec8b02614610043578063d5750aae14610073575b5f5ffd5b61005d6004803603810190610058919061076d565b6100a4565b60405161006a919061086b565b60405180910390f35b61008d6004803603810190610088919061093e565b610526565b60405161009b9291906109cd565b60405180910390f35b60605f825190505f8167ffffffffffffffff8111156100c6576100c56105fe565b5b6040519080825280602002602001820160405280156100f45781602001602082028036833780820191505090505b5090505f5f90505b8281101561014b57848181518110610117576101166109f4565b5b6020026020010151828281518110610132576101316109f4565b5b60200260200101818152505080806001019150506100fc565b5f6002846101599190610a4e565b67ffffffffffffffff811115610172576101716105fe565b5b6040519080825280602002602001820160405280156101a05781602001602082028036833780820191505090505b5090505f600190505f8282815181106101bc576101bb6109f4565b5b6020026020010181815250506001816101d59190610a4e565b90506001856101e49190610a81565b8282815181106101f7576101f66109f4565b5b6020026020010181815250505b5f8111156104c6575f8282815181106102205761021f6109f4565b5b602002602001015190506001826102379190610a81565b91505f83838151811061024d5761024c6109f4565b5b602002602001015190506001836102649190610a81565b92508094505f86838151811061027d5761027c6109f4565b5b602002602001015190505f8290505b8381101561034657818882815181106102a8576102a76109f4565b5b602002602001015111610339578781815181106102c8576102c76109f4565b5b60200260200101518888815181106102e3576102e26109f4565b5b60200260200101518989815181106102fe576102fd6109f4565b5b602002602001018a8481518110610318576103176109f4565b5b60200260200101828152508281525050506001876103369190610a4e565b96505b808060010191505061028c565b5086838151811061035a576103596109f4565b5b6020026020010151878781518110610375576103746109f4565b5b60200260200101518888815181106103905761038f6109f4565b5b602002602001018986815181106103aa576103a96109f4565b5b60200260200101828152508281525050505f8690506001836103cc9190610a4e565b81111561043e576001856103e09190610a4e565b9450828686815181106103f6576103f56109f4565b5b60200260200101818152505060018561040f9190610a4e565b945060018161041e9190610a81565b868681518110610431576104306109f4565b5b6020026020010181815250505b8360018261044c9190610a4e565b10156104bd5760018561045f9190610a4e565b945060018161046e9190610a4e565b868681518110610481576104806109f4565b5b60200260200101818152505060018561049a9190610a4e565b9450838686815181106104b0576104af6109f4565b5b6020026020010181815250505b50505050610204565b5f92505b84831015610519578383815181106104e5576104e46109f4565b5b6020026020010151878481518110610500576104ff6109f4565b5b60200260200101818152505082806001019350506104ca565b8695505050505050919050565b5f5f5f5b858590508110156105a9578373ffffffffffffffffffffffffffffffffffffffff1686868381811061055f5761055e6109f4565b5b90506020020160208101906105749190610ab4565b73ffffffffffffffffffffffffffffffffffffffff160361059c5760018192509250506105d1565b808060010191505061052a565b505f7fffffffffffffffffffffffffffffffffffffffffffffffffffffffffffffffff915091505b935093915050565b5f604051905090565b5f5ffd5b5f5ffd5b5f5ffd5b5f601f19601f8301169050919050565b7f4e487b71000000000000000000000000000000000000000000000000000000005f52604160045260245ffd5b610634826105ee565b810181811067ffffffffffffffff82111715610653576106526105fe565b5b80604052505050565b5f6106656105d9565b9050610671828261062b565b919050565b5f67ffffffffffffffff8211156106905761068f6105fe565b5b602082029050602081019050919050565b5f5ffd5b5f819050919050565b6106b7816106a5565b81146106c1575f5ffd5b50565b5f813590506106d2816106ae565b92915050565b5f6106ea6106e584610676565b61065c565b9050808382526020820190506020840283018581111561070d5761070c6106a1565b5b835b81811015610736578061072288826106c4565b84526020840193505060208101905061070f565b5050509392505050565b5f82601f830112610754576107536105ea565b5b81356107648482602086016106d8565b91505092915050565b5f60208284031215610782576107816105e2565b5b5f82013567ffffffffffffffff81111561079f5761079e6105e6565b5b6107ab84828501610740565b91505092915050565b5f81519050919050565b5f82825260208201905092915050565b5f819050602082019050919050565b6107e6816106a5565b82525050565b5f6107f783836107dd565b60208301905092915050565b5f602082019050919050565b5f610819826107b4565b61082381856107be565b935061082e836107ce565b805f5b8381101561085e57815161084588826107ec565b975061085083610803565b925050600181019050610831565b5085935050505092915050565b5f6020820190508181035f830152610883818461080f565b905092915050565b5f5ffd5b5f5f83601f8401126108a4576108a36105ea565b5b8235905067ffffffffffffffff8111156108c1576108c061088b565b5b6020830191508360208202830111156108dd576108dc6106a1565b5b9250929050565b5f73ffffffffffffffffffffffffffffffffffffffff82169050919050565b5f61090d826108e4565b9050919050565b61091d81610903565b8114610927575f5ffd5b50565b5f8135905061093881610914565b92915050565b5f5f5f60408486031215610955576109546105e2565b5b5f84013567ffffffffffffffff811115610972576109716105e6565b5b61097e8682870161088f565b935093505060206109918682870161092a565b9150509250925092565b5f8115159050919050565b6109af8161099b565b82525050565b5f819050919050565b6109c7816109b5565b82525050565b5f6040820190506109e05f8301856109a6565b6109ed60208301846109be565b9392505050565b7f4e487b71000000000000000000000000000000000000000000000000000000005f52603260045260245ffd5b7f4e487b71000000000000000000000000000000000000000000000000000000005f52601160045260245ffd5b5f610a58826106a5565b9150610a63836106a5565b9250828201905080821115610a7b57610a7a610a21565b5b92915050565b5f610a8b826106a5565b9150610a96836106a5565b9250828203905081811115610aae57610aad610a21565b5b92915050565b5f60208284031215610ac957610ac86105e2565b5b5f610ad68482850161092a565b9150509291505056fea264697066735822122054c7adc080dd01bb5a9edf5c157df3967465b511fbdd5fbabc048c2a8e0606d464736f6c634300081e0033",
			"opcodes": "PUSH2 0xB15 PUSH2 0x4D PUSH1 0xB DUP3 DUP3 DUP3 CODECOPY DUP1 MLOAD PUSH0 BYTE PUSH1 0x73 EQ PUSH1 0x41 JUMPI PUSH32 0x4E487B7100000000000000000000000000000000000000000000000000000000 PUSH0 MSTORE PUSH0 PUSH1 0x4 MSTORE PUSH1 0x24 PUSH0 REVERT JUMPDEST ADDRESS PUSH0 MSTORE PUSH1 0x73 DUP2 MSTORE8 DUP3 DUP2 RETURN INVALID PUSH20 0x0 ADDRESS EQ PUSH1 0x80 PUSH1 0x40 MSTORE PUSH1 0x4 CALLDATASIZE LT PUSH2 0x3F JUMPI PUSH0 CALLDATALOAD PUSH1 0xE0 SHR DUP1 PUSH4 0x9EC8B026 EQ PUSH2 0x43 JUMPI DUP1 PUSH4 0xD5750AAE EQ PUSH2 0x73 JUMPI JUMPDEST PUSH0 PUSH0 REVERT JUMPDEST PUSH2 0x5D PUSH1 0x4 DUP1 CALLDATASIZE SUB DUP2 ADD SWAP1 PUSH2 0x58 SWAP2 SWAP1 PUSH2 0x76D JUMP JUMPDEST PUSH2 0xA4 JUMP JUMPDEST PUSH1 0x40 MLOAD PUSH2 0x6A SWAP2 SWAP1 PUSH2 0x86B JUMP JUMPDEST PUSH1 0x40 MLOAD DUP1 SWAP2 SUB SWAP1 RETURN JUMPDEST PUSH2 0x8D PUSH1 0x4 DUP1 CALLDATASIZE SUB DUP2 ADD SWAP1 PUSH2 0x88 SWAP2 SWAP1 PUSH2 0x93E JUMP JUMPDEST PUSH2 0x526 JUMP JUMPDEST PUSH1 0x40 MLOAD PUSH2 0x9B SWAP3 SWAP2 SWAP1 PUSH2 0x9CD JUMP JUMPDEST PUSH1 0x40 MLOAD DUP1 SWAP2 SUB SWAP1 RETURN JUMPDEST PUSH1 0x60 PUSH0 DUP3 MLOAD SWAP1 POP PUSH0 DUP2 PUSH8 0xFFFFFFFFFFFFFFFF DUP2 GT ISZERO PUSH2 0xC6 JUMPI PUSH2 0xC5 PUSH2 0x5FE JUMP JUMPDEST JUMPDEST PUSH1 0x40 MLOAD SWAP1 DUP1 DUP3 MSTORE DUP1 PUSH1 0x20 MUL PUSH1 0x20 ADD DUP3 ADD PUSH1 0x40 MSTORE DUP1 ISZERO PUSH2 0xF4 JUMPI DUP2 PUSH1 0x20 ADD PUSH1 0x20 DUP3 MUL DUP1 CALLDATASIZE DUP4 CALLDATACOPY DUP1 DUP3 ADD SWAP2 POP POP SWAP1 POP JUMPDEST POP SWAP1 POP PUSH0 PUSH0 SWAP1 POP JUMPDEST DUP3 DUP2 LT ISZERO PUSH2 0x14B JUMPI DUP5 DUP2 DUP2 MLOAD DUP2 LT PUSH2 0x117 JUMPI PUSH2 0x116 PUSH2 0x9F4 JUMP JUMPDEST JUMPDEST PUSH1 0x20 MUL PUSH1 0x20 ADD ADD MLOAD DUP3 DUP3 DUP2 MLOAD DUP2 LT PUSH2 0x132 JUMPI PUSH2 0x131 PUSH2 0x9F4 JUMP JUMPDEST JUMPDEST PUSH1 0x20 MUL PUSH1 0x20 ADD ADD DUP2 DUP2 MSTORE POP POP DUP1 DUP1 PUSH1 0x1 ADD SWAP2 POP POP PUSH2 0xFC JUMP JUMPDEST PUSH0 PUSH1 0x2 DUP5 PUSH2 0x159 SWAP2 SWAP1 PUSH2 0xA4E JUMP JUMPDEST PUSH8 0xFFFFFFFFFFFFFFFF DUP2 GT ISZERO PUSH2 0x172 JUMPI PUSH2 0x171 PUSH2 0x5FE JUMP JUMPDEST JUMPDEST PUSH1 0x40 MLOAD SWAP1 DUP1 DUP3 MSTORE DUP1 PUSH1 0x20 MUL PUSH1 0x20 ADD DUP3 ADD PUSH1 0x40 MSTORE DUP1 ISZERO PUSH2 0x1A0 JUMPI DUP2 PUSH1 0x20 ADD PUSH1 0x20 DUP3 MUL DUP1 CALLDATASIZE DUP4 CALLDATACOPY DUP1 DUP3 ADD SWAP2 POP POP SWAP1 POP JUMPDEST POP SWAP1 POP PUSH0 PUSH1 0x1 SWAP1 POP PUSH0 DUP3 DUP3 DUP2 MLOAD DUP2 LT PUSH2 0x1BC JUMPI PUSH2 0x1BB PUSH2 0x9F4 JUMP JUMPDEST JUMPDEST PUSH1 0x20 MUL PUSH1 0x20 ADD ADD DUP2 DUP2 MSTORE POP POP PUSH1 0x1 DUP2 PUSH2 0x1D5 SWAP2 SWAP1 PUSH2 0xA4E JUMP JUMPDEST SWAP1 POP PUSH1 0x1 DUP6 PUSH2 0x1E4 SWAP2 SWAP1 PUSH2 0xA81 JUMP JUMPDEST DUP3 DUP3 DUP2 MLOAD DUP2 LT PUSH2 0x1F7 JUMPI PUSH2 0x1F6 PUSH2 0x9F4 JUMP JUMPDEST JUMPDEST PUSH1 0x20 MUL PUSH1 0x20 ADD ADD DUP2 DUP2 MSTORE POP POP JUMPDEST PUSH0 DUP2 GT ISZERO PUSH2 0x4C6 JUMPI PUSH0 DUP3 DUP3 DUP2 MLOAD DUP2 LT PUSH2 0x220 JUMPI PUSH2 0x21F PUSH2 0x9F4 JUMP JUMPDEST JUMPDEST PUSH1 0x20 MUL PUSH1 0x20 ADD ADD MLOAD SWAP1 POP PUSH1 0x1 DUP3 PUSH2 0x237 SWAP2 SWAP1 PUSH2 0xA81 JUMP JUMPDEST SWAP2 POP PUSH0 DUP4 DUP4 DUP2 MLOAD DUP2 LT PUSH2 0x24D JUMPI PUSH2 0x24C PUSH2 0x9F4 JUMP JUMPDEST JUMPDEST PUSH1 0x20 MUL PUSH1 0x20 ADD ADD MLOAD SWAP1 POP PUSH1 0x1 DUP4 PUSH2 0x264 SWAP2 SWAP1 PUSH2 0xA81 JUMP JUMPDEST SWAP3 POP DUP1 SWAP5 POP PUSH0 DUP7 DUP4 DUP2 MLOAD DUP2 LT PUSH2 0x27D JUMPI PUSH2 0x27C PUSH2 0x9F4 JUMP JUMPDEST JUMPDEST PUSH1 0x20 MUL PUSH1 0x20 ADD ADD MLOAD SWAP1 POP PUSH0 DUP3 SWAP1 POP JUMPDEST DUP4 DUP2 LT ISZERO PUSH2 0x346 JUMPI DUP2 DUP9 DUP3 DUP2 MLOAD DUP2 LT PUSH2 0x2A8 JUMPI PUSH2 0x2A7 PUSH2 0x9F4 JUMP JUMPDEST JUMPDEST PUSH1 0x20 MUL PUSH1 0x20 ADD ADD MLOAD GT PUSH2 0x339 JUMPI DUP8 DUP2 DUP2 MLOAD DUP2 LT PUSH2 0x2C8 JUMPI PUSH2 0x2C7 PUSH2 0x9F4 JUMP JUMPDEST JUMPDEST PUSH1 0x20 MUL PUSH1 0x20 ADD ADD MLOAD DUP9 DUP9 DUP2 MLOAD DUP2 LT PUSH2 0x2E3 JUMPI PUSH2 0x2E2 PUSH2 0x9F4 JUMP JUMPDEST JUMPDEST PUSH1 0x20 MUL PUSH1 0x20 ADD ADD MLOAD DUP10 DUP10 DUP2 MLOAD DUP2 LT PUSH2 0x2FE JUMPI PUSH2 0x2FD PUSH2 0x9F4 JUMP JUMPDEST JUMPDEST PUSH1 0x20 MUL PUSH1 0x20 ADD ADD DUP11 DUP5 DUP2 MLOAD DUP2 LT PUSH2 0x318 JUMPI PUSH2 0x317 PUSH2 0x9F4 JUMP JUMPDEST JUMPDEST PUSH1 0x20 MUL PUSH1 0x20 ADD ADD DUP3 DUP2 MSTORE POP DUP3 DUP2 MSTORE POP POP POP PUSH1 0x1 DUP8 PUSH2 0x336 SWAP2 SWAP1 PUSH2 0xA4E JUMP JUMPDEST SWAP7 POP JUMPDEST DUP1 DUP1 PUSH1 0x1 ADD SWAP2 POP POP PUSH2 0x28C JUMP JUMPDEST POP DUP7 DUP4 DUP2 MLOAD DUP2 LT PUSH2 0x35A JUMPI PUSH2 0x359 PUSH2 0x9F4 JUMP JUMPDEST JUMPDEST PUSH1 0x20 MUL PUSH1 0x20 ADD ADD MLOAD DUP8 DUP8 DUP2 MLOAD DUP2 LT PUSH2 0x375 JUMPI PUSH2 0x374 PUSH2 0x9F4 JUMP JUMPDEST JUMPDEST PUSH1 0x20 MUL PUSH1 0x20 ADD ADD MLOAD DUP9 DUP9 DUP2 MLOAD DUP2 LT PUSH2 0x390 JUMPI PUSH2 0x38F PUSH2 0x9F4 JUMP JUMPDEST JUMPDEST PUSH1 0x20 MUL PUSH1 0x20 ADD ADD DUP10 DUP7 DUP2 MLOAD DUP2 LT PUSH2 0x3AA JUMPI PUSH2 0x3A9 PUSH2 0x9F4 JUMP JUMPDEST JUMPDEST PUSH1 0x20 MUL PUSH1 0x20 ADD ADD DUP3 DUP2 MSTORE POP DUP3 DUP2 MSTORE POP POP POP PUSH0 DUP7 SWAP1 POP PUSH1 0x1 DUP4 PUSH2 0x3CC SWAP2 SWAP1 PUSH2 0xA4E JUMP JUMPDEST DUP2 GT ISZERO PUSH2 0x43E JUMPI PUSH1 0x1 DUP6 PUSH2 0x3E0 SWAP2 SWAP1 PUSH2 0xA4E JUMP JUMPDEST SWAP5 POP DUP3 DUP7 DUP7 DUP2 MLOAD DUP2 LT PUSH2 0x3F6 JUMPI PUSH2 0x3F5 PUSH2 0x9F4 JUMP JUMPDEST JUMPDEST PUSH1 0x20 MUL PUSH1 0x20 ADD ADD DUP2 DUP2 MSTORE POP POP PUSH1 0x1 DUP6 PUSH2 0x40F SWAP2 SWAP1 PUSH2 0xA4E JUMP JUMPDEST SWAP5 POP PUSH1 0x1 DUP2 PUSH2 0x41E SWAP2 SWAP1 PUSH2 0xA81 JUMP JUMPDEST DUP7 DUP7 DUP2 MLOAD DUP2 LT PUSH2 0x431 JUMPI PUSH2 0x430 PUSH2 0x9F4 JUMP JUMPDEST JUMPDEST PUSH1 0x20 MUL PUSH1 0x20 ADD ADD DUP2 DUP2 MSTORE POP POP JUMPDEST DUP4 PUSH1 0x1 DUP3 PUSH2 0x44C SWAP2 SWAP1 PUSH2 0xA4E JUMP JUMPDEST LT ISZERO PUSH2 0x4BD JUMPI PUSH1 0x1 DUP6 PUSH2 0x45F SWAP2 SWAP1 PUSH2 0xA4E JUMP JUMPDEST SWAP5 POP PUSH1 0x1 DUP2 PUSH2 0x46E SWAP2 SWAP1 PUSH2 0xA4E JUMP JUMPDEST DUP7 DUP7 DUP2 MLOAD DUP2 LT PUSH2 0x481 JUMPI PUSH2 0x480 PUSH2 0x9F4 JUMP JUMPDEST JUMPDEST PUSH1 0x20 MUL PUSH1 0x20 ADD ADD DUP2 DUP2 MSTORE POP POP PUSH1 0x1 DUP6 PUSH2 0x49A SWAP2 SWAP1 PUSH2 0xA4E JUMP JUMPDEST SWAP5 POP DUP4 DUP7 DUP7 DUP2 MLOAD DUP2 LT PUSH2 0x4B0 JUMPI PUSH2 0x4AF PUSH2 0x9F4 JUMP JUMPDEST JUMPDEST PUSH1 0x20 MUL PUSH1 0x20 ADD ADD DUP2 DUP2 MSTORE POP POP JUMPDEST POP POP POP POP PUSH2 0x204 JUMP JUMPDEST PUSH0 SWAP3 POP JUMPDEST DUP5 DUP4 LT ISZERO PUSH2 0x519 JUMPI DUP4 DUP4 DUP2 MLOAD DUP2 LT PUSH2 0x4E5 JUMPI PUSH2 0x4E4 PUSH2 0x9F4 JUMP JUMPDEST JUMPDEST PUSH1 0x20 MUL PUSH1 0x20 ADD ADD MLOAD DUP8 DUP5 DUP2 MLOAD DUP2 LT PUSH2 0x500 JUMPI PUSH2 0x4FF PUSH2 0x9F4 JUMP JUMPDEST JUMPDEST PUSH1 0x20 MUL PUSH1 0x20 ADD ADD DUP2 DUP2 MSTORE POP POP DUP3 DUP1 PUSH1 0x1 ADD SWAP4 POP POP PUSH2 0x4CA JUMP JUMPDEST DUP7 SWAP6 POP POP POP POP POP POP SWAP2 SWAP1 POP JUMP JUMPDEST PUSH0 PUSH0 PUSH0 JUMPDEST DUP6 DUP6 SWAP1 POP DUP2 LT ISZERO PUSH2 0x5A9 JUMPI DUP4 PUSH20 0xFFFFFFFFFFFFFFFFFFFFFFFFFFFFFFFFFFFFFFFF AND DUP7 DUP7 DUP4 DUP2 DUP2 LT PUSH2 0x55F JUMPI PUSH2 0x55E PUSH2 0x9F4 JUMP JUMPDEST JUMPDEST SWAP1 POP PUSH1 0x20 MUL ADD PUSH1 0x20 DUP2 ADD SWAP1 PUSH2 0x574 SWAP2 SWAP1 PUSH2 0xAB4 JUMP JUMPDEST PUSH20 0xFFFFFFFFFFFFFFFFFFFFFFFFFFFFFFFFFFFFFFFF AND SUB PUSH2 0x59C JUMPI PUSH1 0x1 DUP2 SWAP3 POP SWAP3 POP POP PUSH2 0x5D1 JUMP JUMPDEST DUP1 DUP1 PUSH1 0x1 ADD SWAP2 POP POP PUSH2 0x52A JUMP JUMPDEST POP PUSH0 PUSH32 0xFFFFFFFFFFFFFFFFFFFFFFFFFFFFFFFFFFFFFFFFFFFFFFFFFFFFFFFFFFFFFFFF SWAP2 POP SWAP2 POP JUMPDEST SWAP4 POP SWAP4 SWAP2 POP POP JUMP JUMPDEST PUSH0 PUSH1 0x40 MLOAD SWAP1 POP SWAP1 JUMP JUMPDEST PUSH0 PUSH0 REVERT JUMPDEST PUSH0 PUSH0 REVERT JUMPDEST PUSH0 PUSH0 REVERT JUMPDEST PUSH0 PUSH1 0x1F NOT PUSH1 0x1F DUP4 ADD AND SWAP1 POP SWAP2 SWAP1 POP JUMP JUMPDEST PUSH32 0x4E487B7100000000000000000000000000000000000000000000000000000000 PUSH0 MSTORE PUSH1 0x41 PUSH1 0x4 MSTORE PUSH1 0x24 PUSH0 REVERT JUMPDEST PUSH2 0x634 DUP3 PUSH2 0x5EE JUMP JUMPDEST DUP2 ADD DUP2 DUP2 LT PUSH8 0xFFFFFFFFFFFFFFFF DUP3 GT OR ISZERO PUSH2 0x653 JUMPI PUSH2 0x652 PUSH2 0x5FE JUMP JUMPDEST JUMPDEST DUP1 PUSH1 0x40 MSTORE POP POP POP JUMP JUMPDEST PUSH0 PUSH2 0x665 PUSH2 0x5D9 JUMP JUMPDEST SWAP1 POP PUSH2 0x671 DUP3 DUP3 PUSH2 0x62B JUMP JUMPDEST SWAP2 SWAP1 POP JUMP JUMPDEST PUSH0 PUSH8 0xFFFFFFFFFFFFFFFF DUP3 GT ISZERO PUSH2 0x690 JUMPI PUSH2 0x68F PUSH2 0x5FE JUMP JUMPDEST JUMPDEST PUSH1 0x20 DUP3 MUL SWAP1 POP PUSH1 0x20 DUP2 ADD SWAP1 POP SWAP2 SWAP1 POP JUMP JUMPDEST PUSH0 PUSH0 REVERT JUMPDEST PUSH0 DUP2 SWAP1 POP SWAP2 SWAP1 POP JUMP JUMPDEST PUSH2 0x6B7 DUP2 PUSH2 0x6A5 JUMP JUMPDEST DUP2 EQ PUSH2 0x6C1 JUMPI PUSH0 PUSH0 REVERT JUMPDEST POP JUMP JUMPDEST PUSH0 DUP2 CALLDATALOAD SWAP1 POP PUSH2 0x6D2 DUP2 PUSH2 0x6AE JUMP JUMPDEST SWAP3 SWAP2 POP POP JUMP JUMPDEST PUSH0 PUSH2 0x6EA PUSH2 0x6E5 DUP5 PUSH2 0x676 JUMP JUMPDEST PUSH2 0x65C JUMP JUMPDEST SWAP1 POP DUP1 DUP4 DUP3 MSTORE PUSH1 0x20 DUP3 ADD SWAP1 POP PUSH1 0x20 DUP5 MUL DUP4 ADD DUP6 DUP2 GT ISZERO PUSH2 0x70D JUMPI PUSH2 0x70C PUSH2 0x6A1 JUMP JUMPDEST JUMPDEST DUP4 JUMPDEST DUP2 DUP2 LT ISZERO PUSH2 0x736 JUMPI DUP1 PUSH2 0x722 DUP9 DUP3 PUSH2 0x6C4 JUMP JUMPDEST DUP5 MSTORE PUSH1 0x20 DUP5 ADD SWAP4 POP POP PUSH1 0x20 DUP2 ADD SWAP1 POP PUSH2 0x70F JUMP JUMPDEST POP POP POP SWAP4 SWAP3 POP POP POP JUMP JUMPDEST PUSH0 DUP3 PUSH1 0x1F DUP4 ADD SLT PUSH2 0x754 JUMPI PUSH2 0x753 PUSH2 0x5EA JUMP JUMPDEST JUMPDEST DUP2 CALLDATALOAD PUSH2 0x764 DUP5 DUP3 PUSH1 0x20 DUP7 ADD PUSH2 0x6D8 JUMP JUMPDEST SWAP2 POP POP SWAP3 SWAP2 POP POP JUMP JUMPDEST PUSH0 PUSH1 0x20 DUP3 DUP5 SUB SLT ISZERO PUSH2 0x782 JUMPI PUSH2 0x781 PUSH2 0x5E2 JUMP JUMPDEST JUMPDEST PUSH0 DUP3 ADD CALLDATALOAD PUSH8 0xFFFFFFFFFFFFFFFF DUP2 GT ISZERO PUSH2 0x79F JUMPI PUSH2 0x79E PUSH2 0x5E6 JUMP JUMPDEST JUMPDEST PUSH2 0x7AB DUP5 DUP3 DUP6 ADD PUSH2 0x740 JUMP JUMPDEST SWAP2 POP POP SWAP3 SWAP2 POP POP JUMP JUMPDEST PUSH0 DUP2 MLOAD SWAP1 POP SWAP2 SWAP1 POP JUMP JUMPDEST PUSH0 DUP3 DUP3 MSTORE PUSH1 0x20 DUP3 ADD SWAP1 POP SWAP3 SWAP2 POP POP JUMP JUMPDEST PUSH0 DUP2 SWAP1 POP PUSH1 0x20 DUP3 ADD SWAP1 POP SWAP2 SWAP1 POP JUMP JUMPDEST PUSH2 0x7E6 DUP2 PUSH2 0x6A5 JUMP JUMPDEST DUP3 MSTORE POP POP JUMP JUMPDEST PUSH0 PUSH2 0x7F7 DUP4 DUP4 PUSH2 0x7DD JUMP JUMPDEST PUSH1 0x20 DUP4 ADD SWAP1 POP SWAP3 SWAP2 POP POP JUMP JUMPDEST PUSH0 PUSH1 0x20 DUP3 ADD SWAP1 POP SWAP2 SWAP1 POP JUMP JUMPDEST PUSH0 PUSH2 0x819 DUP3 PUSH2 0x7B4 JUMP JUMPDEST PUSH2 0x823 DUP2 DUP6 PUSH2 0x7BE JUMP JUMPDEST SWAP4 POP PUSH2 0x82E DUP4 PUSH2 0x7CE JUMP JUMPDEST DUP1 PUSH0 JUMPDEST DUP4 DUP2 LT ISZERO PUSH2 0x85E JUMPI DUP2 MLOAD PUSH2 0x845 DUP9 DUP3 PUSH2 0x7EC JUMP JUMPDEST SWAP8 POP PUSH2 0x850 DUP4 PUSH2 0x803 JUMP JUMPDEST SWAP3 POP POP PUSH1 0x1 DUP2 ADD SWAP1 POP PUSH2 0x831 JUMP JUMPDEST POP DUP6 SWAP4 POP POP POP POP SWAP3 SWAP2 POP POP JUMP JUMPDEST PUSH0 PUSH1 0x20 DUP3 ADD SWAP1 POP DUP2 DUP2 SUB PUSH0 DUP4 ADD MSTORE PUSH2 0x883 DUP2 DUP5 PUSH2 0x80F JUMP JUMPDEST SWAP1 POP SWAP3 SWAP2 POP POP JUMP JUMPDEST PUSH0 PUSH0 REVERT JUMPDEST PUSH0 PUSH0 DUP4 PUSH1 0x1F DUP5 ADD SLT PUSH2 0x8A4 JUMPI PUSH2 0x8A3 PUSH2 0x5EA JUMP JUMPDEST JUMPDEST DUP3 CALLDATALOAD SWAP1 POP PUSH8 0xFFFFFFFFFFFFFFFF DUP2 GT ISZERO PUSH2 0x8C1 JUMPI PUSH2 0x8C0 PUSH2 0x88B JUMP JUMPDEST JUMPDEST PUSH1 0x20 DUP4 ADD SWAP2 POP DUP4 PUSH1 0x20 DUP3 MUL DUP4 ADD GT ISZERO PUSH2 0x8DD JUMPI PUSH2 0x8DC PUSH2 0x6A1 JUMP JUMPDEST JUMPDEST SWAP3 POP SWAP3 SWAP1 POP JUMP JUMPDEST PUSH0 PUSH20 0xFFFFFFFFFFFFFFFFFFFFFFFFFFFFFFFFFFFFFFFF DUP3 AND SWAP1 POP SWAP2 SWAP1 POP JUMP JUMPDEST PUSH0 PUSH2 0x90D DUP3 PUSH2 0x8E4 JUMP JUMPDEST SWAP1 POP SWAP2 SWAP1 POP JUMP JUMPDEST PUSH2 0x91D DUP2 PUSH2 0x903 JUMP JUMPDEST DUP2 EQ PUSH2 0x927 JUMPI PUSH0 PUSH0 REVERT JUMPDEST POP JUMP JUMPDEST PUSH0 DUP2 CALLDATALOAD SWAP1 POP PUSH2 0x938 DUP2 PUSH2 0x914 JUMP JUMPDEST SWAP3 SWAP2 POP POP JUMP JUMPDEST PUSH0 PUSH0 PUSH0 PUSH1 0x40 DUP5 DUP7 SUB SLT ISZERO PUSH2 0x955 JUMPI PUSH2 0x954 PUSH2 0x5E2 JUMP JUMPDEST JUMPDEST PUSH0 DUP5 ADD CALLDATALOAD PUSH8 0xFFFFFFFFFFFFFFFF DUP2 GT ISZERO PUSH2 0x972 JUMPI PUSH2 0x971 PUSH2 0x5E6 JUMP JUMPDEST JUMPDEST PUSH2 0x97E DUP7 DUP3 DUP8 ADD PUSH2 0x88F JUMP JUMPDEST SWAP4 POP SWAP4 POP POP PUSH1 0x20 PUSH2 0x991 DUP7 DUP3 DUP8 ADD PUSH2 0x92A JUMP JUMPDEST SWAP2 POP POP SWAP3 POP SWAP3 POP SWAP3 JUMP JUMPDEST PUSH0 DUP2 ISZERO ISZERO SWAP1 POP SWAP2 SWAP1 POP JUMP JUMPDEST PUSH2 0x9AF DUP2 PUSH2 0x99B JUMP JUMPDEST DUP3 MSTORE POP POP JUMP JUMPDEST PUSH0 DUP2 SWAP1 POP SWAP2 SWAP1 POP JUMP JUMPDEST PUSH2 0x9C7 DUP2 PUSH2 0x9B5 JUMP JUMPDEST DUP3 MSTORE POP POP JUMP JUMPDEST PUSH0 PUSH1 0x40 DUP3 ADD SWAP1 POP PUSH2 0x9E0 PUSH0 DUP4 ADD DUP6 PUSH2 0x9A6 JUMP JUMPDEST PUSH2 0x9ED PUSH1 0x20 DUP4 ADD DUP5 PUSH2 0x9BE JUMP JUMPDEST SWAP4 SWAP3 POP POP POP JUMP JUMPDEST PUSH32 0x4E487B7100000000000000000000000000000000000000000000000000000000 PUSH0 MSTORE PUSH1 0x32 PUSH1 0x4 MSTORE PUSH1 0x24 PUSH0 REVERT JUMPDEST PUSH32 0x4E487B7100000000000000000000000000000000000000000000000000000000 PUSH0 MSTORE PUSH1 0x11 PUSH1 0x4 MSTORE PUSH1 0x24 PUSH0 REVERT JUMPDEST PUSH0 PUSH2 0xA58 DUP3 PUSH2 0x6A5 JUMP JUMPDEST SWAP2 POP PUSH2 0xA63 DUP4 PUSH2 0x6A5 JUMP JUMPDEST SWAP3 POP DUP3 DUP3 ADD SWAP1 POP DUP1 DUP3 GT ISZERO PUSH2 0xA7B JUMPI PUSH2 0xA7A PUSH2 0xA21 JUMP JUMPDEST JUMPDEST SWAP3 SWAP2 POP POP JUMP JUMPDEST PUSH0 PUSH2 0xA8B DUP3 PUSH2 0x6A5 JUMP JUMPDEST SWAP2 POP PUSH2 0xA96 DUP4 PUSH2 0x6A5 JUMP JUMPDEST SWAP3 POP DUP3 DUP3 SUB SWAP1 POP DUP2 DUP2 GT ISZERO PUSH2 0xAAE JUMPI PUSH2 0xAAD PUSH2 0xA21 JUMP JUMPDEST JUMPDEST SWAP3 SWAP2 POP POP JUMP JUMPDEST PUSH0 PUSH1 0x20 DUP3 DUP5 SUB SLT ISZERO PUSH2 0xAC9 JUMPI PUSH2 0xAC8 PUSH2 0x5E2 JUMP JUMPDEST JUMPDEST PUSH0 PUSH2 0xAD6 DUP5 DUP3 DUP6 ADD PUSH2 0x92A JUMP JUMPDEST SWAP2 POP POP SWAP3 SWAP2 POP POP JUMP INVALID LOG2 PUSH5 0x6970667358 0x22 SLT KECCAK256 SLOAD 0xC7 0xAD 0xC0 DUP1 0xDD ADD 0xBB GAS SWAP15 0xDF TLOAD ISZERO PUSH30 0xF3967465B511FBDD5FBABC048C2A8E0606D464736F6C634300081E003300 "
		},
		"gasEstimates": {
			"creation": {
				"codeDepositCost": "567400",
				"executionCost": "623",
				"totalCost": "568023"
			},
			"external": {
				"find(address[],address)": "infinite",
				"sort(uint256[])": "infinite"
			},
			"internal": {
				"remove(uint256[] storage pointer,uint256)": "infinite"
			}
		},
		"methodIdentifiers": {
			"find(address[],address)": "d5750aae",
			"sort(uint256[])": "9ec8b026"
		}
	},
	"abi": [
		{
			"inputs": [
				{
					"internalType": "address[]",
					"name": "arr",
					"type": "address[]"
				},
				{
					"internalType": "address",
					"name": "elementTofind",
					"type": "address"
				}
			],
			"name": "find",
			"outputs": [
				{
					"internalType": "bool",
					"name": "",
					"type": "bool"
				},
				{
					"internalType": "int256",
					"name": "",
					"type": "int256"
				}
			],
			"stateMutability": "pure",
			"type": "function"
		},
		{
			"inputs": [
				{
					"internalType": "uint256[]",
					"name": "data",
					"type": "uint256[]"
				}
			],
			"name": "sort",
			"outputs": [
				{
					"internalType": "uint256[]",
					"name": "",
					"type": "uint256[]"
				}
			],
			"stateMutability": "pure",
			"type": "function"
		}
	]
}